{
  "contractName": "Assertion",
  "abi": [
    {
      "inputs": [
        {
          "internalType": "address",
          "name": "hubAddress",
          "type": "address"
        }
      ],
      "stateMutability": "nonpayable",
      "type": "constructor"
    },
    {
      "anonymous": false,
      "inputs": [
        {
          "indexed": true,
          "internalType": "bytes32",
          "name": "assertionId",
          "type": "bytes32"
        },
        {
          "indexed": false,
          "internalType": "uint128",
          "name": "size",
          "type": "uint128"
        },
        {
          "indexed": false,
          "internalType": "uint32",
          "name": "triplesNumber",
          "type": "uint32"
        },
        {
          "indexed": false,
          "internalType": "uint96",
          "name": "chunksNumber",
          "type": "uint96"
        }
      ],
      "name": "AssertionCreated",
      "type": "event"
    },
    {
      "inputs": [],
      "name": "assertionStorage",
      "outputs": [
        {
          "internalType": "contract AssertionStorage",
          "name": "",
          "type": "address"
        }
      ],
      "stateMutability": "view",
      "type": "function"
    },
    {
      "inputs": [],
      "name": "hub",
      "outputs": [
        {
          "internalType": "contract Hub",
          "name": "",
          "type": "address"
        }
      ],
      "stateMutability": "view",
      "type": "function"
    },
    {
      "inputs": [],
      "name": "initialize",
      "outputs": [],
      "stateMutability": "nonpayable",
      "type": "function"
    },
    {
      "inputs": [],
      "name": "name",
      "outputs": [
        {
          "internalType": "string",
          "name": "",
          "type": "string"
        }
      ],
      "stateMutability": "pure",
      "type": "function"
    },
    {
      "inputs": [],
      "name": "version",
      "outputs": [
        {
          "internalType": "string",
          "name": "",
          "type": "string"
        }
      ],
      "stateMutability": "pure",
      "type": "function"
    },
    {
      "inputs": [
        {
          "internalType": "bytes32",
          "name": "assertionId",
          "type": "bytes32"
        },
        {
          "internalType": "uint128",
          "name": "size",
          "type": "uint128"
        },
        {
          "internalType": "uint32",
          "name": "triplesNumber",
          "type": "uint32"
        },
        {
          "internalType": "uint96",
          "name": "chunksNumber",
          "type": "uint96"
        }
      ],
      "name": "createAssertion",
      "outputs": [],
      "stateMutability": "nonpayable",
      "type": "function"
    }
  ],
  "bytecode": "0x6080604090808252346101ce576108c2803803809161001e82856101d3565b83396001600160a01b03918291610038919081019061020c565b1690811561018a57600080546001600160a01b0319908116841782558451638da5cb5b60e01b815290936020918281600481855afa908115610180579085918591610163575b50163303610121579080606492875193848092630110ceef60e21b8252846004830152601060248301526f417373657274696f6e53746f7261676560801b60448301525afa92831561011657926100e9575b50501690600154161760015551610696908161022c8239f35b6101089250803d1061010f575b61010081836101d3565b81019061020c565b38806100d0565b503d6100f6565b8651903d90823e3d90fd5b60648287519062461bcd60e51b825280600483015260248201527f466e2063616e206f6e6c79206265207573656420627920687562206f776e65726044820152fd5b61017a9150843d861161010f5761010081836101d3565b3861007e565b87513d86823e3d90fd5b825162461bcd60e51b815260206004820152601960248201527f48756220416464726573732063616e6e6f7420626520307830000000000000006044820152606490fd5b600080fd5b601f909101601f19168101906001600160401b038211908210176101f657604052565b634e487b7160e01b600052604160045260246000fd5b908160209103126101ce57516001600160a01b03811681036101ce579056fe608060408181526004918236101561001657600080fd5b600092833560e01c91826306fdde031461056257508163365a86fc1461053a57816354fd4d50146104f95781638129fc1c146103a6578163b83838f214610092575063d210b7cf1461006757600080fd5b3461008e578160031936011261008e5760015490516001600160a01b039091168152602090f35b5080fd5b905034610229576080366003190112610229578035906024908135916fffffffffffffffffffffffffffffffff83168093036103a25760449081359163ffffffff831680930361039e576064918235946bffffffffffffffffffffffff861680960361039a5789548951631627905560e01b81523383820152602095916001600160a01b039190879082908790829086165afa908115610390578d91610356575b501561031857600154169089156102da5788156102a957861561026b57871561022d57908b91813b15610229578a838b938b8f948c608496519b8c988997635c1c1c7960e11b89528c8901528c8801528601528401525af1801561021f576101ce575b5050865194855250830152818401527f6228bc6c1a8f028a2e3476a455a34f5fa23b4387611f3c147a965e375ebd17ba90606090a251f35b67ffffffffffffffff839a949a1161020e5750508652958160607f6228bc6c1a8f028a2e3476a455a34f5fa23b4387611f3c147a965e375ebd17ba610196565b634e487b7160e01b84526041905282fd5b89513d8c823e3d90fd5b8280fd5b8a5162461bcd60e51b81528084018790526019818601527f4368756e6b73206e756d6265722063616e6e6f7420626520300000000000000081870152fd5b8a5162461bcd60e51b8152808401879052601a818601527f547269706c6573206e756d6265722063616e6e6f74206265203000000000000081870152fd5b8a5162461bcd60e51b81528084018790526010818601526f053697a652063616e6e6f7420626520360841b81870152fd5b8a5162461bcd60e51b8152808401879052601c818601527f417373657274696f6e2049442063616e6e6f7420626520656d7074790000000081870152fd5b5092847f466e2063616e206f6e6c792062652063616c6c656420627920746865206875629293818c519562461bcd60e51b8752860152840152820152fd5b90508681813d8311610389575b61036d818361061a565b81010312610385575180151581036103855738610133565b8c80fd5b503d610363565b8c513d8f823e3d90fd5b8980fd5b8780fd5b8580fd5b90503461022957826003193601126102295782548251638da5cb5b60e01b81526001600160a01b039260209284169183818381865afa80156104ef57859188916104d2575b5016330361049157826064819287519485938492630110ceef60e21b8452830152601060248301526f417373657274696f6e53746f7261676560801b60448301525afa91821561048757859261045a575b5050166bffffffffffffffffffffffff60a01b600154161760015551f35b6104799250803d10610480575b610471818361061a565b81019061063c565b388061043c565b503d610467565b84513d87823e3d90fd5b606490838087519262461bcd60e51b845283015260248201527f466e2063616e206f6e6c79206265207573656420627920687562206f776e65726044820152fd5b6104e99150853d871161048057610471818361061a565b386103eb565b86513d89823e3d90fd5b50503461008e578160031936011261008e5780516105369161051a826105e8565b60058252640312e302e360dc1b6020830152519182918261059f565b0390f35b50503461008e578160031936011261008e57905490516001600160a01b039091168152602090f35b849084346102295782600319360112610229576105369250610583826105e8565b600982526820b9b9b2b93a34b7b760b91b602083015251918291825b6020808252825181830181905290939260005b8281106105d457505060409293506000838284010152601f8019910116010190565b8181018601518482016040015285016105b2565b6040810190811067ffffffffffffffff82111761060457604052565b634e487b7160e01b600052604160045260246000fd5b90601f8019910116810190811067ffffffffffffffff82111761060457604052565b9081602091031261065b57516001600160a01b038116810361065b5790565b600080fdfea2646970667358221220a345a568b7a3e0bc68a71c27c3d658e075dd133d621acf8ed5fe467575d2e18c64736f6c63430008100033",
  "immutableReferences": {},
  "source": "// SPDX-License-Identifier: MIT\n\npragma solidity ^0.8.4;\n\nimport {Hub} from \"./Hub.sol\";\nimport {AssertionStorage} from \"./storage/AssertionStorage.sol\";\nimport {Named} from \"./interface/Named.sol\";\nimport {Versioned} from \"./interface/Versioned.sol\";\nimport {AssertionStructs} from \"./structs/AssertionStructs.sol\";\n\ncontract Assertion is Named, Versioned {\n    event AssertionCreated(bytes32 indexed assertionId, uint128 size, uint32 triplesNumber, uint96 chunksNumber);\n\n    string private constant _NAME = \"Assertion\";\n    string private constant _VERSION = \"1.0.0\";\n\n    Hub public hub;\n    AssertionStorage public assertionStorage;\n\n    constructor(address hubAddress) {\n        require(hubAddress != address(0), \"Hub Address cannot be 0x0\");\n\n        hub = Hub(hubAddress);\n        initialize();\n    }\n\n    modifier onlyHubOwner() {\n        _checkHubOwner();\n        _;\n    }\n\n    modifier onlyContracts() {\n        _checkHub();\n        _;\n    }\n\n    function initialize() public onlyHubOwner {\n        assertionStorage = AssertionStorage(hub.getContractAddress(\"AssertionStorage\"));\n    }\n\n    function name() external pure virtual override returns (string memory) {\n        return _NAME;\n    }\n\n    function version() external pure virtual override returns (string memory) {\n        return _VERSION;\n    }\n\n    function createAssertion(\n        bytes32 assertionId,\n        uint128 size,\n        uint32 triplesNumber,\n        uint96 chunksNumber\n    ) external onlyContracts {\n        AssertionStorage ans = assertionStorage;\n\n        require(assertionId != bytes32(0), \"Assertion ID cannot be empty\");\n        require(size != 0, \"Size cannot be 0\");\n        require(triplesNumber != 0, \"Triples number cannot be 0\");\n        require(chunksNumber != 0, \"Chunks number cannot be 0\");\n\n        ans.createAssertion(assertionId, size, triplesNumber, chunksNumber);\n\n        emit AssertionCreated(assertionId, size, triplesNumber, chunksNumber);\n    }\n\n    function _checkHubOwner() internal view virtual {\n        require(msg.sender == hub.owner(), \"Fn can only be used by hub owner\");\n    }\n\n    function _checkHub() internal view virtual {\n        require(hub.isContract(msg.sender), \"Fn can only be called by the hub\");\n    }\n}\n",
  "sourcePath": "/Users/waving/Desktop/OriginTrail/dkg-evm-module/contracts/Assertion.sol",
  "compiler": {
    "name": "solc",
    "version": "0.8.16+commit.07a7930e.Emscripten.clang"
  },
  "schemaVersion": "3.4.10",
  "updatedAt": "2022-12-14T11:55:11.594Z",
  "devdoc": {
    "kind": "dev",
    "methods": {},
    "version": 1
  },
  "userdoc": {
    "kind": "user",
    "methods": {},
    "version": 1
  }
}