{
  "contractName": "ContentAssetStorage",
  "abi": [
    {
      "inputs": [
        {
          "internalType": "address",
          "name": "hubAddress",
          "type": "address"
        }
      ],
      "stateMutability": "nonpayable",
      "type": "constructor"
    },
    {
      "anonymous": false,
      "inputs": [
        {
          "indexed": true,
          "internalType": "address",
          "name": "owner",
          "type": "address"
        },
        {
          "indexed": true,
          "internalType": "address",
          "name": "approved",
          "type": "address"
        },
        {
          "indexed": true,
          "internalType": "uint256",
          "name": "tokenId",
          "type": "uint256"
        }
      ],
      "name": "Approval",
      "type": "event"
    },
    {
      "anonymous": false,
      "inputs": [
        {
          "indexed": true,
          "internalType": "address",
          "name": "owner",
          "type": "address"
        },
        {
          "indexed": true,
          "internalType": "address",
          "name": "operator",
          "type": "address"
        },
        {
          "indexed": false,
          "internalType": "bool",
          "name": "approved",
          "type": "bool"
        }
      ],
      "name": "ApprovalForAll",
      "type": "event"
    },
    {
      "anonymous": false,
      "inputs": [
        {
          "indexed": true,
          "internalType": "address",
          "name": "from",
          "type": "address"
        },
        {
          "indexed": true,
          "internalType": "address",
          "name": "to",
          "type": "address"
        },
        {
          "indexed": true,
          "internalType": "uint256",
          "name": "tokenId",
          "type": "uint256"
        }
      ],
      "name": "Transfer",
      "type": "event"
    },
    {
      "inputs": [
        {
          "internalType": "address",
          "name": "to",
          "type": "address"
        },
        {
          "internalType": "uint256",
          "name": "tokenId",
          "type": "uint256"
        }
      ],
      "name": "approve",
      "outputs": [],
      "stateMutability": "nonpayable",
      "type": "function"
    },
    {
      "inputs": [
        {
          "internalType": "address",
          "name": "owner",
          "type": "address"
        }
      ],
      "name": "balanceOf",
      "outputs": [
        {
          "internalType": "uint256",
          "name": "",
          "type": "uint256"
        }
      ],
      "stateMutability": "view",
      "type": "function"
    },
    {
      "inputs": [
        {
          "internalType": "uint256",
          "name": "tokenId",
          "type": "uint256"
        }
      ],
      "name": "getApproved",
      "outputs": [
        {
          "internalType": "address",
          "name": "",
          "type": "address"
        }
      ],
      "stateMutability": "view",
      "type": "function"
    },
    {
      "inputs": [
        {
          "internalType": "uint256",
          "name": "tokenId",
          "type": "uint256"
        },
        {
          "internalType": "uint256",
          "name": "index",
          "type": "uint256"
        }
      ],
      "name": "getAssertionIdByIndex",
      "outputs": [
        {
          "internalType": "bytes32",
          "name": "",
          "type": "bytes32"
        }
      ],
      "stateMutability": "view",
      "type": "function"
    },
    {
      "inputs": [
        {
          "internalType": "uint256",
          "name": "tokenId",
          "type": "uint256"
        }
      ],
      "name": "getAssertionIdsLength",
      "outputs": [
        {
          "internalType": "uint256",
          "name": "",
          "type": "uint256"
        }
      ],
      "stateMutability": "view",
      "type": "function"
    },
    {
      "inputs": [
        {
          "internalType": "uint256",
          "name": "tokenId",
          "type": "uint256"
        }
      ],
      "name": "getLatestAssertionId",
      "outputs": [
        {
          "internalType": "bytes32",
          "name": "",
          "type": "bytes32"
        }
      ],
      "stateMutability": "view",
      "type": "function"
    },
    {
      "inputs": [],
      "name": "hub",
      "outputs": [
        {
          "internalType": "contract Hub",
          "name": "",
          "type": "address"
        }
      ],
      "stateMutability": "view",
      "type": "function"
    },
    {
      "inputs": [
        {
          "internalType": "address",
          "name": "owner",
          "type": "address"
        },
        {
          "internalType": "address",
          "name": "operator",
          "type": "address"
        }
      ],
      "name": "isApprovedForAll",
      "outputs": [
        {
          "internalType": "bool",
          "name": "",
          "type": "bool"
        }
      ],
      "stateMutability": "view",
      "type": "function"
    },
    {
      "inputs": [
        {
          "internalType": "bytes32",
          "name": "",
          "type": "bytes32"
        }
      ],
      "name": "issuers",
      "outputs": [
        {
          "internalType": "address",
          "name": "",
          "type": "address"
        }
      ],
      "stateMutability": "view",
      "type": "function"
    },
    {
      "inputs": [
        {
          "internalType": "uint256",
          "name": "tokenId",
          "type": "uint256"
        }
      ],
      "name": "ownerOf",
      "outputs": [
        {
          "internalType": "address",
          "name": "",
          "type": "address"
        }
      ],
      "stateMutability": "view",
      "type": "function"
    },
    {
      "inputs": [
        {
          "internalType": "address",
          "name": "from",
          "type": "address"
        },
        {
          "internalType": "address",
          "name": "to",
          "type": "address"
        },
        {
          "internalType": "uint256",
          "name": "tokenId",
          "type": "uint256"
        }
      ],
      "name": "safeTransferFrom",
      "outputs": [],
      "stateMutability": "nonpayable",
      "type": "function"
    },
    {
      "inputs": [
        {
          "internalType": "address",
          "name": "from",
          "type": "address"
        },
        {
          "internalType": "address",
          "name": "to",
          "type": "address"
        },
        {
          "internalType": "uint256",
          "name": "tokenId",
          "type": "uint256"
        },
        {
          "internalType": "bytes",
          "name": "data",
          "type": "bytes"
        }
      ],
      "name": "safeTransferFrom",
      "outputs": [],
      "stateMutability": "nonpayable",
      "type": "function"
    },
    {
      "inputs": [
        {
          "internalType": "address",
          "name": "operator",
          "type": "address"
        },
        {
          "internalType": "bool",
          "name": "approved",
          "type": "bool"
        }
      ],
      "name": "setApprovalForAll",
      "outputs": [],
      "stateMutability": "nonpayable",
      "type": "function"
    },
    {
      "inputs": [
        {
          "internalType": "bytes4",
          "name": "interfaceId",
          "type": "bytes4"
        }
      ],
      "name": "supportsInterface",
      "outputs": [
        {
          "internalType": "bool",
          "name": "",
          "type": "bool"
        }
      ],
      "stateMutability": "view",
      "type": "function"
    },
    {
      "inputs": [],
      "name": "symbol",
      "outputs": [
        {
          "internalType": "string",
          "name": "",
          "type": "string"
        }
      ],
      "stateMutability": "view",
      "type": "function"
    },
    {
      "inputs": [
        {
          "internalType": "uint256",
          "name": "tokenId",
          "type": "uint256"
        }
      ],
      "name": "tokenURI",
      "outputs": [
        {
          "internalType": "string",
          "name": "",
          "type": "string"
        }
      ],
      "stateMutability": "view",
      "type": "function"
    },
    {
      "inputs": [
        {
          "internalType": "address",
          "name": "from",
          "type": "address"
        },
        {
          "internalType": "address",
          "name": "to",
          "type": "address"
        },
        {
          "internalType": "uint256",
          "name": "tokenId",
          "type": "uint256"
        }
      ],
      "name": "transferFrom",
      "outputs": [],
      "stateMutability": "nonpayable",
      "type": "function"
    },
    {
      "inputs": [],
      "name": "name",
      "outputs": [
        {
          "internalType": "string",
          "name": "",
          "type": "string"
        }
      ],
      "stateMutability": "view",
      "type": "function"
    },
    {
      "inputs": [],
      "name": "version",
      "outputs": [
        {
          "internalType": "string",
          "name": "",
          "type": "string"
        }
      ],
      "stateMutability": "pure",
      "type": "function"
    },
    {
      "inputs": [
        {
          "internalType": "address",
          "name": "to",
          "type": "address"
        },
        {
          "internalType": "uint256",
          "name": "tokenId",
          "type": "uint256"
        }
      ],
      "name": "mint",
      "outputs": [],
      "stateMutability": "nonpayable",
      "type": "function"
    },
    {
      "inputs": [
        {
          "internalType": "uint256",
          "name": "tokenId",
          "type": "uint256"
        }
      ],
      "name": "burn",
      "outputs": [],
      "stateMutability": "nonpayable",
      "type": "function"
    },
    {
      "inputs": [],
      "name": "generateTokenId",
      "outputs": [
        {
          "internalType": "uint256",
          "name": "",
          "type": "uint256"
        }
      ],
      "stateMutability": "nonpayable",
      "type": "function"
    },
    {
      "inputs": [
        {
          "internalType": "uint256",
          "name": "tokenId",
          "type": "uint256"
        }
      ],
      "name": "deleteAsset",
      "outputs": [],
      "stateMutability": "nonpayable",
      "type": "function"
    },
    {
      "inputs": [
        {
          "internalType": "uint256",
          "name": "tokenId",
          "type": "uint256"
        }
      ],
      "name": "getAsset",
      "outputs": [
        {
          "components": [
            {
              "internalType": "bool",
              "name": "immutable_",
              "type": "bool"
            },
            {
              "internalType": "bytes32[]",
              "name": "assertionIds",
              "type": "bytes32[]"
            }
          ],
          "internalType": "struct ContentAssetStructs.Asset",
          "name": "",
          "type": "tuple"
        }
      ],
      "stateMutability": "view",
      "type": "function"
    },
    {
      "inputs": [
        {
          "internalType": "uint256",
          "name": "tokenId",
          "type": "uint256"
        },
        {
          "internalType": "bool",
          "name": "immutable_",
          "type": "bool"
        }
      ],
      "name": "setMutability",
      "outputs": [],
      "stateMutability": "nonpayable",
      "type": "function"
    },
    {
      "inputs": [
        {
          "internalType": "uint256",
          "name": "tokenId",
          "type": "uint256"
        }
      ],
      "name": "isMutable",
      "outputs": [
        {
          "internalType": "bool",
          "name": "",
          "type": "bool"
        }
      ],
      "stateMutability": "view",
      "type": "function"
    },
    {
      "inputs": [
        {
          "internalType": "uint256",
          "name": "tokenId",
          "type": "uint256"
        },
        {
          "internalType": "bytes32",
          "name": "assertionId",
          "type": "bytes32"
        }
      ],
      "name": "pushAssertionId",
      "outputs": [],
      "stateMutability": "nonpayable",
      "type": "function"
    },
    {
      "inputs": [
        {
          "internalType": "uint256",
          "name": "tokenId",
          "type": "uint256"
        }
      ],
      "name": "getAssertionIds",
      "outputs": [
        {
          "internalType": "bytes32[]",
          "name": "",
          "type": "bytes32[]"
        }
      ],
      "stateMutability": "view",
      "type": "function"
    },
    {
      "inputs": [
        {
          "internalType": "uint256",
          "name": "tokenId",
          "type": "uint256"
        },
        {
          "internalType": "bytes32",
          "name": "assertionId",
          "type": "bytes32"
        },
        {
          "internalType": "address",
          "name": "issuer",
          "type": "address"
        }
      ],
      "name": "setAssertionIssuer",
      "outputs": [],
      "stateMutability": "nonpayable",
      "type": "function"
    },
    {
      "inputs": [
        {
          "internalType": "uint256",
          "name": "tokenId",
          "type": "uint256"
        },
        {
          "internalType": "bytes32",
          "name": "assertionId",
          "type": "bytes32"
        },
        {
          "internalType": "uint256",
          "name": "index",
          "type": "uint256"
        }
      ],
      "name": "deleteAssertionIssuer",
      "outputs": [],
      "stateMutability": "nonpayable",
      "type": "function"
    },
    {
      "inputs": [
        {
          "internalType": "uint256",
          "name": "tokenId",
          "type": "uint256"
        },
        {
          "internalType": "bytes32",
          "name": "assertionId",
          "type": "bytes32"
        },
        {
          "internalType": "uint256",
          "name": "assertionIndex",
          "type": "uint256"
        }
      ],
      "name": "getAssertionIssuer",
      "outputs": [
        {
          "internalType": "address",
          "name": "",
          "type": "address"
        }
      ],
      "stateMutability": "view",
      "type": "function"
    },
    {
      "inputs": [
        {
          "internalType": "bytes32",
          "name": "assetAssertionId",
          "type": "bytes32"
        }
      ],
      "name": "assertionExists",
      "outputs": [
        {
          "internalType": "bool",
          "name": "",
          "type": "bool"
        }
      ],
      "stateMutability": "view",
      "type": "function"
    }
  ],
  "bytecode": "0x608034620003b2576001600160401b03601f601f1962001c92388190038381018316860185811187821017620003b757869282916040528339602095869181010312620003b257516001600160a01b03811690819003620003b25762000064620003cd565b94601386527f436f6e74656e74417373657453746f72616765000000000000000000000000008187015262000098620003cd565b926003845262444b4760e81b8285015282156200036d57600080546001600160a01b03191690931783558651868111620003595760019788548981811c911680156200034e575b858210146200033a57908188849311620002e7575b508490888311600114620002865786926200027a575b5050600019600383901b1c191690881b1787555b835195861162000266576002548781811c911680156200025b575b838210146200024757858111620001fe575b508194861160011462000196575050918394918493946200018a575b50501b916000199060031b1c1916176002555b6040516118a49081620003ee8239f35b01519250388062000167565b600283528183209493928692918316915b88838310620001e35750505010620001c9575b505050811b016002556200017a565b015160001960f88460031b161c19169055388080620001ba565b858701518855909601959485019487935090810190620001a7565b600284528284208680890160051c820192858a106200023d575b0160051c019088905b828110620002315750506200014b565b85815501889062000221565b9250819262000218565b634e487b7160e01b84526022600452602484fd5b90607f169062000139565b634e487b7160e01b83526041600452602483fd5b0151905038806200010a565b90848b94169184885286882092885b88828210620002d05750508411620002b6575b505050811b0187556200011e565b015160001960f88460031b161c19169055388080620002a8565b8385015186558e9790950194938401930162000295565b9091508986528486208880850160051c82019287861062000330575b918c91869594930160051c01915b82811062000321575050620000f4565b8881558594508c910162000311565b9250819262000303565b634e487b7160e01b86526022600452602486fd5b90607f1690620000df565b634e487b7160e01b84526041600452602484fd5b60405162461bcd60e51b815260048101839052601960248201527f48756220416464726573732063616e6e6f7420626520307830000000000000006044820152606490fd5b600080fd5b634e487b7160e01b600052604160045260246000fd5b60408051919082016001600160401b03811183821017620003b75760405256fe6080604081815260048036101561001557600080fd5b600092833560e01c90816301ffc9a71461101d5750806306fdde0314610f51578063081812fc14610f31578063095ea7b314610dc05780630bc29f0f14610d6057806312d540c514610d1e57806318d069bd14610cf357806323b872dd14610cc8578063365a86fc14610ca0578063367bcd9f14610c2057806340c10f1914610ad857806342842e0e14610a8857806342966c68146109db57806354fd4d50146109965780635a4038f5146109625780636352211e1461093157806369941ccc146108d25780636db60955146108a457806370a082311461081357806375e5231b146107e85780637eb79b531461072b57806395d89b4114610614578063a22cb46514610543578063b88d4fde146104b4578063c0516d8314610478578063c53a441314610446578063c87b56dd146103d6578063cede992f1461037a578063e985e9c51461032c578063eac8f5b814610283578063eaeb1695146101b85763fef57daf1461018357600080fd5b346101b45760203660031901126101b4576001826020946101ac93358152600886522001611706565b519051908152f35b8280fd5b50346101b45760603660031901126101b4576044356001600160a01b038116919081359083900361026d576101eb61179c565b835163fef57daf60e01b8152918201819052602082602481305afa908115610279578591610240575b61022292506024359061176f565b8352600960205281832080546001600160a01b031916909117905551f35b90506020823d8211610271575b8161025a602093836111a6565b8101031261026d57610222915190610214565b8480fd5b3d915061024d565b84513d87823e3d90fd5b5091903461032857602092836003193601126101b45760608483959493516102aa81611158565b8481520152358152600882528281209083516102c581611158565b60ff835416151581526102db6001809401611706565b93808201948552855194818652606086019251151582870152519580860152855180925280608086019601925b8281106103155785870386f35b8351875295810195928101928401610308565b5080fd5b50503461032857806003193601126103285760ff8160209361034c6110c9565b6103546110e4565b6001600160a01b0391821683526006875283832091168252855220549151911615158152f35b5091346103d35760203660031901126103d3578235815260086020526103a4600183832001611706565b80516000198101929083116103c0576020846101ac85856116dc565b634e487b7160e01b815260118552602490fd5b80fd5b50919034610328576020366003190112610328576104156104106104429435600052600360205260018060a01b0360406000205416151590565b6111e4565b8181516104218161118a565b5280519161042e8361118a565b825251918291602083526020830190611089565b0390f35b50346101b45760203660031901126101b45735825260096020908152918190205490516001600160a01b039091168152f35b5050346103285761049961048b3661113e565b9161049461179c565b61176f565b8252600960205280822080546001600160a01b031916905551f35b50346101b45760803660031901126101b4576104ce6110c9565b906104d76110e4565b916064359167ffffffffffffffff831161053f573660238401121561053f578201359285610504856111c8565b93610511875195866111a6565b8585523660248783010111610328578561053c966024602093018388013785010152604435916112f7565b51f35b8580fd5b50346101b457816003193601126101b45761055c6110c9565b6105646110fa565b6001600160a01b03909116913383146105d1575033845260066020528284208285526020526105a1818486209060ff801983541691151516179055565b825190151581527f17307eab39ab6107e8899845ad3d59bd9653f200f220920489ca2b5937696c3160203392a351f35b606490602085519162461bcd60e51b8352820152601960248201527f4552433732313a20617070726f766520746f2063616c6c6572000000000000006044820152fd5b5091346103d357806003193601126103d3578151918160025492600184811c91818616958615610721575b602096878510811461070e578899509688969785829a5291826000146106e757505060011461068b575b505050610442929161067c9103856111a6565b51928284938452830190611089565b9190869350600283527f405787fa12a823e0f2b7631cc41b3ba8828b3321ca811111fa75cd3aa3bb5ace5b8284106106cf575050508201018161067c610442610669565b8054848a0186015288955087949093019281016106b6565b60ff19168782015293151560051b8601909301935084925061067c91506104429050610669565b634e487b7160e01b835260228a52602483fd5b92607f169261063f565b50346101b457602090816003193601126107e457359061074961179c565b818452600881526001916107608385872001611706565b80519084875b8381106107b057505050508452600881528183852085815501908154918581558261079057858551f35b85528420908101905b8181106107a65780858551f35b8481558201610799565b6107c5816107be81866116dc565b518761176f565b89526009865287892080546001600160a01b0319169055869101610766565b8380fd5b5091346103d357816003193601126103d357506101ac60209261080e6024359135611757565b6116dc565b5091346103d35760203660031901126103d3576001600160a01b036108366110c9565b16801561084f5781526020928352819020549051908152f35b825162461bcd60e51b8152602081860152602960248201527f4552433732313a2061646472657373207a65726f206973206e6f7420612076616044820152683634b21037bbb732b960b91b6064820152608490fd5b5050346103285781600319360112610328576020906108c161179c565b600754906001820160075551908152f35b505034610328576020916109136108e83661113e565b855187810193845260208401929092526040830152909181606084015b03601f1981018352826111a6565b5190208152600983528190205490516001600160a01b039091168152f35b5091346103d35760203660031901126103d3575061095160209235611230565b90516001600160a01b039091168152f35b50346101b45760203660031901126101b45735825260096020908152918190205490516001600160a01b0390911615158152f35b5050346103285781600319360112610328578051610442916109b782611158565b60058252640312e302e360dc1b602083015251918291602083526020830190611089565b509190346103285760203660031901126103285782356109f961179c565b610a0281611230565b610a0b82611565565b6001600160a01b031680845260208590528284208054919391600019810191908211610a755755818452600360205280842080546001600160a01b0319169055519183907fddf252ad1be2c89b69c2b068fc378daa952ba7f163c4a11628f55a4df523b3ef8285a4f35b634e487b7160e01b865260118752602486fd5b5091903461032857610a9936611109565b908351926020840184811067ffffffffffffffff821117610ac5578561053c96979850528684526112f7565b634e487b7160e01b875260418852602487fd5b5090346101b457806003193601126101b457610af26110c9565b9060243591610aff61179c565b6001600160a01b0316928315610bde576000838152600360205260409020546001600160a01b0316610b9c578385528060205281852080549160018301809311610b89575055818452600360205280842080546001600160a01b031916841790555191837fddf252ad1be2c89b69c2b068fc378daa952ba7f163c4a11628f55a4df523b3ef8185a4f35b634e487b7160e01b875260119052602486fd5b6020606492519162461bcd60e51b8352820152601c60248201527f4552433732313a20746f6b656e20616c7265616479206d696e746564000000006044820152fd5b6020606492519162461bcd60e51b8352820152602060248201527f4552433732313a206d696e7420746f20746865207a65726f20616464726573736044820152fd5b50346101b457816003193601126101b457610c3961179c565b80358352600860205260018284200180549168010000000000000000831015610c8d5760018301808355831015610c7a575083526024359060208420015551f35b634e487b7160e01b855260329052602484fd5b634e487b7160e01b855260419052602484fd5b505034610328578160031936011261032857905490516001600160a01b039091168152602090f35b5050346103285761053c610cdb36611109565b91610cee610ce98433611392565b611294565b611400565b50346101b45760203660031901126101b4578160209360ff9235815260088552205416159051908152f35b50346101b457816003193601126101b45761053c90610d3b6110fa565b90610d4461179c565b35845260086020528284209060ff801983541691151516179055565b5090346101b457602091826003193601126107e45783610d81849235611757565b9083519383808695860192818752855180945286019401925b828110610da957505050500390f35b835185528695509381019392810192600101610d9a565b50346101b457816003193601126101b457610dd96110c9565b602435916001600160a01b03908180610df186611230565b16931692808414610ee457803314908115610ec5575b5015610e5c5750828552600560205283852080546001600160a01b03191683179055610e3283611230565b169251927f8c5be1e5ebec7d5bd14f71427d1e84f3dd0314c0f7b2291e5b200ac8c7c3b9258585a4f35b608490602086519162461bcd60e51b8352820152603e60248201527f4552433732313a20617070726f76652063616c6c6572206973206e6f7420746f60448201527f6b656e206f776e6572206e6f7220617070726f76656420666f7220616c6c00006064820152fd5b90508652600660205284862033875260205260ff858720541638610e07565b855162461bcd60e51b8152602081840152602160248201527f4552433732313a20617070726f76616c20746f2063757272656e74206f776e656044820152603960f91b6064820152608490fd5b5091346103d35760203660031901126103d3575061095160209235611256565b5091346103d357806003193601126103d3578151918160019283549384811c91818616958615611013575b602096878510811461070e578899509688969785829a5291826000146106e7575050600114610fb857505050610442929161067c9103856111a6565b91908693508083527fb10e2d527612073b26eecdfd717e6a320cf44b4afac2b0732d9fcbe2b7fa0cf65b828410610ffb575050508201018161067c610442610669565b8054848a018601528895508794909301928101610fe2565b92607f1692610f7c565b925050346101b45760203660031901126101b4573563ffffffff60e01b81168091036101b457602092506380ac58cd60e01b8114908115611078575b8115611067575b5015158152f35b6301ffc9a760e01b14905038611060565b635b5e139f60e01b81149150611059565b919082519283825260005b8481106110b5575050826000602080949584010152601f8019910116010190565b602081830181015184830182015201611094565b600435906001600160a01b03821682036110df57565b600080fd5b602435906001600160a01b03821682036110df57565b6024359081151582036110df57565b60609060031901126110df576001600160a01b039060043582811681036110df579160243590811681036110df579060443590565b60609060031901126110df57600435906024359060443590565b6040810190811067ffffffffffffffff82111761117457604052565b634e487b7160e01b600052604160045260246000fd5b6020810190811067ffffffffffffffff82111761117457604052565b90601f8019910116810190811067ffffffffffffffff82111761117457604052565b67ffffffffffffffff811161117457601f01601f191660200190565b156111eb57565b60405162461bcd60e51b815260206004820152601860248201527f4552433732313a20696e76616c696420746f6b656e20494400000000000000006044820152606490fd5b6000908152600360205260409020546001600160a01b03166112538115156111e4565b90565b600081815260036020526040902054611279906001600160a01b031615156111e4565b6000908152600560205260409020546001600160a01b031690565b1561129b57565b60405162461bcd60e51b815260206004820152602e60248201527f4552433732313a2063616c6c6572206973206e6f7420746f6b656e206f776e6560448201526d1c881b9bdc88185c1c1c9bdd995960921b6064820152608490fd5b9061131b93929161130b610ce98433611392565b611316838383611400565b6115bb565b1561132257565b60405162461bcd60e51b81528061133b6004820161133f565b0390fd5b60809060208152603260208201527f4552433732313a207472616e7366657220746f206e6f6e20455243373231526560408201527131b2b4bb32b91034b6b83632b6b2b73a32b960711b60608201520190565b906001600160a01b0380806113a684611230565b169316918383149384156113d9575b5083156113c3575b50505090565b6113cf91929350611256565b16143880806113bd565b909350600052600660205260406000208260005260205260ff6040600020541692386113b5565b61140983611230565b6001600160a01b039182169290821683900361151257169081156114c15761143083611565565b600081815260046020526040812080546000198101919082116114ad5755828152600460205260408120805490600182018092116114ad57558381526003602052604080822080546001600160a01b03191685179055517fddf252ad1be2c89b69c2b068fc378daa952ba7f163c4a11628f55a4df523b3ef9190a4565b634e487b7160e01b83526011600452602483fd5b60405162461bcd60e51b8152602060048201526024808201527f4552433732313a207472616e7366657220746f20746865207a65726f206164646044820152637265737360e01b6064820152608490fd5b60405162461bcd60e51b815260206004820152602560248201527f4552433732313a207472616e736665722066726f6d20696e636f72726563742060448201526437bbb732b960d91b6064820152608490fd5b600081815260056020526040812080546001600160a01b03191690556001600160a01b0361159283611230565b167f8c5be1e5ebec7d5bd14f71427d1e84f3dd0314c0f7b2291e5b200ac8c7c3b92582604051a4565b9293600093909291803b156116d1579484916116159660405180948193630a85bd0160e11b9788845233600485015260018060a01b0380921660248501526044840152608060648401528260209b8c976084830190611089565b0393165af1849181611691575b50611680575050503d600014611678573d61163c816111c8565b9061164a60405192836111a6565b81528091833d92013e5b805191826116755760405162461bcd60e51b81528061133b6004820161133f565b01fd5b506060611654565b6001600160e01b0319161492509050565b9091508581813d83116116ca575b6116a981836111a6565b8101031261026d57516001600160e01b03198116810361026d579038611622565b503d61169f565b505050915050600190565b80518210156116f05760209160051b010190565b634e487b7160e01b600052603260045260246000fd5b9060405191828154918282526020928383019160005283600020936000905b82821061173d5750505061173b925003836111a6565b565b855484526001958601958895509381019390910190611725565b60005260086020526112536001604060002001611706565b60408051602081019283529081019290925260608201929092526117968160808101610905565b51902090565b60008054604051631627905560e01b815233600482015260209290918390839060249082906001600160a01b03165afa918215611861578192611827575b5050156117e45750565b6064906040519062461bcd60e51b825280600483015260248201527f466e2063616e206f6e6c792062652063616c6c656420627920746865206875626044820152fd5b9091508281813d831161185a575b61183f81836111a6565b8101031261032857519081151582036103d3575038806117da565b503d611835565b50604051903d90823e3d90fdfea2646970667358221220c0bdde09697c9e083b029ce07752428b2b836b9e9c02b0bfc0e0ff1c7d12a50964736f6c63430008100033",
  "immutableReferences": {},
  "source": "// SPDX-License-Identifier: MIT\n\npragma solidity ^0.8.4;\n\nimport {AbstractAsset} from \"../../assets/AbstractAsset.sol\";\nimport {Hub} from \"../../Hub.sol\";\nimport {Named} from \"../../interface/Named.sol\";\nimport {ContentAssetStructs} from \"../../structs/assets/ContentAssetStructs.sol\";\nimport {ERC721} from \"@openzeppelin/contracts/token/ERC721/ERC721.sol\";\n\ncontract ContentAssetStorage is AbstractAsset, ERC721 {\n    string private constant _NAME = \"ContentAssetStorage\";\n    string private constant _VERSION = \"1.0.0\";\n\n    uint256 private _tokenId;\n\n    // tokenId => Asset\n    mapping(uint256 => ContentAssetStructs.Asset) internal assets;\n\n    // keccak256(tokenId + assertionId + assertionIdIndex) => issuer\n    mapping(bytes32 => address) public issuers;\n\n    // solhint-disable-next-line no-empty-blocks\n    constructor(address hubAddress) AbstractAsset(hubAddress) ERC721(\"ContentAssetStorage\", \"DKG\") {}\n\n    modifier onlyContracts() {\n        _checkHub();\n        _;\n    }\n\n    function name() public view override(Named, ERC721) returns (string memory) {\n        return ERC721.name();\n    }\n\n    function version() external pure override returns (string memory) {\n        return _VERSION;\n    }\n\n    function mint(address to, uint256 tokenId) external onlyContracts {\n        _mint(to, tokenId);\n    }\n\n    function burn(uint256 tokenId) external onlyContracts {\n        _burn(tokenId);\n    }\n\n    function generateTokenId() external onlyContracts returns (uint256) {\n        unchecked {\n            return _tokenId++;\n        }\n    }\n\n    function deleteAsset(uint256 tokenId) external onlyContracts {\n        bytes32[] memory assertionIds = assets[tokenId].assertionIds;\n        uint256 assertionIdsLength = assertionIds.length;\n\n        for (uint256 i; i < assertionIdsLength; ) {\n            delete issuers[_generateAssetAssertionId(tokenId, assertionIds[i], i)];\n            unchecked {\n                i++;\n            }\n        }\n\n        delete assets[tokenId];\n    }\n\n    function getAsset(uint256 tokenId) external view returns (ContentAssetStructs.Asset memory) {\n        return assets[tokenId];\n    }\n\n    function setMutability(uint256 tokenId, bool immutable_) external onlyContracts {\n        assets[tokenId].immutable_ = immutable_;\n    }\n\n    function isMutable(uint256 tokenId) external view returns (bool) {\n        return !assets[tokenId].immutable_;\n    }\n\n    function pushAssertionId(uint256 tokenId, bytes32 assertionId) external onlyContracts {\n        assets[tokenId].assertionIds.push(assertionId);\n    }\n\n    function getAssertionIds(uint256 tokenId) public view override returns (bytes32[] memory) {\n        return assets[tokenId].assertionIds;\n    }\n\n    function setAssertionIssuer(uint256 tokenId, bytes32 assertionId, address issuer) external onlyContracts {\n        issuers[_generateAssetAssertionId(tokenId, assertionId, this.getAssertionIdsLength(tokenId))] = issuer;\n    }\n\n    function deleteAssertionIssuer(uint256 tokenId, bytes32 assertionId, uint256 index) external onlyContracts {\n        delete issuers[_generateAssetAssertionId(tokenId, assertionId, index)];\n    }\n\n    function getAssertionIssuer(\n        uint256 tokenId,\n        bytes32 assertionId,\n        uint256 assertionIndex\n    ) external view returns (address) {\n        return issuers[keccak256(abi.encodePacked(tokenId, assertionId, assertionIndex))];\n    }\n\n    function assertionExists(bytes32 assetAssertionId) external view returns (bool) {\n        return issuers[assetAssertionId] != address(0);\n    }\n\n    function _generateAssetAssertionId(\n        uint256 tokenId,\n        bytes32 assertionId,\n        uint256 index\n    ) internal pure virtual returns (bytes32) {\n        return keccak256(abi.encodePacked(tokenId, assertionId, index));\n    }\n\n    function _checkHub() internal view virtual {\n        require(hub.isContract(msg.sender), \"Fn can only be called by the hub\");\n    }\n}\n",
  "sourcePath": "/Users/waving/Desktop/OriginTrail/dkg-evm-module/contracts/storage/assets/ContentAssetStorage.sol",
  "compiler": {
    "name": "solc",
    "version": "0.8.16+commit.07a7930e.Emscripten.clang"
  },
  "schemaVersion": "3.4.10",
  "updatedAt": "2022-12-14T11:55:11.664Z",
  "devdoc": {
    "kind": "dev",
    "methods": {
      "approve(address,uint256)": {
        "details": "See {IERC721-approve}."
      },
      "balanceOf(address)": {
        "details": "See {IERC721-balanceOf}."
      },
      "getApproved(uint256)": {
        "details": "See {IERC721-getApproved}."
      },
      "isApprovedForAll(address,address)": {
        "details": "See {IERC721-isApprovedForAll}."
      },
      "ownerOf(uint256)": {
        "details": "See {IERC721-ownerOf}."
      },
      "safeTransferFrom(address,address,uint256)": {
        "details": "See {IERC721-safeTransferFrom}."
      },
      "safeTransferFrom(address,address,uint256,bytes)": {
        "details": "See {IERC721-safeTransferFrom}."
      },
      "setApprovalForAll(address,bool)": {
        "details": "See {IERC721-setApprovalForAll}."
      },
      "supportsInterface(bytes4)": {
        "details": "See {IERC165-supportsInterface}."
      },
      "symbol()": {
        "details": "See {IERC721Metadata-symbol}."
      },
      "tokenURI(uint256)": {
        "details": "See {IERC721Metadata-tokenURI}."
      },
      "transferFrom(address,address,uint256)": {
        "details": "See {IERC721-transferFrom}."
      }
    },
    "version": 1
  },
  "userdoc": {
    "kind": "user",
    "methods": {},
    "version": 1
  }
}