{
  "contractName": "ContentAsset",
  "abi": [
    {
      "inputs": [
        {
          "internalType": "address",
          "name": "hubAddress",
          "type": "address"
        }
      ],
      "stateMutability": "nonpayable",
      "type": "constructor"
    },
    {
      "anonymous": false,
      "inputs": [
        {
          "indexed": true,
          "internalType": "address",
          "name": "assetContract",
          "type": "address"
        },
        {
          "indexed": true,
          "internalType": "uint256",
          "name": "tokenId",
          "type": "uint256"
        },
        {
          "indexed": true,
          "internalType": "bytes32",
          "name": "stateCommitHash",
          "type": "bytes32"
        }
      ],
      "name": "AssetBurnt",
      "type": "event"
    },
    {
      "anonymous": false,
      "inputs": [
        {
          "indexed": true,
          "internalType": "address",
          "name": "assetContract",
          "type": "address"
        },
        {
          "indexed": true,
          "internalType": "uint256",
          "name": "tokenId",
          "type": "uint256"
        },
        {
          "indexed": true,
          "internalType": "bytes32",
          "name": "stateCommitHash",
          "type": "bytes32"
        }
      ],
      "name": "AssetMinted",
      "type": "event"
    },
    {
      "anonymous": false,
      "inputs": [
        {
          "indexed": true,
          "internalType": "address",
          "name": "assetContract",
          "type": "address"
        },
        {
          "indexed": true,
          "internalType": "uint256",
          "name": "tokenId",
          "type": "uint256"
        },
        {
          "indexed": false,
          "internalType": "uint96",
          "name": "tokenAmount",
          "type": "uint96"
        }
      ],
      "name": "AssetPaymentIncreased",
      "type": "event"
    },
    {
      "anonymous": false,
      "inputs": [
        {
          "indexed": true,
          "internalType": "address",
          "name": "assetContract",
          "type": "address"
        },
        {
          "indexed": true,
          "internalType": "uint256",
          "name": "tokenId",
          "type": "uint256"
        },
        {
          "indexed": true,
          "internalType": "bytes32",
          "name": "stateCommitHash",
          "type": "bytes32"
        }
      ],
      "name": "AssetStateUpdated",
      "type": "event"
    },
    {
      "anonymous": false,
      "inputs": [
        {
          "indexed": true,
          "internalType": "address",
          "name": "assetContract",
          "type": "address"
        },
        {
          "indexed": true,
          "internalType": "uint256",
          "name": "tokenId",
          "type": "uint256"
        },
        {
          "indexed": false,
          "internalType": "uint16",
          "name": "epochsNumber",
          "type": "uint16"
        },
        {
          "indexed": false,
          "internalType": "uint96",
          "name": "tokenAmount",
          "type": "uint96"
        }
      ],
      "name": "AssetStoringPeriondExtended",
      "type": "event"
    },
    {
      "inputs": [],
      "name": "assertionContract",
      "outputs": [
        {
          "internalType": "contract Assertion",
          "name": "",
          "type": "address"
        }
      ],
      "stateMutability": "view",
      "type": "function"
    },
    {
      "inputs": [],
      "name": "contentAssetStorage",
      "outputs": [
        {
          "internalType": "contract ContentAssetStorage",
          "name": "",
          "type": "address"
        }
      ],
      "stateMutability": "view",
      "type": "function"
    },
    {
      "inputs": [],
      "name": "hub",
      "outputs": [
        {
          "internalType": "contract Hub",
          "name": "",
          "type": "address"
        }
      ],
      "stateMutability": "view",
      "type": "function"
    },
    {
      "inputs": [],
      "name": "serviceAgreementV1",
      "outputs": [
        {
          "internalType": "contract ServiceAgreementV1",
          "name": "",
          "type": "address"
        }
      ],
      "stateMutability": "view",
      "type": "function"
    },
    {
      "inputs": [],
      "name": "initialize",
      "outputs": [],
      "stateMutability": "nonpayable",
      "type": "function"
    },
    {
      "inputs": [],
      "name": "name",
      "outputs": [
        {
          "internalType": "string",
          "name": "",
          "type": "string"
        }
      ],
      "stateMutability": "pure",
      "type": "function"
    },
    {
      "inputs": [],
      "name": "version",
      "outputs": [
        {
          "internalType": "string",
          "name": "",
          "type": "string"
        }
      ],
      "stateMutability": "pure",
      "type": "function"
    },
    {
      "inputs": [
        {
          "components": [
            {
              "internalType": "bytes32",
              "name": "assertionId",
              "type": "bytes32"
            },
            {
              "internalType": "uint128",
              "name": "size",
              "type": "uint128"
            },
            {
              "internalType": "uint32",
              "name": "triplesNumber",
              "type": "uint32"
            },
            {
              "internalType": "uint96",
              "name": "chunksNumber",
              "type": "uint96"
            },
            {
              "internalType": "uint16",
              "name": "epochsNumber",
              "type": "uint16"
            },
            {
              "internalType": "uint96",
              "name": "tokenAmount",
              "type": "uint96"
            },
            {
              "internalType": "uint8",
              "name": "scoreFunctionId",
              "type": "uint8"
            },
            {
              "internalType": "bool",
              "name": "immutable_",
              "type": "bool"
            }
          ],
          "internalType": "struct ContentAssetStructs.AssetInputArgs",
          "name": "args",
          "type": "tuple"
        }
      ],
      "name": "createAsset",
      "outputs": [],
      "stateMutability": "nonpayable",
      "type": "function"
    },
    {
      "inputs": [
        {
          "internalType": "bytes32",
          "name": "assertionId",
          "type": "bytes32"
        },
        {
          "internalType": "uint128",
          "name": "size",
          "type": "uint128"
        },
        {
          "internalType": "uint32",
          "name": "triplesNumber",
          "type": "uint32"
        },
        {
          "internalType": "uint96",
          "name": "chunksNumber",
          "type": "uint96"
        },
        {
          "internalType": "uint16",
          "name": "epochsNumber",
          "type": "uint16"
        },
        {
          "internalType": "uint96",
          "name": "tokenAmount",
          "type": "uint96"
        },
        {
          "internalType": "uint8",
          "name": "scoreFunctionId",
          "type": "uint8"
        },
        {
          "internalType": "bool",
          "name": "immutable_",
          "type": "bool"
        }
      ],
      "name": "createAssetWithVariables",
      "outputs": [],
      "stateMutability": "nonpayable",
      "type": "function"
    }
  ],
  "bytecode": "0x608060409080825234620002e85762000d7d8038038091620000228285620002ed565b83396001600160a01b039182916200003e919081019062000327565b16908115620002a457600080546001600160a01b0319908116841782558451638da5cb5b60e01b81529093906020908181600481865afa9081156200029a57908591859162000278575b5016330362000236578551630110ceef60e21b80825260048201839052600960248301526820b9b9b2b93a34b7b760b91b6044830152908281606481875afa9081156200020a57908691869162000214575b50168660015416176001558651633222517f60e11b8152826004820152601360248201527f436f6e74656e74417373657453746f726167650000000000000000000000000060448201528281606481875afa9081156200020a5783929187918791620001e8575b50168760025416176002556064885180958193825284600483015260126024830152715365727669636541677265656d656e74563160701b60448301525afa928315620001dd5792620001a9575b50501690600354161760035551610a349081620003498239f35b620001cd9250803d10620001d5575b620001c48183620002ed565b81019062000327565b38806200018f565b503d620001b8565b8651903d90823e3d90fd5b620002039150843d8611620001d557620001c48183620002ed565b3862000141565b88513d87823e3d90fd5b6200022f9150843d8611620001d557620001c48183620002ed565b38620000da565b60649086519062461bcd60e51b825280600483015260248201527f466e2063616e206f6e6c79206265207573656420627920687562206f776e65726044820152fd5b620002939150833d8511620001d557620001c48183620002ed565b3862000088565b87513d86823e3d90fd5b825162461bcd60e51b815260206004820152601960248201527f48756220416464726573732063616e6e6f7420626520307830000000000000006044820152606490fd5b600080fd5b601f909101601f19168101906001600160401b038211908210176200031157604052565b634e487b7160e01b600052604160045260246000fd5b90816020910312620002e857516001600160a01b0381168103620002e8579056fe608060408181526004918236101561001657600080fd5b600092833560e01c91826306fdde03146104635750816322729ad014610323578163365a86fc1461043b5781634b4aeac71461041257816354fd4d50146103c95781637b5561fd146103235781638129fc1c146100db57508063bd1346ae146100b35763c6a2eeca1461008857600080fd5b346100af57816003193601126100af5760035490516001600160a01b039091168152602090f35b5080fd5b50346100af57816003193601126100af5760025490516001600160a01b039091168152602090f35b90503461031f578260031936011261031f5782548251638da5cb5b60e01b81526001600160a01b03916020919083169082818681855afa801561031557849188916102f8575b501633036102b7578451630110ceef60e21b808252858201849052600960248301526820b9b9b2b93a34b7b760b91b604483015290948386606481865afa9586156102ad57889661028e575b50846001600160601b0360a01b9616866001541617600155865191633222517f60e11b835284828401526013602484015272436f6e74656e74417373657453746f7261676560681b60448401528483606481875afa9081156102845785948760649387968d91610267575b501689600254161760025589519586948593845283015260126024830152715365727669636541677265656d656e74563160701b60448301525afa91821561025d578692610230575b50501690600354161760035551f35b61024f9250803d10610256575b6102478183610531565b810190610553565b3880610221565b503d61023d565b85513d88823e3d90fd5b61027e9150873d8911610256576102478183610531565b386101d8565b88513d8b823e3d90fd5b6102a6919650843d8611610256576102478183610531565b943861016d565b87513d8a823e3d90fd5b606484838088519262461bcd60e51b845283015260248201527f466e2063616e206f6e6c79206265207573656420627920687562206f776e65726044820152fd5b61030f9150843d8611610256576102478183610531565b38610121565b86513d89823e3d90fd5b8280fd5b90503461031f5761010036600319011261031f576024356001600160801b03811681036103c55760443563ffffffff811681036103c1576001600160601b0360643581811681036103bd576084359061ffff821682036103b95760a43592831683036103b95760c4359360ff851685036103b55760e4359586151587036103b1576103ae9735610577565b51f35b8980fd5b8880fd5b8780fd5b8680fd5b8480fd5b8380fd5b5050346100af57816003193601126100af57805161040e916103ea82610515565b60058252640312e302e360dc1b6020830152519182916020835260208301906104ab565b0390f35b5050346100af57816003193601126100af5760015490516001600160a01b039091168152602090f35b5050346100af57816003193601126100af57905490516001600160a01b039091168152602090f35b8490843461031f578260031936011261031f5761040e925061048482610515565b600c82526b10dbdb9d195b9d105cdcd95d60a21b6020830152519182916020835260208301905b919082519283825260005b8481106104d7575050826000602080949584010152601f8019910116010190565b6020818301810151848301820152016104b6565b67ffffffffffffffff81116104ff57604052565b634e487b7160e01b600052604160045260246000fd5b6040810190811067ffffffffffffffff8211176104ff57604052565b90601f8019910116810190811067ffffffffffffffff8211176104ff57604052565b9081602091031261057257516001600160a01b03811681036105725790565b600080fd5b600254604051636db6095560e01b81529198919760009796909590949193919060208a6004818c6001600160a01b038a165af1998a156109f357899a6109bf575b506001600160a01b0385163b156103b5576040516340c10f1960e01b8152336004820152602481018b90528981604481836001600160a01b038b165af180156109b4576109a1575b506001546001600160a01b031691823b156103b1578b8a80946001600160601b036001600160801b03979563ffffffff6084966040519a8b998a98635c1c1c7960e11b8a5260048a01521660248801521660448601521660648401525af180156109825790879161098d575b50506001600160a01b0382163b1561096a5760405163eaeb169560e01b815260048101889052602481018990523360448201528681606481836001600160a01b0388165af180156109825790879161096e575b50506001600160a01b0382163b1561096a576040516312d540c560e01b81526004810188905290151560248201528581604481836001600160a01b0387165af1801561095f5790869161094b575b50506001600160a01b0381163b156103c15760405163367bcd9f60e01b815260048101879052602481018890529085908290604490829084906001600160a01b03165af180156109405790859161092c575b505060018060a01b03600354169160025491604051946001600160601b03198460601b1660208701528860348701526034865267ffffffffffffffff866060810110816060890111176104ff576060870161016088011090610160880111176104ff5761ffff6001600160601b039260ff9561016089016040523360608a015260018060a01b031660808901528960a08901528760c0810152600160e0890152166101008701521661012085015216610140830152803b1561031f576040516370ab967360e11b81526020600482015260608301516001600160a01b039081166024830152608084015116604482015260a0830151606482015260c08301516101006084830152909284928492909183918591839160ff906101409061088a906101248601906104ab565b928260e08201511660a486015261ffff6101008201511660c48601526001600160601b036101208201511660e486015201511661010483015203925af180156109215790829161090a575b50507f60e45db7c8cb9f55f92f3de18053b0b426eb919a763a1daca0ea9ad20961e87860018060a01b036002541691604051a4565b610913906104eb565b61091e5780386108d5565b80fd5b6040513d84823e3d90fd5b610935906104eb565b6103c557833861075f565b6040513d87823e3d90fd5b610954906104eb565b6103c157843861070d565b6040513d88823e3d90fd5b8580fd5b610977906104eb565b61096a5785386106bf565b6040513d89823e3d90fd5b610996906104eb565b61096a57853861066c565b6109ad909991996104eb565b9738610600565b6040513d8c823e3d90fd5b9099506020813d6020116109eb575b816109db60209383610531565b810103126103b5575198386105b8565b3d91506109ce565b6040513d8b823e3d90fdfea2646970667358221220237fc5c0dc3ef04165ede7caae476a2b5f90b9a5e249f8e9b7e20adf04a6ab6464736f6c63430008100033",
  "immutableReferences": {},
  "source": "// SPDX-License-Identifier: MIT\n\npragma solidity ^0.8.4;\n\nimport {Assertion} from \"../Assertion.sol\";\nimport {Hub} from \"../Hub.sol\";\nimport {ServiceAgreementV1} from \"../ServiceAgreementV1.sol\";\nimport {Named} from \"../interface/Named.sol\";\nimport {Versioned} from \"../interface/Versioned.sol\";\nimport {ContentAssetStorage} from \"../storage/assets/ContentAssetStorage.sol\";\nimport {ContentAssetStructs} from \"../structs/assets/ContentAssetStructs.sol\";\nimport {ServiceAgreementStructsV1} from \"../structs/ServiceAgreementStructsV1.sol\";\n\ncontract ContentAsset is Named, Versioned {\n    event AssetMinted(address indexed assetContract, uint256 indexed tokenId, bytes32 indexed stateCommitHash);\n    event AssetBurnt(address indexed assetContract, uint256 indexed tokenId, bytes32 indexed stateCommitHash);\n    event AssetStateUpdated(address indexed assetContract, uint256 indexed tokenId, bytes32 indexed stateCommitHash);\n    event AssetStoringPeriondExtended(\n        address indexed assetContract,\n        uint256 indexed tokenId,\n        uint16 epochsNumber,\n        uint96 tokenAmount\n    );\n    event AssetPaymentIncreased(address indexed assetContract, uint256 indexed tokenId, uint96 tokenAmount);\n\n    string private constant _NAME = \"ContentAsset\";\n    string private constant _VERSION = \"1.0.0\";\n\n    Hub public hub;\n    Assertion public assertionContract;\n    ContentAssetStorage public contentAssetStorage;\n    ServiceAgreementV1 public serviceAgreementV1;\n\n    constructor(address hubAddress) {\n        require(hubAddress != address(0), \"Hub Address cannot be 0x0\");\n\n        hub = Hub(hubAddress);\n        initialize();\n    }\n\n    function initialize() public onlyHubOwner {\n        assertionContract = Assertion(hub.getContractAddress(\"Assertion\"));\n        contentAssetStorage = ContentAssetStorage(hub.getAssetStorageAddress(\"ContentAssetStorage\"));\n        serviceAgreementV1 = ServiceAgreementV1(hub.getContractAddress(\"ServiceAgreementV1\"));\n    }\n\n    modifier onlyHubOwner() {\n        _checkHubOwner();\n        _;\n    }\n\n    modifier onlyAssetOwner(uint256 tokenId) {\n        _checkAssetOwner(tokenId);\n        _;\n    }\n\n    modifier onlyMutable(uint256 tokenId) {\n        _checkMutability(tokenId);\n        _;\n    }\n\n    function name() external pure override returns (string memory) {\n        return _NAME;\n    }\n\n    function version() external pure override returns (string memory) {\n        return _VERSION;\n    }\n\n    function createAsset(ContentAssetStructs.AssetInputArgs calldata args) external {\n        _createAsset(\n            args.assertionId,\n            args.size,\n            args.triplesNumber,\n            args.chunksNumber,\n            args.epochsNumber,\n            args.tokenAmount,\n            args.scoreFunctionId,\n            args.immutable_\n        );\n    }\n\n    function createAssetWithVariables(\n        bytes32 assertionId,\n        uint128 size,\n        uint32 triplesNumber,\n        uint96 chunksNumber,\n        uint16 epochsNumber,\n        uint96 tokenAmount,\n        uint8 scoreFunctionId,\n        bool immutable_\n    ) external {\n        _createAsset(\n            assertionId,\n            size,\n            triplesNumber,\n            chunksNumber,\n            epochsNumber,\n            tokenAmount,\n            scoreFunctionId,\n            immutable_\n        );\n    }\n\n    // function burnAsset(uint256 tokenId) external onlyAssetOwner(tokenId) {\n    //     ContentAssetStorage cas = contentAssetStorage;\n    //     address contentAssetStorageAddress = address(cas);\n\n    //     bytes32 originalAssertionId = cas.getAssertionIdByIndex(tokenId, 0);\n\n    //     cas.deleteAsset(tokenId);\n    //     cas.burn(tokenId);\n    //     serviceAgreementV1.terminateAgreement(\n    //         msg.sender,\n    //         contentAssetStorageAddress,\n    //         tokenId,\n    //         abi.encodePacked(contentAssetStorageAddress, originalAssertionId),\n    //         1\n    //     );\n\n    //     emit AssetBurnt(contentAssetStorageAddress, tokenId, originalAssertionId);\n    // }\n\n    // function updateAssetState(\n    //     uint256 tokenId,\n    //     bytes32 assertionId,\n    //     uint128 size,\n    //     uint32 triplesNumber,\n    //     uint96 chunksNumber,\n    //     uint96 tokenAmount\n    // ) external onlyAssetOwner(tokenId) onlyMutable(tokenId) {\n    //     ContentAssetStorage cas = contentAssetStorage;\n\n    //     assertionContract.createAssertion(assertionId, size, triplesNumber, chunksNumber);\n    //     cas.setAssertionIssuer(tokenId, assertionId, msg.sender);\n    //     cas.pushAssertionId(tokenId, assertionId);\n\n    //     ServiceAgreementV1 sasV1 = serviceAgreementV1;\n    //     address contentAssetStorageAddress = address(contentAssetStorage);\n\n    //     sasV1.addTokens(\n    //         msg.sender,\n    //         contentAssetStorageAddress,\n    //         tokenId,\n    //         abi.encodePacked(contentAssetStorageAddress, contentAssetStorage.getAssertionIdByIndex(tokenId, 0)),\n    //         1,\n    //         tokenAmount\n    //     );\n\n    //     emit AssetStateUpdated(contentAssetStorageAddress, tokenId, assertionId);\n    // }\n\n    // function updateAssetStoringPeriod(\n    //     uint256 tokenId,\n    //     uint16 epochsNumber,\n    //     uint96 tokenAmount\n    // ) external onlyAssetOwner(tokenId) {\n    //     ServiceAgreementV1 sasV1 = serviceAgreementV1;\n    //     address contentAssetStorageAddress = address(contentAssetStorage);\n\n    //     sasV1.extendStoringPeriod(\n    //         msg.sender,\n    //         contentAssetStorageAddress,\n    //         tokenId,\n    //         abi.encodePacked(contentAssetStorageAddress, contentAssetStorage.getAssertionIdByIndex(tokenId, 0)),\n    //         1,\n    //         epochsNumber,\n    //         tokenAmount\n    //     );\n\n    //     emit AssetStoringPeriondExtended(contentAssetStorageAddress, tokenId, epochsNumber, tokenAmount);\n    // }\n\n    // function updateAssetTokenAmount(uint256 tokenId, uint96 tokenAmount) external onlyAssetOwner(tokenId) {\n    //     ServiceAgreementV1 sasV1 = serviceAgreementV1;\n    //     address contentAssetStorageAddress = address(contentAssetStorage);\n\n    //     sasV1.addTokens(\n    //         msg.sender,\n    //         contentAssetStorageAddress,\n    //         tokenId,\n    //         abi.encodePacked(contentAssetStorageAddress, contentAssetStorage.getAssertionIdByIndex(tokenId, 0)),\n    //         1,\n    //         tokenAmount\n    //     );\n\n    //     emit AssetPaymentIncreased(contentAssetStorageAddress, tokenId, tokenAmount);\n    // }\n\n    function _createAsset(\n        bytes32 assertionId,\n        uint128 size,\n        uint32 triplesNumber,\n        uint96 chunksNumber,\n        uint16 epochsNumber,\n        uint96 tokenAmount,\n        uint8 scoreFunctionId,\n        bool immutable_\n    ) internal virtual {\n        ContentAssetStorage cas = contentAssetStorage;\n\n        uint256 tokenId = cas.generateTokenId();\n        cas.mint(msg.sender, tokenId);\n\n        assertionContract.createAssertion(assertionId, size, triplesNumber, chunksNumber);\n        cas.setAssertionIssuer(tokenId, assertionId, msg.sender);\n        cas.setMutability(tokenId, immutable_);\n        cas.pushAssertionId(tokenId, assertionId);\n\n        serviceAgreementV1.createServiceAgreement(\n            ServiceAgreementStructsV1.ServiceAgreementInputArgs({\n                assetCreator: msg.sender,\n                assetContract: address(contentAssetStorage),\n                tokenId: tokenId,\n                keyword: abi.encodePacked(address(contentAssetStorage), assertionId),\n                hashFunctionId: 1, // hashFunctionId | 1 = sha256\n                epochsNumber: epochsNumber,\n                tokenAmount: tokenAmount,\n                scoreFunctionId: scoreFunctionId\n            })\n        );\n\n        emit AssetMinted(address(contentAssetStorage), tokenId, assertionId);\n    }\n\n    function _checkHubOwner() internal view virtual {\n        require(msg.sender == hub.owner(), \"Fn can only be used by hub owner\");\n    }\n\n    function _checkAssetOwner(uint256 tokenId) internal view virtual {\n        require(msg.sender == contentAssetStorage.ownerOf(tokenId), \"Only asset owner can use this fn\");\n    }\n\n    function _checkMutability(uint256 tokenId) internal view virtual {\n        require(contentAssetStorage.isMutable(tokenId), \"Asset is immutable\");\n    }\n}\n",
  "sourcePath": "/Users/waving/Desktop/OriginTrail/dkg-evm-module/contracts/assets/ContentAsset.sol",
  "compiler": {
    "name": "solc",
    "version": "0.8.16+commit.07a7930e.Emscripten.clang"
  },
  "schemaVersion": "3.4.10",
  "updatedAt": "2022-12-14T11:57:23.873Z",
  "devdoc": {
    "kind": "dev",
    "methods": {},
    "version": 1
  },
  "userdoc": {
    "kind": "user",
    "methods": {},
    "version": 1
  }
}