{
  "contractName": "HashingProxy",
  "abi": [
    {
      "inputs": [
        {
          "internalType": "address",
          "name": "hubAddress",
          "type": "address"
        }
      ],
      "stateMutability": "nonpayable",
      "type": "constructor"
    },
    {
      "anonymous": false,
      "inputs": [
        {
          "indexed": true,
          "internalType": "uint8",
          "name": "hashFunctionId",
          "type": "uint8"
        },
        {
          "indexed": false,
          "internalType": "address",
          "name": "newContractAddress",
          "type": "address"
        }
      ],
      "name": "HashFunctionContractChanged",
      "type": "event"
    },
    {
      "anonymous": false,
      "inputs": [
        {
          "indexed": true,
          "internalType": "uint8",
          "name": "hashFunctionId",
          "type": "uint8"
        },
        {
          "indexed": false,
          "internalType": "address",
          "name": "newContractAddress",
          "type": "address"
        }
      ],
      "name": "NewHashFunctionContract",
      "type": "event"
    },
    {
      "inputs": [],
      "name": "hub",
      "outputs": [
        {
          "internalType": "contract Hub",
          "name": "",
          "type": "address"
        }
      ],
      "stateMutability": "view",
      "type": "function"
    },
    {
      "inputs": [],
      "name": "name",
      "outputs": [
        {
          "internalType": "string",
          "name": "",
          "type": "string"
        }
      ],
      "stateMutability": "pure",
      "type": "function"
    },
    {
      "inputs": [],
      "name": "version",
      "outputs": [
        {
          "internalType": "string",
          "name": "",
          "type": "string"
        }
      ],
      "stateMutability": "pure",
      "type": "function"
    },
    {
      "inputs": [
        {
          "internalType": "uint8",
          "name": "hashFunctionId",
          "type": "uint8"
        },
        {
          "internalType": "address",
          "name": "hashingContractAddress",
          "type": "address"
        }
      ],
      "name": "setContractAddress",
      "outputs": [],
      "stateMutability": "nonpayable",
      "type": "function"
    },
    {
      "inputs": [
        {
          "internalType": "uint8",
          "name": "hashFunctionId",
          "type": "uint8"
        }
      ],
      "name": "removeContract",
      "outputs": [],
      "stateMutability": "nonpayable",
      "type": "function"
    },
    {
      "inputs": [
        {
          "internalType": "uint8",
          "name": "hashFunctionId",
          "type": "uint8"
        },
        {
          "internalType": "bytes",
          "name": "data",
          "type": "bytes"
        }
      ],
      "name": "callHashFunction",
      "outputs": [
        {
          "internalType": "bytes32",
          "name": "",
          "type": "bytes32"
        }
      ],
      "stateMutability": "view",
      "type": "function"
    },
    {
      "inputs": [
        {
          "internalType": "uint8",
          "name": "hashFunctionId",
          "type": "uint8"
        }
      ],
      "name": "getHashFunctionName",
      "outputs": [
        {
          "internalType": "string",
          "name": "",
          "type": "string"
        }
      ],
      "stateMutability": "view",
      "type": "function"
    },
    {
      "inputs": [
        {
          "internalType": "uint8",
          "name": "hashFunctionId",
          "type": "uint8"
        }
      ],
      "name": "getHashFunctionContractAddress",
      "outputs": [
        {
          "internalType": "address",
          "name": "",
          "type": "address"
        }
      ],
      "stateMutability": "view",
      "type": "function"
    },
    {
      "inputs": [],
      "name": "getAllHashFunctions",
      "outputs": [
        {
          "components": [
            {
              "internalType": "uint8",
              "name": "id",
              "type": "uint8"
            },
            {
              "internalType": "address",
              "name": "addr",
              "type": "address"
            }
          ],
          "internalType": "struct UnorderedIndexableContractDynamicSetLib.Contract[]",
          "name": "",
          "type": "tuple[]"
        }
      ],
      "stateMutability": "view",
      "type": "function"
    },
    {
      "inputs": [
        {
          "internalType": "uint8",
          "name": "hashFunctionId",
          "type": "uint8"
        }
      ],
      "name": "isHashFunction",
      "outputs": [
        {
          "internalType": "bool",
          "name": "",
          "type": "bool"
        }
      ],
      "stateMutability": "view",
      "type": "function"
    }
  ],
  "bytecode": "0x6080346100bf57601f610d9138819003918201601f19168301916001600160401b038311848410176100c4578084926020946040528339810103126100bf57516001600160a01b038116908190036100bf57801561007a57600080546001600160a01b031916919091179055604051610cb690816100db8239f35b60405162461bcd60e51b815260206004820152601960248201527f48756220416464726573732063616e6e6f7420626520307830000000000000006044820152606490fd5b600080fd5b634e487b7160e01b600052604160045260246000fdfe608060408181526004918236101561001657600080fd5b600092833560e01c91826306fdde031461085257508163365a86fc1461082a57816344a7c8d3146107fb57816345ed59e5146106fc57816354fd4d50146106bf578163802f2368146105cc5781638b6602d81461043b578163b58abd4614610331578163c413e5be146100ce575063f75a30a91461009357600080fd5b346100ca5760203660031901126100ca576020906001600160a01b03826100c06100bb6108e5565b610bb3565b0151169051908152f35b5080fd5b90503461032d578160031936011261032d576100e86108e5565b906024356001600160a01b038116918282036103295761010661094e565b61010f84610bf4565b156101ad575060ff82936101a260209361014b7f87344d3e74d17609f4e724277f74dda482a7dec50d0dc2e62d7c93101dd968bc961515610a1c565b61015c61015784610bf4565b610b19565b61017c6101768460ff166000526001602052604060002090565b54610a7c565b508054610100600160a81b03191660089290921b610100600160a81b0316919091179055565b85519485521692a251f35b905060ff83169283156102da576101c5831515610a1c565b6101ce81610bf4565b610271576101ef9060025491829160ff166000526001602052604060002090565b558451916101fc836108fa565b8483528360208401526801000000000000000082101561025e57509161025560209261024f8560017f9f9bb0dfe32a0f6d822a9eebfa9002f04cc064f036f9dabd0b95d694bffb52899701600255610a7c565b90610ac9565b8451908152a251f35b634e487b7160e01b875260419052602486fd5b845162461bcd60e51b8152602081840152603b60248201527f496e64657861626c65436f6e74726163745365743a20436f6e7472616374207760448201527f69746820676976656e20494420616c72656164792065786973747300000000006064820152608490fd5b845162461bcd60e51b8152602081840152602360248201527f496e64657861626c65436f6e74726163745365743a2049442063616e6f74206260448201526206520360ec1b6064820152608490fd5b8580fd5b8280fd5b905082346104385780600319360112610438576002549167ffffffffffffffff83116104255750919081519260209361036f858460051b018261092c565b8281526002825284810192827f405787fa12a823e0f2b7631cc41b3ba8828b3321ca811111fa75cd3aa3bb5ace855b8383106103fd5750505050835194859481860192828752518093528086019493905b8382106103cd5786860387f35b8451805160ff1687528301516001600160a01b0316868401528796509485019493820193600191909101906103c0565b6001898192610411859c99989a9b9c610b8b565b81520192019201919097969593949761039e565b634e487b7160e01b825260419052602490fd5b80fd5b90503461032d576020806003193601126105c8576104576108e5565b9061046061094e565b61046c61015783610bf4565b6104838260ff166000526001602052604060002090565b546002546000199391908481019081116105b557906104ad6104a789959493610a7c565b50610b8b565b83810151885163af640d0f60e01b815291949190829082908a9082906001600160a01b03165afa9182156105ab57869261056b575b50509261024f8261050d936105076105209760ff166000526001602052604060002090565b55610a7c565b60ff166000526001602052604060002090565b55600254801561055857019061053582610a7c565b919091610546575083905560025551f35b634e487b7160e01b8552849052602484fd5b634e487b7160e01b855260318352602485fd5b90809250813d83116105a4575b610582818361092c565b810103126105a057519260ff841684036105a0579261024f826104e2565b8480fd5b503d610578565b89513d88823e3d90fd5b634e487b7160e01b885260118652602488fd5b8380fd5b8383346100ca57602091826003193601126104385783816001600160a01b03856105f76100bb6108e5565b0151168451968780926306fdde0360e01b82525afa9384156106b557829461062b575b83518061062787826108b9565b0390f35b90919293503d8084873e61063f818761092c565b850192818685031261043857855167ffffffffffffffff9687821161032d57019284601f850112156100ca578351968711610425575084519361068b601f8801601f191684018661092c565b8685528287850101116104385750936106ac91856106279685019101610896565b9083808061061a565b83513d84823e3d90fd5b5050346100ca57816003193601126100ca578051610627916106e0826108fa565b60058252640312e302e360dc1b602083015251918291826108b9565b8383346100ca57806003193601126100ca576107166108e5565b6024359067ffffffffffffffff908183116105a057366023840112156105a057828601359182116105a05736602483850101116105a0579160449591602493602097889485928361076d60018060a01b0392610bb3565b015116938089519889978896879563550f426f60e11b87528601528282860152018484013781810183018a9052601f01601f191681010301915afa9283156107f05780936107be575b505051908152f35b909192508382813d83116107e9575b6107d7818361092c565b810103126104385750519083806107b6565b503d6107cd565b8251903d90823e3d90fd5b5050346100ca5760203660031901126100ca5760209061082161081c6108e5565b610bf4565b90519015158152f35b5050346100ca57816003193601126100ca57905490516001600160a01b039091168152602090f35b8490843461032d578260031936011261032d576106279250610873826108fa565b600c82526b48617368696e6750726f787960a01b602083015251918291826108b9565b60005b8381106108a95750506000910152565b8181015183820152602001610899565b604091602082526108d98151809281602086015260208686019101610896565b601f01601f1916010190565b6004359060ff821682036108f557565b600080fd5b6040810190811067ffffffffffffffff82111761091657604052565b634e487b7160e01b600052604160045260246000fd5b90601f8019910116810190811067ffffffffffffffff82111761091657604052565b60008054604051638da5cb5b60e01b81526020926001600160a01b039284908390600490829087165afa918215610a0f5781926109d5575b50501633036109925750565b6064906040519062461bcd60e51b825280600483015260248201527f466e2063616e206f6e6c79206265207573656420627920687562206f776e65726044820152fd5b9091508381813d8311610a08575b6109ed818361092c565b810103126100ca575190828216820361043857503880610986565b503d6109e3565b50604051903d90823e3d90fd5b15610a2357565b60405162461bcd60e51b815260206004820152602b60248201527f496e64657861626c65436f6e74726163745365743a204164647265737320636160448201526a06e6e6f74206265203078360ac1b6064820152608490fd5b600254811015610ab35760026000527f405787fa12a823e0f2b7631cc41b3ba8828b3321ca811111fa75cd3aa3bb5ace0190600090565b634e487b7160e01b600052603260045260246000fd5b90610b0357815181546020909301516001600160a81b031990931660ff919091161760089290921b610100600160a81b0316919091179055565b634e487b7160e01b600052600060045260246000fd5b15610b2057565b60405162461bcd60e51b815260206004820152603b60248201527f496e64657861626c65436f6e74726163745365743a20436f6e7472616374207760448201527f69746820676976656e20494420646f65736e27742065786973747300000000006064820152608490fd5b90604051610b98816108fa565b915460ff8116835260081c6001600160a01b03166020830152565b60ff9060006020604051610bc6816108fa565b8281520152610bd761015782610c25565b166000526001602052610bf16104a7604060002054610a7c565b90565b60025415610c1f5760ff1680600052600160205260ff610c18604060002054610a7c565b5054161490565b50600090565b600254908115610c795760ff169081600052600160205260406000205490811015610ab35760026000527f405787fa12a823e0f2b7631cc41b3ba8828b3321ca811111fa75cd3aa3bb5ace015460ff161490565b505060009056fea2646970667358221220d0624d1dbb0224b7842ff14b100b90f7b4f1caa546f7ede5c18358983636187a64736f6c63430008100033",
  "immutableReferences": {},
  "source": "// SPDX-License-Identifier: MIT\n\npragma solidity ^0.8.4;\n\nimport {Hub} from \"./Hub.sol\";\nimport {IHashFunction} from \"./interface/IHashFunction.sol\";\nimport {Named} from \"./interface/Named.sol\";\nimport {Versioned} from \"./interface/Versioned.sol\";\nimport {UnorderedIndexableContractDynamicSetLib} from \"./utils/UnorderedIndexableContractDynamicSet.sol\";\n\ncontract HashingProxy is Named, Versioned {\n    using UnorderedIndexableContractDynamicSetLib for UnorderedIndexableContractDynamicSetLib.Set;\n\n    event NewHashFunctionContract(uint8 indexed hashFunctionId, address newContractAddress);\n    event HashFunctionContractChanged(uint8 indexed hashFunctionId, address newContractAddress);\n\n    string private constant _NAME = \"HashingProxy\";\n    string private constant _VERSION = \"1.0.0\";\n\n    Hub public hub;\n\n    UnorderedIndexableContractDynamicSetLib.Set internal hashFunctionSet;\n\n    constructor(address hubAddress) {\n        require(hubAddress != address(0), \"Hub Address cannot be 0x0\");\n\n        hub = Hub(hubAddress);\n    }\n\n    modifier onlyHubOwner() {\n        _checkHubOwner();\n        _;\n    }\n\n    function name() external pure virtual override returns (string memory) {\n        return _NAME;\n    }\n\n    function version() external pure virtual override returns (string memory) {\n        return _VERSION;\n    }\n\n    function setContractAddress(uint8 hashFunctionId, address hashingContractAddress) external onlyHubOwner {\n        if (hashFunctionSet.exists(hashFunctionId)) {\n            hashFunctionSet.update(hashFunctionId, hashingContractAddress);\n            emit HashFunctionContractChanged(hashFunctionId, hashingContractAddress);\n        } else {\n            hashFunctionSet.append(hashFunctionId, hashingContractAddress);\n            emit NewHashFunctionContract(hashFunctionId, hashingContractAddress);\n        }\n    }\n\n    function removeContract(uint8 hashFunctionId) external onlyHubOwner {\n        hashFunctionSet.remove(hashFunctionId);\n    }\n\n    function callHashFunction(uint8 hashFunctionId, bytes calldata data) external view returns (bytes32) {\n        return IHashFunction(hashFunctionSet.get(hashFunctionId).addr).hash(data);\n    }\n\n    function getHashFunctionName(uint8 hashFunctionId) external view returns (string memory) {\n        return Named(hashFunctionSet.get(hashFunctionId).addr).name();\n    }\n\n    function getHashFunctionContractAddress(uint8 hashFunctionId) external view returns (address) {\n        return hashFunctionSet.get(hashFunctionId).addr;\n    }\n\n    function getAllHashFunctions() external view returns (UnorderedIndexableContractDynamicSetLib.Contract[] memory) {\n        return hashFunctionSet.getAll();\n    }\n\n    function isHashFunction(uint8 hashFunctionId) external view returns (bool) {\n        return hashFunctionSet.exists(hashFunctionId);\n    }\n\n    function _checkHubOwner() internal view virtual {\n        require(msg.sender == hub.owner(), \"Fn can only be used by hub owner\");\n    }\n}\n",
  "sourcePath": "/Users/waving/Desktop/OriginTrail/dkg-evm-module/contracts/HashingProxy.sol",
  "compiler": {
    "name": "solc",
    "version": "0.8.16+commit.07a7930e.Emscripten.clang"
  },
  "schemaVersion": "3.4.10",
  "updatedAt": "2022-12-14T11:55:11.597Z",
  "devdoc": {
    "kind": "dev",
    "methods": {},
    "version": 1
  },
  "userdoc": {
    "kind": "user",
    "methods": {},
    "version": 1
  }
}