{
  "contractName": "ParametersStorage",
  "abi": [
    {
      "inputs": [
        {
          "internalType": "address",
          "name": "hubAddress",
          "type": "address"
        }
      ],
      "stateMutability": "nonpayable",
      "type": "constructor"
    },
    {
      "inputs": [],
      "name": "commitWindowDurationPerc",
      "outputs": [
        {
          "internalType": "uint8",
          "name": "",
          "type": "uint8"
        }
      ],
      "stateMutability": "view",
      "type": "function"
    },
    {
      "inputs": [],
      "name": "epochLength",
      "outputs": [
        {
          "internalType": "uint128",
          "name": "",
          "type": "uint128"
        }
      ],
      "stateMutability": "view",
      "type": "function"
    },
    {
      "inputs": [],
      "name": "hub",
      "outputs": [
        {
          "internalType": "contract Hub",
          "name": "",
          "type": "address"
        }
      ],
      "stateMutability": "view",
      "type": "function"
    },
    {
      "inputs": [],
      "name": "maxProofWindowOffsetPerc",
      "outputs": [
        {
          "internalType": "uint8",
          "name": "",
          "type": "uint8"
        }
      ],
      "stateMutability": "view",
      "type": "function"
    },
    {
      "inputs": [],
      "name": "maximumStake",
      "outputs": [
        {
          "internalType": "uint96",
          "name": "",
          "type": "uint96"
        }
      ],
      "stateMutability": "view",
      "type": "function"
    },
    {
      "inputs": [],
      "name": "minProofWindowOffsetPerc",
      "outputs": [
        {
          "internalType": "uint8",
          "name": "",
          "type": "uint8"
        }
      ],
      "stateMutability": "view",
      "type": "function"
    },
    {
      "inputs": [],
      "name": "minimumStake",
      "outputs": [
        {
          "internalType": "uint96",
          "name": "",
          "type": "uint96"
        }
      ],
      "stateMutability": "view",
      "type": "function"
    },
    {
      "inputs": [],
      "name": "proofWindowDurationPerc",
      "outputs": [
        {
          "internalType": "uint8",
          "name": "",
          "type": "uint8"
        }
      ],
      "stateMutability": "view",
      "type": "function"
    },
    {
      "inputs": [],
      "name": "r0",
      "outputs": [
        {
          "internalType": "uint32",
          "name": "",
          "type": "uint32"
        }
      ],
      "stateMutability": "view",
      "type": "function"
    },
    {
      "inputs": [],
      "name": "r1",
      "outputs": [
        {
          "internalType": "uint32",
          "name": "",
          "type": "uint32"
        }
      ],
      "stateMutability": "view",
      "type": "function"
    },
    {
      "inputs": [],
      "name": "r2",
      "outputs": [
        {
          "internalType": "uint48",
          "name": "",
          "type": "uint48"
        }
      ],
      "stateMutability": "view",
      "type": "function"
    },
    {
      "inputs": [],
      "name": "replacementWindowDurationPerc",
      "outputs": [
        {
          "internalType": "uint8",
          "name": "",
          "type": "uint8"
        }
      ],
      "stateMutability": "view",
      "type": "function"
    },
    {
      "inputs": [],
      "name": "rewardWithdrawalDelay",
      "outputs": [
        {
          "internalType": "uint24",
          "name": "",
          "type": "uint24"
        }
      ],
      "stateMutability": "view",
      "type": "function"
    },
    {
      "inputs": [],
      "name": "slashingFreezeDuration",
      "outputs": [
        {
          "internalType": "uint32",
          "name": "",
          "type": "uint32"
        }
      ],
      "stateMutability": "view",
      "type": "function"
    },
    {
      "inputs": [],
      "name": "stakeWithdrawalDelay",
      "outputs": [
        {
          "internalType": "uint24",
          "name": "",
          "type": "uint24"
        }
      ],
      "stateMutability": "view",
      "type": "function"
    },
    {
      "inputs": [
        {
          "internalType": "uint96",
          "name": "newMinimumStake",
          "type": "uint96"
        }
      ],
      "name": "setMinimumStake",
      "outputs": [],
      "stateMutability": "nonpayable",
      "type": "function"
    },
    {
      "inputs": [
        {
          "internalType": "uint48",
          "name": "newR2",
          "type": "uint48"
        }
      ],
      "name": "setR2",
      "outputs": [],
      "stateMutability": "nonpayable",
      "type": "function"
    },
    {
      "inputs": [
        {
          "internalType": "uint32",
          "name": "newR1",
          "type": "uint32"
        }
      ],
      "name": "setR1",
      "outputs": [],
      "stateMutability": "nonpayable",
      "type": "function"
    },
    {
      "inputs": [
        {
          "internalType": "uint32",
          "name": "newR0",
          "type": "uint32"
        }
      ],
      "name": "setR0",
      "outputs": [],
      "stateMutability": "nonpayable",
      "type": "function"
    },
    {
      "inputs": [
        {
          "internalType": "uint8",
          "name": "newCommitWindowDurationPerc",
          "type": "uint8"
        }
      ],
      "name": "setCommitWindowDurationPerc",
      "outputs": [],
      "stateMutability": "nonpayable",
      "type": "function"
    },
    {
      "inputs": [
        {
          "internalType": "uint8",
          "name": "newMinProofWindowOffsetPerc",
          "type": "uint8"
        }
      ],
      "name": "setMinProofWindowOffsetPerc",
      "outputs": [],
      "stateMutability": "nonpayable",
      "type": "function"
    },
    {
      "inputs": [
        {
          "internalType": "uint8",
          "name": "newMaxProofWindowOffsetPerc",
          "type": "uint8"
        }
      ],
      "name": "setMaxProofWindowOffsetPerc",
      "outputs": [],
      "stateMutability": "nonpayable",
      "type": "function"
    },
    {
      "inputs": [
        {
          "internalType": "uint8",
          "name": "newProofWindowDurationPerc",
          "type": "uint8"
        }
      ],
      "name": "setProofWindowDurationPerc",
      "outputs": [],
      "stateMutability": "nonpayable",
      "type": "function"
    },
    {
      "inputs": [
        {
          "internalType": "uint8",
          "name": "newReplacementWindowDurationPerc",
          "type": "uint8"
        }
      ],
      "name": "setReplacementWindowDurationPerc",
      "outputs": [],
      "stateMutability": "nonpayable",
      "type": "function"
    },
    {
      "inputs": [
        {
          "internalType": "uint128",
          "name": "newEpochLength",
          "type": "uint128"
        }
      ],
      "name": "setEpochLength",
      "outputs": [],
      "stateMutability": "nonpayable",
      "type": "function"
    },
    {
      "inputs": [
        {
          "internalType": "uint24",
          "name": "newStakeWithdrawalDelay",
          "type": "uint24"
        }
      ],
      "name": "setStakeWithdrawalDelay",
      "outputs": [],
      "stateMutability": "nonpayable",
      "type": "function"
    },
    {
      "inputs": [
        {
          "internalType": "uint24",
          "name": "newRewardWithdrawalDelay",
          "type": "uint24"
        }
      ],
      "name": "setRewardWithdrawalDelay",
      "outputs": [],
      "stateMutability": "nonpayable",
      "type": "function"
    },
    {
      "inputs": [
        {
          "internalType": "uint32",
          "name": "newSlashingFreezeDuration",
          "type": "uint32"
        }
      ],
      "name": "setSlashingFreezeDuration",
      "outputs": [],
      "stateMutability": "nonpayable",
      "type": "function"
    }
  ],
  "bytecode": "0x60803461012e57601f6109ea38819003918201601f19168301916001600160401b038311848410176101335780849260209460405283398101031261012e57516001600160a01b0381169081900361012e5780156100e957662a5a058fc295ed60b61b17600055600180547fff00000000000000000000000000000000000000000000000000000000000000167d194b32190000000300000008000000000014000422ca8b0a00a425000000179055600280546001600160d01b0319167903c2670000012c00012c00000000000000000000000000000e101790556040516108a0908161014a8239f35b60405162461bcd60e51b815260206004820152601960248201527f48756220416464726573732063616e6e6f7420626520307830000000000000006044820152606490fd5b600080fd5b634e487b7160e01b600052604160045260246000fdfe608060408181526004918236101561001657600080fd5b600092833560e01c9182630bcbbd2114610746575081630d8d840b14610705578163108778f5146106e0578163151db1b9146106b9578163175b07f81461066a57816319bd84dc1461061b57816322a0d629146105d55781632b4be0db1461058f578163365a86fc146105675781633de3fdf41461053f57816353971157146104f357816357d775f8146104cb578163659621b5146104a35781636ca5b5b01461047b5781637ad65f2714610456578163862bc131146104105781638e626242146103eb578163998d95dc1461039c5781639d3ceb0c14610377578163b13a8c0714610325578163b5c6b453146102f8578163b7f854fc146102a3578163cd3e290c1461025d578163d1287dba14610211578163ec5ffac2146101f1578163f1b776f5146101ca578163fdf1afa214610180575063ff2117431461015957600080fd5b3461017c578160031936011261017c5760209060ff60015460e01c169051908152f35b5080fd5b9050346101c65760203660031901126101c6573560ff811681036101c6576101a661076d565b6001805460ff60f01b191660f09290921b60ff60f01b1691909117905551f35b8280fd5b50503461017c578160031936011261017c5760209062ffffff60025460981c169051908152f35b50503461017c578160031936011261017c576020915460a01c9051908152f35b9050346101c65760203660031901126101c6573562ffffff811681036101c65761023961076d565b6002805462ffffff60981b191660989290921b62ffffff60981b1691909117905551f35b9050346101c65760203660031901126101c6573560ff811681036101c65761028361076d565b6001805460ff60d81b191660d89290921b60ff60d81b1691909117905551f35b9050346101c65760203660031901126101c6573565ffffffffffff811681036101c6576102ce61076d565b6001805465ffffffffffff60601b191660609290921b65ffffffffffff60601b1691909117905551f35b50503461017c578160031936011261017c576020906bffffffffffffffffffffffff600154169051908152f35b9050346101c65760203660031901126101c657356bffffffffffffffffffffffff811681036101c65761035661076d565b82546001600160a01b031660a09190911b6001600160a01b03191617825551f35b50503461017c578160031936011261017c5760209060ff60015460e81c169051908152f35b9050346101c65760203660031901126101c6573563ffffffff811681036101c6576103c561076d565b6002805463ffffffff60b01b191660b09290921b63ffffffff60b01b1691909117905551f35b50503461017c578160031936011261017c5760209060ff60015460d81c169051908152f35b9050346101c65760203660031901126101c6573560ff811681036101c65761043661076d565b6001805460ff60e01b191660e09290921b60ff60e01b1691909117905551f35b50503461017c578160031936011261017c5760209060ff60015460d01c169051908152f35b50503461017c578160031936011261017c5760209063ffffffff60015460901c169051908152f35b50503461017c578160031936011261017c5760209063ffffffff60015460b01c169051908152f35b50503461017c578160031936011261017c576020906001600160801b03600254169051908152f35b9050346101c65760203660031901126101c6573562ffffff811681036101c65761051b61076d565b6002805462ffffff60801b191660809290921b62ffffff60801b1691909117905551f35b50503461017c578160031936011261017c5760209063ffffffff60025460b01c169051908152f35b50503461017c578160031936011261017c57905490516001600160a01b039091168152602090f35b9050346101c65760203660031901126101c6573560ff811681036101c6576105b561076d565b6001805460ff60d01b191660d09290921b60ff60d01b1691909117905551f35b9050346101c65760203660031901126101c6573560ff811681036101c6576105fb61076d565b6001805460ff60e81b191660e89290921b60ff60e81b1691909117905551f35b9050346101c65760203660031901126101c6573563ffffffff811681036101c65761064461076d565b6001805463ffffffff60901b191660909290921b63ffffffff60901b1691909117905551f35b9050346101c65760203660031901126101c6573563ffffffff811681036101c65761069361076d565b6001805463ffffffff60b01b191660b09290921b63ffffffff60b01b1691909117905551f35b50503461017c578160031936011261017c5760209062ffffff60025460801c169051908152f35b50503461017c578160031936011261017c5760209060ff60015460f01c169051908152f35b9050346101c65760203660031901126101c657356001600160801b0381168091036101c65761073261076d565b6001600160801b0319600254161760025551f35b84903461017c578160031936011261017c5760209065ffffffffffff60015460601c168152f35b60008054604051638da5cb5b60e01b81526020926001600160a01b039284908390600490829087165afa91821561085d5781926107f4575b50501633036107b15750565b6064906040519062461bcd60e51b825280600483015260248201527f466e2063616e206f6e6c79206265207573656420627920687562206f776e65726044820152fd5b909150833d8511610856575b601f8101601f1916820167ffffffffffffffff81118382101761084257859183916040528101031261017c575190828216820361083f575038806107a5565b80fd5b634e487b7160e01b84526041600452602484fd5b503d610800565b50604051903d90823e3d90fdfea264697066735822122002916292937844b5ad3b9a3fdc52104f1120fd5d0465ffaa8a18dac4d47b92d264736f6c63430008100033",
  "immutableReferences": {},
  "source": "// SPDX-License-Identifier: MIT\n\npragma solidity ^0.8.4;\n\nimport {Hub} from \"../Hub.sol\";\n\ncontract ParametersStorage {\n    Hub public hub;\n\n    uint96 public minimumStake;\n    uint96 public maximumStake;\n\n    uint48 public r2;\n    uint32 public r1;\n    uint32 public r0;\n\n    uint8 public commitWindowDurationPerc;\n    uint8 public minProofWindowOffsetPerc;\n    uint8 public maxProofWindowOffsetPerc;\n    uint8 public proofWindowDurationPerc;\n    uint8 public replacementWindowDurationPerc;\n\n    uint128 public epochLength;\n\n    uint24 public stakeWithdrawalDelay;\n    uint24 public rewardWithdrawalDelay;\n    uint32 public slashingFreezeDuration;\n\n    constructor(address hubAddress) {\n        require(hubAddress != address(0), \"Hub Address cannot be 0x0\");\n\n        hub = Hub(hubAddress);\n\n        minimumStake = 50_000 ether;\n        maximumStake = 5_000_000 ether;\n\n        r2 = 20;\n        r1 = 8;\n        r0 = 3;\n\n        commitWindowDurationPerc = 25;\n        minProofWindowOffsetPerc = 50;\n        maxProofWindowOffsetPerc = 75;\n        proofWindowDurationPerc = 25;\n        replacementWindowDurationPerc = 0;\n\n        epochLength = 1 hours;\n\n        stakeWithdrawalDelay = 5 minutes;\n        rewardWithdrawalDelay = 5 minutes;\n        slashingFreezeDuration = 730 days;\n    }\n\n    modifier onlyHubOwner() {\n        _checkHubOwner();\n        _;\n    }\n\n    function setMinimumStake(uint96 newMinimumStake) external onlyHubOwner {\n        minimumStake = newMinimumStake;\n    }\n\n    function setR2(uint48 newR2) external onlyHubOwner {\n        r2 = newR2;\n    }\n\n    function setR1(uint32 newR1) external onlyHubOwner {\n        r1 = newR1;\n    }\n\n    function setR0(uint32 newR0) external onlyHubOwner {\n        r0 = newR0;\n    }\n\n    function setCommitWindowDurationPerc(uint8 newCommitWindowDurationPerc) external onlyHubOwner {\n        commitWindowDurationPerc = newCommitWindowDurationPerc;\n    }\n\n    function setMinProofWindowOffsetPerc(uint8 newMinProofWindowOffsetPerc) external onlyHubOwner {\n        minProofWindowOffsetPerc = newMinProofWindowOffsetPerc;\n    }\n\n    function setMaxProofWindowOffsetPerc(uint8 newMaxProofWindowOffsetPerc) external onlyHubOwner {\n        maxProofWindowOffsetPerc = newMaxProofWindowOffsetPerc;\n    }\n\n    function setProofWindowDurationPerc(uint8 newProofWindowDurationPerc) external onlyHubOwner {\n        proofWindowDurationPerc = newProofWindowDurationPerc;\n    }\n\n    function setReplacementWindowDurationPerc(uint8 newReplacementWindowDurationPerc) external onlyHubOwner {\n        replacementWindowDurationPerc = newReplacementWindowDurationPerc;\n    }\n\n    function setEpochLength(uint128 newEpochLength) external onlyHubOwner {\n        epochLength = newEpochLength;\n    }\n\n    function setStakeWithdrawalDelay(uint24 newStakeWithdrawalDelay) external onlyHubOwner {\n        stakeWithdrawalDelay = newStakeWithdrawalDelay;\n    }\n\n    function setRewardWithdrawalDelay(uint24 newRewardWithdrawalDelay) external onlyHubOwner {\n        rewardWithdrawalDelay = newRewardWithdrawalDelay;\n    }\n\n    function setSlashingFreezeDuration(uint32 newSlashingFreezeDuration) external onlyHubOwner {\n        slashingFreezeDuration = newSlashingFreezeDuration;\n    }\n\n    function _checkHubOwner() internal view virtual {\n        require(msg.sender == hub.owner(), \"Fn can only be used by hub owner\");\n    }\n}\n",
  "sourcePath": "/Users/waving/Desktop/OriginTrail/dkg-evm-module/contracts/storage/ParametersStorage.sol",
  "compiler": {
    "name": "solc",
    "version": "0.8.16+commit.07a7930e.Emscripten.clang"
  },
  "schemaVersion": "3.4.10",
  "updatedAt": "2022-12-14T11:55:11.642Z",
  "devdoc": {
    "kind": "dev",
    "methods": {},
    "version": 1
  },
  "userdoc": {
    "kind": "user",
    "methods": {},
    "version": 1
  }
}