{
  "contractName": "ScoringProxy",
  "abi": [
    {
      "inputs": [
        {
          "internalType": "address",
          "name": "hubAddress",
          "type": "address"
        }
      ],
      "stateMutability": "nonpayable",
      "type": "constructor"
    },
    {
      "anonymous": false,
      "inputs": [
        {
          "indexed": true,
          "internalType": "uint8",
          "name": "scoreFunctionId",
          "type": "uint8"
        },
        {
          "indexed": false,
          "internalType": "address",
          "name": "newContractAddress",
          "type": "address"
        }
      ],
      "name": "NewScoringFunctionContract",
      "type": "event"
    },
    {
      "anonymous": false,
      "inputs": [
        {
          "indexed": true,
          "internalType": "uint8",
          "name": "scoreFunctionId",
          "type": "uint8"
        },
        {
          "indexed": false,
          "internalType": "address",
          "name": "newContractAddress",
          "type": "address"
        }
      ],
      "name": "ScoringFunctionContractUpdated",
      "type": "event"
    },
    {
      "inputs": [],
      "name": "hub",
      "outputs": [
        {
          "internalType": "contract Hub",
          "name": "",
          "type": "address"
        }
      ],
      "stateMutability": "view",
      "type": "function"
    },
    {
      "inputs": [],
      "name": "name",
      "outputs": [
        {
          "internalType": "string",
          "name": "",
          "type": "string"
        }
      ],
      "stateMutability": "pure",
      "type": "function"
    },
    {
      "inputs": [],
      "name": "version",
      "outputs": [
        {
          "internalType": "string",
          "name": "",
          "type": "string"
        }
      ],
      "stateMutability": "pure",
      "type": "function"
    },
    {
      "inputs": [
        {
          "internalType": "uint8",
          "name": "scoreFunctionId",
          "type": "uint8"
        },
        {
          "internalType": "address",
          "name": "scoringContractAddress",
          "type": "address"
        }
      ],
      "name": "setContractAddress",
      "outputs": [],
      "stateMutability": "nonpayable",
      "type": "function"
    },
    {
      "inputs": [
        {
          "internalType": "uint8",
          "name": "scoreFunctionId",
          "type": "uint8"
        }
      ],
      "name": "removeContract",
      "outputs": [],
      "stateMutability": "nonpayable",
      "type": "function"
    },
    {
      "inputs": [
        {
          "internalType": "uint8",
          "name": "scoreFunctionId",
          "type": "uint8"
        },
        {
          "internalType": "uint8",
          "name": "hashFunctionId",
          "type": "uint8"
        },
        {
          "internalType": "bytes",
          "name": "nodeId",
          "type": "bytes"
        },
        {
          "internalType": "bytes",
          "name": "keyword",
          "type": "bytes"
        },
        {
          "internalType": "uint96",
          "name": "stake",
          "type": "uint96"
        }
      ],
      "name": "callScoreFunction",
      "outputs": [
        {
          "internalType": "uint40",
          "name": "",
          "type": "uint40"
        }
      ],
      "stateMutability": "view",
      "type": "function"
    },
    {
      "inputs": [
        {
          "internalType": "uint8",
          "name": "scoreFunctionId",
          "type": "uint8"
        }
      ],
      "name": "getScoreFunctionName",
      "outputs": [
        {
          "internalType": "string",
          "name": "",
          "type": "string"
        }
      ],
      "stateMutability": "view",
      "type": "function"
    },
    {
      "inputs": [
        {
          "internalType": "uint8",
          "name": "scoreFunctionId",
          "type": "uint8"
        }
      ],
      "name": "getScoreFunctionContractAddress",
      "outputs": [
        {
          "internalType": "address",
          "name": "",
          "type": "address"
        }
      ],
      "stateMutability": "view",
      "type": "function"
    },
    {
      "inputs": [],
      "name": "getAllScoreFunctions",
      "outputs": [
        {
          "components": [
            {
              "internalType": "uint8",
              "name": "id",
              "type": "uint8"
            },
            {
              "internalType": "address",
              "name": "addr",
              "type": "address"
            }
          ],
          "internalType": "struct UnorderedIndexableContractDynamicSetLib.Contract[]",
          "name": "",
          "type": "tuple[]"
        }
      ],
      "stateMutability": "view",
      "type": "function"
    },
    {
      "inputs": [
        {
          "internalType": "uint8",
          "name": "scoreFunctionId",
          "type": "uint8"
        }
      ],
      "name": "isScoreFunction",
      "outputs": [
        {
          "internalType": "bool",
          "name": "",
          "type": "bool"
        }
      ],
      "stateMutability": "view",
      "type": "function"
    }
  ],
  "bytecode": "0x6080346100bf57601f610e9438819003918201601f19168301916001600160401b038311848410176100c4578084926020946040528339810103126100bf57516001600160a01b038116908190036100bf57801561007a57600080546001600160a01b031916919091179055604051610db990816100db8239f35b60405162461bcd60e51b815260206004820152601960248201527f48756220416464726573732063616e6e6f7420626520307830000000000000006044820152606490fd5b600080fd5b634e487b7160e01b600052604160045260246000fdfe60806040908082526004908136101561001757600080fd5b600090813560e01c90816306fdde0314610906575080630b47a00814610740578063365a86fc1461071857806354fd4d50146106db578063588372aa146105e8578063893d3fc0146105af5780638b6602d814610430578063c413e5be146101cd578063e12e56a71461019a5763eaf57a4e1461009357600080fd5b346101975780600319360112610197576002549167ffffffffffffffff8311610184575091908151926020936100ce858460051b0182610a0e565b8281526002825284810192827f405787fa12a823e0f2b7631cc41b3ba8828b3321ca811111fa75cd3aa3bb5ace855b83831061015c5750505050835194859481860192828752518093528086019493905b83821061012c5786860387f35b8451805160ff1687528301516001600160a01b03168684015287965094850194938201936001919091019061011f565b6001898192610170859c99989a9b9c610c8e565b8152019201920191909796959394976100fd565b634e487b7160e01b825260419052602490fd5b80fd5b5082346101c95760203660031901126101c9576020906101c06101bb610999565b610cf7565b90519015158152f35b5080fd5b5091903461042c578160031936011261042c576101e8610999565b602435916001600160a01b0383169081840361042857610206610a51565b61020f83610cf7565b156102ac575061027d6102a993926102596102839387518181527fe2dcdbd6453b0466368d1ccccaa259e2e0b98656fbd2067d8d42578850e7e63f602060ff861692a21515610b1f565b61026a61026582610cf7565b610c1c565b60ff166000526001602052604060002090565b54610b7f565b508054610100600160a81b03191660089290921b610100600160a81b0316919091179055565b51f35b9493925060ff821691827fc6cd47d9d457746d0ded074885432d127a1bb30a241fa26040bf0a4f43852b4360208651858152a282156103d9576102f0821515610b1f565b6102f981610cf7565b610370579061031b9160025492839160ff166000526001602052604060002090565b55835192610328846109dc565b835260208301526801000000000000000081101561035d576102a9929394508060016103579201600255610b7f565b90610bcc565b634e487b7160e01b845260418552602484fd5b835162461bcd60e51b8152602081880152603b60248201527f496e64657861626c65436f6e74726163745365743a20436f6e7472616374207760448201527f69746820676976656e20494420616c72656164792065786973747300000000006064820152608490fd5b835162461bcd60e51b8152602081880152602360248201527f496e64657861626c65436f6e74726163745365743a2049442063616e6f74206260448201526206520360ec1b6064820152608490fd5b8580fd5b8280fd5b5091903461042c576020806003193601126105ab5761044d610999565b90610456610a51565b61046261026583610cf7565b6104798260ff166000526001602052604060002090565b5460025460001993919084810190811161059857906104a361049d89959493610b7f565b50610c8e565b83810151885163af640d0f60e01b815291949190829082908a9082906001600160a01b03165afa91821561058e57869261054e575b5050926103578261026a936104fd6105039760ff166000526001602052604060002090565b55610b7f565b55600254801561053b57019061051882610b7f565b919091610529575083905560025551f35b634e487b7160e01b8552849052602484fd5b634e487b7160e01b855260318352602485fd5b90809250813d8311610587575b6105658183610a0e565b8101031261058357519260ff841684036105835792610357826104d8565b8480fd5b503d61055b565b89513d88823e3d90fd5b634e487b7160e01b885260118652602488fd5b8380fd5b5082346101c95760203660031901126101c9576020906001600160a01b03826105de6105d9610999565b610cb6565b0151169051908152f35b5082346101c957602091826003193601126101975783816001600160a01b03856106136105d9610999565b0151168451968780926306fdde0360e01b82525afa9384156106d1578294610647575b835180610643878261096d565b0390f35b90919293503d8084873e61065b8187610a0e565b850192818685031261019757855167ffffffffffffffff9687821161042c57019284601f850112156101c957835196871161018457508451936106a7601f8801601f1916840186610a0e565b8685528287850101116101975750936106c89185610643968501910161094a565b90838080610636565b83513d84823e3d90fd5b5082346101c957816003193601126101c9578051610643916106fc826109dc565b60058252640312e302e360dc1b6020830152519182918261096d565b5082346101c957816003193601126101c957905490516001600160a01b039091168152602090f35b5082346101c9576003199160a0368401126101975761075d610999565b936024359060ff821680920361042c5767ffffffffffffffff916044358381116105835761078e90369084016109ae565b979093606435908111610428576107a890369085016109ae565b989092608435986bffffffffffffffffffffffff8a16809a036109025761081b9060209b8c95866107df60018060a01b0392610cb6565b0151169661080c8c519a8b9788976313a70cb160e11b89528c890152606060248901526064880191610a30565b92858403016044860152610a30565b0381845afa9283156108f857908793929185936108c3575b50906044918651978894859363a0db80ad60e01b855284015260248301525afa9283156108b7578193610871575b505064ffffffffff905191168152f35b909192508381813d83116108b0575b61088a8183610a0e565b810103126101c957519064ffffffffff8216820361019757509064ffffffffff84610861565b503d610880565b509051903d90823e3d90fd5b809293508491943d83116108f1575b6108dc8183610a0e565b810103126105ab575186929091906044610833565b503d6108d2565b85513d86823e3d90fd5b8780fd5b9050833461042c578260031936011261042c576106439250610927826109dc565b600c82526b53636f72696e6750726f787960a01b6020830152519182918261096d565b60005b83811061095d5750506000910152565b818101518382015260200161094d565b6040916020825261098d815180928160208601526020868601910161094a565b601f01601f1916010190565b6004359060ff821682036109a957565b600080fd5b9181601f840112156109a95782359167ffffffffffffffff83116109a957602083818601950101116109a957565b6040810190811067ffffffffffffffff8211176109f857604052565b634e487b7160e01b600052604160045260246000fd5b90601f8019910116810190811067ffffffffffffffff8211176109f857604052565b908060209392818452848401376000828201840152601f01601f1916010190565b60008054604051638da5cb5b60e01b81526020926001600160a01b039284908390600490829087165afa918215610b12578192610ad8575b5050163303610a955750565b6064906040519062461bcd60e51b825280600483015260248201527f466e2063616e206f6e6c79206265207573656420627920687562206f776e65726044820152fd5b9091508381813d8311610b0b575b610af08183610a0e565b810103126101c9575190828216820361019757503880610a89565b503d610ae6565b50604051903d90823e3d90fd5b15610b2657565b60405162461bcd60e51b815260206004820152602b60248201527f496e64657861626c65436f6e74726163745365743a204164647265737320636160448201526a06e6e6f74206265203078360ac1b6064820152608490fd5b600254811015610bb65760026000527f405787fa12a823e0f2b7631cc41b3ba8828b3321ca811111fa75cd3aa3bb5ace0190600090565b634e487b7160e01b600052603260045260246000fd5b90610c0657815181546020909301516001600160a81b031990931660ff919091161760089290921b610100600160a81b0316919091179055565b634e487b7160e01b600052600060045260246000fd5b15610c2357565b60405162461bcd60e51b815260206004820152603b60248201527f496e64657861626c65436f6e74726163745365743a20436f6e7472616374207760448201527f69746820676976656e20494420646f65736e27742065786973747300000000006064820152608490fd5b90604051610c9b816109dc565b915460ff8116835260081c6001600160a01b03166020830152565b60ff9060006020604051610cc9816109dc565b8281520152610cda61026582610d28565b166000526001602052610cf461049d604060002054610b7f565b90565b60025415610d225760ff1680600052600160205260ff610d1b604060002054610b7f565b5054161490565b50600090565b600254908115610d7c5760ff169081600052600160205260406000205490811015610bb65760026000527f405787fa12a823e0f2b7631cc41b3ba8828b3321ca811111fa75cd3aa3bb5ace015460ff161490565b505060009056fea2646970667358221220e7478c9a370c444c05981c91df0005ec6a982932ea63940cbe12e2547337a10564736f6c63430008100033",
  "immutableReferences": {},
  "source": "// SPDX-License-Identifier: MIT\n\npragma solidity ^0.8.4;\n\nimport {Hub} from \"./Hub.sol\";\nimport {IScoreFunction} from \"./interface/IScoreFunction.sol\";\nimport {Named} from \"./interface/Named.sol\";\nimport {Versioned} from \"./interface/Versioned.sol\";\nimport {UnorderedIndexableContractDynamicSetLib} from \"./utils/UnorderedIndexableContractDynamicSet.sol\";\n\ncontract ScoringProxy is Named, Versioned {\n    using UnorderedIndexableContractDynamicSetLib for UnorderedIndexableContractDynamicSetLib.Set;\n\n    event NewScoringFunctionContract(uint8 indexed scoreFunctionId, address newContractAddress);\n    event ScoringFunctionContractUpdated(uint8 indexed scoreFunctionId, address newContractAddress);\n\n    string private constant _NAME = \"ScoringProxy\";\n    string private constant _VERSION = \"1.0.0\";\n\n    Hub public hub;\n\n    UnorderedIndexableContractDynamicSetLib.Set internal scoreFunctionSet;\n\n    constructor(address hubAddress) {\n        require(hubAddress != address(0), \"Hub Address cannot be 0x0\");\n\n        hub = Hub(hubAddress);\n    }\n\n    modifier onlyHubOwner() {\n        _checkHubOwner();\n        _;\n    }\n\n    function name() external pure virtual override returns (string memory) {\n        return _NAME;\n    }\n\n    function version() external pure virtual override returns (string memory) {\n        return _VERSION;\n    }\n\n    function setContractAddress(uint8 scoreFunctionId, address scoringContractAddress) external onlyHubOwner {\n        if (scoreFunctionSet.exists(scoreFunctionId)) {\n            emit ScoringFunctionContractUpdated(scoreFunctionId, scoringContractAddress);\n            scoreFunctionSet.update(scoreFunctionId, scoringContractAddress);\n        } else {\n            emit NewScoringFunctionContract(scoreFunctionId, scoringContractAddress);\n            scoreFunctionSet.append(scoreFunctionId, scoringContractAddress);\n        }\n    }\n\n    function removeContract(uint8 scoreFunctionId) external onlyHubOwner {\n        scoreFunctionSet.remove(scoreFunctionId);\n    }\n\n    function callScoreFunction(\n        uint8 scoreFunctionId,\n        uint8 hashFunctionId,\n        bytes calldata nodeId,\n        bytes calldata keyword,\n        uint96 stake\n    ) external view returns (uint40) {\n        IScoreFunction scoringFunction = IScoreFunction(scoreFunctionSet.get(scoreFunctionId).addr);\n        uint256 distance = scoringFunction.calculateDistance(hashFunctionId, nodeId, keyword);\n        return scoringFunction.calculateScore(distance, stake);\n    }\n\n    function getScoreFunctionName(uint8 scoreFunctionId) external view returns (string memory) {\n        return Named(scoreFunctionSet.get(scoreFunctionId).addr).name();\n    }\n\n    function getScoreFunctionContractAddress(uint8 scoreFunctionId) external view returns (address) {\n        return scoreFunctionSet.get(scoreFunctionId).addr;\n    }\n\n    function getAllScoreFunctions() external view returns (UnorderedIndexableContractDynamicSetLib.Contract[] memory) {\n        return scoreFunctionSet.getAll();\n    }\n\n    function isScoreFunction(uint8 scoreFunctionId) external view returns (bool) {\n        return scoreFunctionSet.exists(scoreFunctionId);\n    }\n\n    function _checkHubOwner() internal view virtual {\n        require(msg.sender == hub.owner(), \"Fn can only be used by hub owner\");\n    }\n}\n",
  "sourcePath": "/Users/waving/Desktop/OriginTrail/dkg-evm-module/contracts/ScoringProxy.sol",
  "compiler": {
    "name": "solc",
    "version": "0.8.16+commit.07a7930e.Emscripten.clang"
  },
  "schemaVersion": "3.4.10",
  "updatedAt": "2022-12-14T11:55:11.605Z",
  "devdoc": {
    "kind": "dev",
    "methods": {},
    "version": 1
  },
  "userdoc": {
    "kind": "user",
    "methods": {},
    "version": 1
  }
}