{
  "contractName": "ServiceAgreementV1",
  "abi": [
    {
      "inputs": [
        {
          "internalType": "address",
          "name": "hubAddress",
          "type": "address"
        }
      ],
      "stateMutability": "nonpayable",
      "type": "constructor"
    },
    {
      "inputs": [
        {
          "internalType": "address",
          "name": "contractAddress",
          "type": "address"
        }
      ],
      "name": "AssetStorgeNotInTheHub",
      "type": "error"
    },
    {
      "inputs": [
        {
          "internalType": "bytes32",
          "name": "agreementId",
          "type": "bytes32"
        },
        {
          "internalType": "uint16",
          "name": "epoch",
          "type": "uint16"
        },
        {
          "internalType": "uint256",
          "name": "commitWindowOpen",
          "type": "uint256"
        },
        {
          "internalType": "uint256",
          "name": "commitWindowClose",
          "type": "uint256"
        },
        {
          "internalType": "uint256",
          "name": "timeNow",
          "type": "uint256"
        }
      ],
      "name": "CommitWindowClosed",
      "type": "error"
    },
    {
      "inputs": [],
      "name": "EmptyAssetCreatorAddress",
      "type": "error"
    },
    {
      "inputs": [],
      "name": "EmptyKeyword",
      "type": "error"
    },
    {
      "inputs": [
        {
          "internalType": "bytes32",
          "name": "agreementId",
          "type": "bytes32"
        },
        {
          "internalType": "uint16",
          "name": "epoch",
          "type": "uint16"
        },
        {
          "internalType": "uint72",
          "name": "identityId",
          "type": "uint72"
        },
        {
          "internalType": "bytes",
          "name": "nodeId",
          "type": "bytes"
        }
      ],
      "name": "NodeAlreadyRewarded",
      "type": "error"
    },
    {
      "inputs": [
        {
          "internalType": "bytes32",
          "name": "agreementId",
          "type": "bytes32"
        },
        {
          "internalType": "uint16",
          "name": "epoch",
          "type": "uint16"
        },
        {
          "internalType": "uint72",
          "name": "identityId",
          "type": "uint72"
        },
        {
          "internalType": "bytes",
          "name": "nodeId",
          "type": "bytes"
        }
      ],
      "name": "NodeAlreadySubmittedCommit",
      "type": "error"
    },
    {
      "inputs": [
        {
          "internalType": "bytes32",
          "name": "agreementId",
          "type": "bytes32"
        },
        {
          "internalType": "uint16",
          "name": "epoch",
          "type": "uint16"
        },
        {
          "internalType": "uint72",
          "name": "identityId",
          "type": "uint72"
        },
        {
          "internalType": "bytes",
          "name": "nodeId",
          "type": "bytes"
        },
        {
          "internalType": "uint8",
          "name": "rank",
          "type": "uint8"
        }
      ],
      "name": "NodeNotAwarded",
      "type": "error"
    },
    {
      "inputs": [
        {
          "internalType": "uint72",
          "name": "identityId",
          "type": "uint72"
        },
        {
          "internalType": "bytes",
          "name": "nodeId",
          "type": "bytes"
        },
        {
          "internalType": "uint96",
          "name": "ask",
          "type": "uint96"
        },
        {
          "internalType": "uint96",
          "name": "stake",
          "type": "uint96"
        }
      ],
      "name": "NodeNotInShardingTable",
      "type": "error"
    },
    {
      "inputs": [
        {
          "internalType": "address",
          "name": "caller",
          "type": "address"
        }
      ],
      "name": "OnlyHubContractsFunction",
      "type": "error"
    },
    {
      "inputs": [
        {
          "internalType": "address",
          "name": "caller",
          "type": "address"
        }
      ],
      "name": "OnlyHubOwnerFunction",
      "type": "error"
    },
    {
      "inputs": [
        {
          "internalType": "bytes32",
          "name": "agreementId",
          "type": "bytes32"
        },
        {
          "internalType": "uint16",
          "name": "epoch",
          "type": "uint16"
        },
        {
          "internalType": "uint256",
          "name": "proofWindowOpen",
          "type": "uint256"
        },
        {
          "internalType": "uint256",
          "name": "proofWindowClose",
          "type": "uint256"
        },
        {
          "internalType": "uint256",
          "name": "timeNow",
          "type": "uint256"
        }
      ],
      "name": "ProofWindowClosed",
      "type": "error"
    },
    {
      "inputs": [
        {
          "internalType": "uint8",
          "name": "scoreFunctionId",
          "type": "uint8"
        }
      ],
      "name": "ScoreFunctionDoesntExist",
      "type": "error"
    },
    {
      "inputs": [
        {
          "internalType": "bytes32",
          "name": "agreementId",
          "type": "bytes32"
        }
      ],
      "name": "ServiceAgreementDoesntExist",
      "type": "error"
    },
    {
      "inputs": [
        {
          "internalType": "bytes32",
          "name": "agreementId",
          "type": "bytes32"
        },
        {
          "internalType": "uint256",
          "name": "startTime",
          "type": "uint256"
        },
        {
          "internalType": "uint16",
          "name": "epochsNumber",
          "type": "uint16"
        },
        {
          "internalType": "uint128",
          "name": "epochLength",
          "type": "uint128"
        }
      ],
      "name": "ServiceAgreementHasBeenExpired",
      "type": "error"
    },
    {
      "inputs": [
        {
          "internalType": "uint256",
          "name": "amount",
          "type": "uint256"
        }
      ],
      "name": "TooLowAllowance",
      "type": "error"
    },
    {
      "inputs": [
        {
          "internalType": "uint256",
          "name": "amount",
          "type": "uint256"
        }
      ],
      "name": "TooLowBalance",
      "type": "error"
    },
    {
      "inputs": [
        {
          "internalType": "bytes32",
          "name": "agreementId",
          "type": "bytes32"
        },
        {
          "internalType": "uint16",
          "name": "epoch",
          "type": "uint16"
        },
        {
          "internalType": "uint72",
          "name": "identityId",
          "type": "uint72"
        },
        {
          "internalType": "bytes",
          "name": "nodeId",
          "type": "bytes"
        },
        {
          "internalType": "bytes32[]",
          "name": "merkleProof",
          "type": "bytes32[]"
        },
        {
          "internalType": "bytes32",
          "name": "merkleRoot",
          "type": "bytes32"
        },
        {
          "internalType": "bytes32",
          "name": "chunkHash",
          "type": "bytes32"
        },
        {
          "internalType": "uint256",
          "name": "challenge",
          "type": "uint256"
        }
      ],
      "name": "WrongMerkleProof",
      "type": "error"
    },
    {
      "inputs": [],
      "name": "ZeroEpochsNumber",
      "type": "error"
    },
    {
      "inputs": [],
      "name": "ZeroTokenAmount",
      "type": "error"
    },
    {
      "anonymous": false,
      "inputs": [
        {
          "indexed": true,
          "internalType": "address",
          "name": "assetContract",
          "type": "address"
        },
        {
          "indexed": true,
          "internalType": "uint256",
          "name": "tokenId",
          "type": "uint256"
        },
        {
          "indexed": false,
          "internalType": "bytes",
          "name": "keyword",
          "type": "bytes"
        },
        {
          "indexed": false,
          "internalType": "uint8",
          "name": "hashFunctionId",
          "type": "uint8"
        },
        {
          "indexed": false,
          "internalType": "uint16",
          "name": "epoch",
          "type": "uint16"
        },
        {
          "indexed": true,
          "internalType": "uint72",
          "name": "identityId",
          "type": "uint72"
        },
        {
          "indexed": false,
          "internalType": "uint40",
          "name": "score",
          "type": "uint40"
        }
      ],
      "name": "CommitSubmitted",
      "type": "event"
    },
    {
      "anonymous": false,
      "inputs": [
        {
          "indexed": false,
          "internalType": "bool",
          "name": "value",
          "type": "bool"
        },
        {
          "indexed": false,
          "internalType": "string",
          "name": "message",
          "type": "string"
        }
      ],
      "name": "Logger",
      "type": "event"
    },
    {
      "anonymous": false,
      "inputs": [
        {
          "indexed": true,
          "internalType": "address",
          "name": "assetContract",
          "type": "address"
        },
        {
          "indexed": true,
          "internalType": "uint256",
          "name": "tokenId",
          "type": "uint256"
        },
        {
          "indexed": false,
          "internalType": "bytes",
          "name": "keyword",
          "type": "bytes"
        },
        {
          "indexed": false,
          "internalType": "uint8",
          "name": "hashFunctionId",
          "type": "uint8"
        },
        {
          "indexed": false,
          "internalType": "uint16",
          "name": "epoch",
          "type": "uint16"
        },
        {
          "indexed": true,
          "internalType": "uint72",
          "name": "identityId",
          "type": "uint72"
        }
      ],
      "name": "ProofSubmitted",
      "type": "event"
    },
    {
      "anonymous": false,
      "inputs": [
        {
          "indexed": true,
          "internalType": "address",
          "name": "assetContract",
          "type": "address"
        },
        {
          "indexed": true,
          "internalType": "uint256",
          "name": "tokenId",
          "type": "uint256"
        },
        {
          "indexed": false,
          "internalType": "bytes",
          "name": "keyword",
          "type": "bytes"
        },
        {
          "indexed": false,
          "internalType": "uint8",
          "name": "hashFunctionId",
          "type": "uint8"
        },
        {
          "indexed": false,
          "internalType": "uint256",
          "name": "startTime",
          "type": "uint256"
        },
        {
          "indexed": false,
          "internalType": "uint16",
          "name": "epochsNumber",
          "type": "uint16"
        },
        {
          "indexed": false,
          "internalType": "uint128",
          "name": "epochLength",
          "type": "uint128"
        },
        {
          "indexed": false,
          "internalType": "uint96",
          "name": "tokenAmount",
          "type": "uint96"
        }
      ],
      "name": "ServiceAgreementV1Created",
      "type": "event"
    },
    {
      "anonymous": false,
      "inputs": [
        {
          "indexed": true,
          "internalType": "address",
          "name": "assetContract",
          "type": "address"
        },
        {
          "indexed": true,
          "internalType": "uint256",
          "name": "tokenId",
          "type": "uint256"
        },
        {
          "indexed": false,
          "internalType": "bytes",
          "name": "keyword",
          "type": "bytes"
        },
        {
          "indexed": false,
          "internalType": "uint8",
          "name": "hashFunctionId",
          "type": "uint8"
        },
        {
          "indexed": false,
          "internalType": "uint16",
          "name": "epochsNumber",
          "type": "uint16"
        }
      ],
      "name": "ServiceAgreementV1Extended",
      "type": "event"
    },
    {
      "anonymous": false,
      "inputs": [
        {
          "indexed": true,
          "internalType": "address",
          "name": "assetContract",
          "type": "address"
        },
        {
          "indexed": true,
          "internalType": "uint256",
          "name": "tokenId",
          "type": "uint256"
        },
        {
          "indexed": false,
          "internalType": "bytes",
          "name": "keyword",
          "type": "bytes"
        },
        {
          "indexed": false,
          "internalType": "uint8",
          "name": "hashFunctionId",
          "type": "uint8"
        },
        {
          "indexed": false,
          "internalType": "uint96",
          "name": "tokenAmount",
          "type": "uint96"
        }
      ],
      "name": "ServiceAgreementV1RewardRaised",
      "type": "event"
    },
    {
      "anonymous": false,
      "inputs": [
        {
          "indexed": true,
          "internalType": "address",
          "name": "assetContract",
          "type": "address"
        },
        {
          "indexed": true,
          "internalType": "uint256",
          "name": "tokenId",
          "type": "uint256"
        },
        {
          "indexed": false,
          "internalType": "bytes",
          "name": "keyword",
          "type": "bytes"
        },
        {
          "indexed": false,
          "internalType": "uint8",
          "name": "hashFunctionId",
          "type": "uint8"
        }
      ],
      "name": "ServiceAgreementV1Terminated",
      "type": "event"
    },
    {
      "anonymous": false,
      "inputs": [
        {
          "indexed": true,
          "internalType": "address",
          "name": "assetContract",
          "type": "address"
        },
        {
          "indexed": true,
          "internalType": "uint256",
          "name": "tokenId",
          "type": "uint256"
        },
        {
          "indexed": false,
          "internalType": "bytes",
          "name": "keyword",
          "type": "bytes"
        },
        {
          "indexed": false,
          "internalType": "uint8",
          "name": "hashFunctionId",
          "type": "uint8"
        },
        {
          "indexed": false,
          "internalType": "uint16",
          "name": "epochsNumber",
          "type": "uint16"
        },
        {
          "indexed": false,
          "internalType": "uint96",
          "name": "tokenAmount",
          "type": "uint96"
        }
      ],
      "name": "ServiceAgreementV1Updated",
      "type": "event"
    },
    {
      "inputs": [],
      "name": "assertionStorage",
      "outputs": [
        {
          "internalType": "contract AssertionStorage",
          "name": "",
          "type": "address"
        }
      ],
      "stateMutability": "view",
      "type": "function"
    },
    {
      "inputs": [],
      "name": "hashingProxy",
      "outputs": [
        {
          "internalType": "contract HashingProxy",
          "name": "",
          "type": "address"
        }
      ],
      "stateMutability": "view",
      "type": "function"
    },
    {
      "inputs": [],
      "name": "hub",
      "outputs": [
        {
          "internalType": "contract Hub",
          "name": "",
          "type": "address"
        }
      ],
      "stateMutability": "view",
      "type": "function"
    },
    {
      "inputs": [],
      "name": "identityStorage",
      "outputs": [
        {
          "internalType": "contract IdentityStorage",
          "name": "",
          "type": "address"
        }
      ],
      "stateMutability": "view",
      "type": "function"
    },
    {
      "inputs": [],
      "name": "parametersStorage",
      "outputs": [
        {
          "internalType": "contract ParametersStorage",
          "name": "",
          "type": "address"
        }
      ],
      "stateMutability": "view",
      "type": "function"
    },
    {
      "inputs": [],
      "name": "profileStorage",
      "outputs": [
        {
          "internalType": "contract ProfileStorage",
          "name": "",
          "type": "address"
        }
      ],
      "stateMutability": "view",
      "type": "function"
    },
    {
      "inputs": [
        {
          "internalType": "uint256",
          "name": "",
          "type": "uint256"
        }
      ],
      "name": "reqs",
      "outputs": [
        {
          "internalType": "bool",
          "name": "",
          "type": "bool"
        }
      ],
      "stateMutability": "view",
      "type": "function"
    },
    {
      "inputs": [],
      "name": "scoringProxy",
      "outputs": [
        {
          "internalType": "contract ScoringProxy",
          "name": "",
          "type": "address"
        }
      ],
      "stateMutability": "view",
      "type": "function"
    },
    {
      "inputs": [],
      "name": "serviceAgreementStorageV1",
      "outputs": [
        {
          "internalType": "contract ServiceAgreementStorageV1",
          "name": "",
          "type": "address"
        }
      ],
      "stateMutability": "view",
      "type": "function"
    },
    {
      "inputs": [],
      "name": "shardingTableStorage",
      "outputs": [
        {
          "internalType": "contract ShardingTableStorage",
          "name": "",
          "type": "address"
        }
      ],
      "stateMutability": "view",
      "type": "function"
    },
    {
      "inputs": [],
      "name": "stakingContract",
      "outputs": [
        {
          "internalType": "contract Staking",
          "name": "",
          "type": "address"
        }
      ],
      "stateMutability": "view",
      "type": "function"
    },
    {
      "inputs": [],
      "name": "stakingStorage",
      "outputs": [
        {
          "internalType": "contract StakingStorage",
          "name": "",
          "type": "address"
        }
      ],
      "stateMutability": "view",
      "type": "function"
    },
    {
      "inputs": [],
      "name": "tokenContract",
      "outputs": [
        {
          "internalType": "contract IERC20",
          "name": "",
          "type": "address"
        }
      ],
      "stateMutability": "view",
      "type": "function"
    },
    {
      "inputs": [],
      "name": "initialize",
      "outputs": [],
      "stateMutability": "nonpayable",
      "type": "function"
    },
    {
      "inputs": [],
      "name": "name",
      "outputs": [
        {
          "internalType": "string",
          "name": "",
          "type": "string"
        }
      ],
      "stateMutability": "pure",
      "type": "function"
    },
    {
      "inputs": [],
      "name": "version",
      "outputs": [
        {
          "internalType": "string",
          "name": "",
          "type": "string"
        }
      ],
      "stateMutability": "pure",
      "type": "function"
    },
    {
      "inputs": [
        {
          "components": [
            {
              "internalType": "address",
              "name": "assetCreator",
              "type": "address"
            },
            {
              "internalType": "address",
              "name": "assetContract",
              "type": "address"
            },
            {
              "internalType": "uint256",
              "name": "tokenId",
              "type": "uint256"
            },
            {
              "internalType": "bytes",
              "name": "keyword",
              "type": "bytes"
            },
            {
              "internalType": "uint8",
              "name": "hashFunctionId",
              "type": "uint8"
            },
            {
              "internalType": "uint16",
              "name": "epochsNumber",
              "type": "uint16"
            },
            {
              "internalType": "uint96",
              "name": "tokenAmount",
              "type": "uint96"
            },
            {
              "internalType": "uint8",
              "name": "scoreFunctionId",
              "type": "uint8"
            }
          ],
          "internalType": "struct ServiceAgreementStructsV1.ServiceAgreementInputArgs",
          "name": "args",
          "type": "tuple"
        }
      ],
      "name": "createServiceAgreement",
      "outputs": [],
      "stateMutability": "nonpayable",
      "type": "function"
    },
    {
      "inputs": [
        {
          "internalType": "bytes32",
          "name": "agreementId",
          "type": "bytes32"
        },
        {
          "internalType": "uint16",
          "name": "epoch",
          "type": "uint16"
        }
      ],
      "name": "isCommitWindowOpen",
      "outputs": [
        {
          "internalType": "bool",
          "name": "",
          "type": "bool"
        }
      ],
      "stateMutability": "view",
      "type": "function"
    },
    {
      "inputs": [
        {
          "internalType": "bytes32",
          "name": "agreementId",
          "type": "bytes32"
        },
        {
          "internalType": "uint16",
          "name": "epoch",
          "type": "uint16"
        }
      ],
      "name": "getTopCommitSubmissions",
      "outputs": [
        {
          "components": [
            {
              "internalType": "uint72",
              "name": "identityId",
              "type": "uint72"
            },
            {
              "internalType": "uint72",
              "name": "prevIdentityId",
              "type": "uint72"
            },
            {
              "internalType": "uint72",
              "name": "nextIdentityId",
              "type": "uint72"
            },
            {
              "internalType": "uint40",
              "name": "score",
              "type": "uint40"
            }
          ],
          "internalType": "struct ServiceAgreementStructsV1.CommitSubmission[]",
          "name": "",
          "type": "tuple[]"
        }
      ],
      "stateMutability": "view",
      "type": "function"
    },
    {
      "inputs": [
        {
          "components": [
            {
              "internalType": "address",
              "name": "assetContract",
              "type": "address"
            },
            {
              "internalType": "uint256",
              "name": "tokenId",
              "type": "uint256"
            },
            {
              "internalType": "bytes",
              "name": "keyword",
              "type": "bytes"
            },
            {
              "internalType": "uint8",
              "name": "hashFunctionId",
              "type": "uint8"
            },
            {
              "internalType": "uint16",
              "name": "epoch",
              "type": "uint16"
            }
          ],
          "internalType": "struct ServiceAgreementStructsV1.CommitInputArgs",
          "name": "args",
          "type": "tuple"
        }
      ],
      "name": "submitCommit",
      "outputs": [],
      "stateMutability": "nonpayable",
      "type": "function"
    },
    {
      "inputs": [
        {
          "components": [
            {
              "internalType": "address",
              "name": "assetContract",
              "type": "address"
            },
            {
              "internalType": "uint256",
              "name": "tokenId",
              "type": "uint256"
            },
            {
              "internalType": "bytes",
              "name": "keyword",
              "type": "bytes"
            },
            {
              "internalType": "uint8",
              "name": "hashFunctionId",
              "type": "uint8"
            },
            {
              "internalType": "uint16",
              "name": "epoch",
              "type": "uint16"
            }
          ],
          "internalType": "struct ServiceAgreementStructsV1.CommitInputArgs[]",
          "name": "argsArray",
          "type": "tuple[]"
        }
      ],
      "name": "bulkSubmitCommit",
      "outputs": [],
      "stateMutability": "nonpayable",
      "type": "function"
    },
    {
      "inputs": [
        {
          "internalType": "bytes32",
          "name": "agreementId",
          "type": "bytes32"
        },
        {
          "internalType": "uint16",
          "name": "epoch",
          "type": "uint16"
        }
      ],
      "name": "isProofWindowOpen",
      "outputs": [
        {
          "internalType": "bool",
          "name": "",
          "type": "bool"
        }
      ],
      "stateMutability": "view",
      "type": "function"
    },
    {
      "inputs": [
        {
          "internalType": "address",
          "name": "sender",
          "type": "address"
        },
        {
          "internalType": "address",
          "name": "assetContract",
          "type": "address"
        },
        {
          "internalType": "uint256",
          "name": "tokenId",
          "type": "uint256"
        },
        {
          "internalType": "uint16",
          "name": "epoch",
          "type": "uint16"
        }
      ],
      "name": "getChallenge",
      "outputs": [
        {
          "internalType": "bytes32",
          "name": "",
          "type": "bytes32"
        },
        {
          "internalType": "uint256",
          "name": "",
          "type": "uint256"
        }
      ],
      "stateMutability": "view",
      "type": "function"
    },
    {
      "inputs": [
        {
          "components": [
            {
              "internalType": "address",
              "name": "assetContract",
              "type": "address"
            },
            {
              "internalType": "uint256",
              "name": "tokenId",
              "type": "uint256"
            },
            {
              "internalType": "bytes",
              "name": "keyword",
              "type": "bytes"
            },
            {
              "internalType": "uint8",
              "name": "hashFunctionId",
              "type": "uint8"
            },
            {
              "internalType": "uint16",
              "name": "epoch",
              "type": "uint16"
            },
            {
              "internalType": "bytes32[]",
              "name": "proof",
              "type": "bytes32[]"
            },
            {
              "internalType": "bytes32",
              "name": "chunkHash",
              "type": "bytes32"
            }
          ],
          "internalType": "struct ServiceAgreementStructsV1.ProofInputArgs",
          "name": "args",
          "type": "tuple"
        }
      ],
      "name": "sendProof",
      "outputs": [],
      "stateMutability": "nonpayable",
      "type": "function"
    },
    {
      "inputs": [
        {
          "components": [
            {
              "internalType": "address",
              "name": "assetContract",
              "type": "address"
            },
            {
              "internalType": "uint256",
              "name": "tokenId",
              "type": "uint256"
            },
            {
              "internalType": "bytes",
              "name": "keyword",
              "type": "bytes"
            },
            {
              "internalType": "uint8",
              "name": "hashFunctionId",
              "type": "uint8"
            },
            {
              "internalType": "uint16",
              "name": "epoch",
              "type": "uint16"
            },
            {
              "internalType": "bytes32[]",
              "name": "proof",
              "type": "bytes32[]"
            },
            {
              "internalType": "bytes32",
              "name": "chunkHash",
              "type": "bytes32"
            }
          ],
          "internalType": "struct ServiceAgreementStructsV1.ProofInputArgs[]",
          "name": "argsArray",
          "type": "tuple[]"
        }
      ],
      "name": "bulkSendProof",
      "outputs": [],
      "stateMutability": "nonpayable",
      "type": "function"
    },
    {
      "inputs": [
        {
          "components": [
            {
              "internalType": "address",
              "name": "assetContract",
              "type": "address"
            },
            {
              "internalType": "uint256",
              "name": "tokenId",
              "type": "uint256"
            },
            {
              "internalType": "bytes",
              "name": "keyword",
              "type": "bytes"
            },
            {
              "internalType": "uint8",
              "name": "hashFunctionId",
              "type": "uint8"
            },
            {
              "internalType": "uint16",
              "name": "epoch",
              "type": "uint16"
            },
            {
              "internalType": "bytes32[]",
              "name": "proof",
              "type": "bytes32[]"
            },
            {
              "internalType": "bytes32",
              "name": "chunkHash",
              "type": "bytes32"
            }
          ],
          "internalType": "struct ServiceAgreementStructsV1.ProofInputArgs",
          "name": "args",
          "type": "tuple"
        }
      ],
      "name": "sendProofWithAutoCommit",
      "outputs": [],
      "stateMutability": "nonpayable",
      "type": "function"
    },
    {
      "inputs": [
        {
          "internalType": "uint256",
          "name": "index",
          "type": "uint256"
        },
        {
          "internalType": "bool",
          "name": "req",
          "type": "bool"
        }
      ],
      "name": "setReq",
      "outputs": [],
      "stateMutability": "nonpayable",
      "type": "function"
    }
  ],
  "bytecode": "0x608060409080825234620006b55762000032906200527e8038038091620000278285620006ba565b8339810190620006de565b81519061010082016001600160401b038111838210176200069f5783526000808352602092818482015281858201528160608201528160808201528160a08201528160c08201528160e08201528190825b85600882106200067a5750505081556001600160a01b039182169283156200063757600180546001600160a01b031990811686179091558551638da5cb5b60e01b8152909460049183818481855afa9081156200062d5790869186916200060b575b50163303620005f557865190630110ceef60e21b9081835284848401526024600c818501526044906b48617368696e6750726f787960a01b8286015260649487818781875afa908115620004b957908a918a91620005d3575b50168a60025416176002558a518481528787820152600c828201526b53636f72696e6750726f787960a01b8382015287818781875afa908115620004b957908a918a91620005b1575b50168a60035416176003558a518481528787820152600782820152665374616b696e6760c81b8382015287818781875afa908115620004b957908a918a916200058f575b50168a8754161786558a5184815287878201526010828201526f417373657274696f6e53746f7261676560801b8382015287818781875afa908115620004b957908a918a916200056d575b50168a60055416176005558a518481528787820152600f828201526e4964656e7469747953746f7261676560881b8382015287818781875afa908115620004b957908a918a916200054b575b50168a60065416176006558a51848152878782015260118282015270506172616d657465727353746f7261676560781b8382015287818781875afa908115620004b957908a918a9162000529575b50168a60075416176007558a518481528787820152600e828201526d50726f66696c6553746f7261676560901b8382015287818781875afa908115620004b957908a918a9162000507575b50168a60085416176008558a5184815287878201526019828201527f5365727669636541677265656d656e7453746f726167655631000000000000008382015287818781875afa908115620004b957908a918a91620004e5575b50168a60095416176009558a5184815287878201526014828201527f5368617264696e675461626c6553746f726167650000000000000000000000008382015287818781875afa908115620004b957908a918a91620004c3575b50168a600a541617600a558a518481528787820152600e828201526d5374616b696e6753746f7261676560901b8382015287818781875afa908115620004b95792600589989694938e8e8e642a37b5b2b760d91b968f988e9d9b999162000497575b501690600b541617600b55519a8b98899788528701528501528301525afa9283156200048c579262000458575b50501690600c541617600c5551614b7e9081620007008239f35b6200047c9250803d1062000484575b620004738183620006ba565b810190620006de565b38806200043e565b503d62000467565b8651903d90823e3d90fd5b620004b291508d803d106200048457620004738183620006ba565b3862000411565b8c513d8b823e3d90fd5b620004de9150893d8b116200048457620004738183620006ba565b38620003af565b620005009150893d8b116200048457620004738183620006ba565b3862000355565b620005229150893d8b116200048457620004738183620006ba565b38620002fb565b620005449150893d8b116200048457620004738183620006ba565b38620002b0565b620005669150893d8b116200048457620004738183620006ba565b3862000262565b620005889150893d8b116200048457620004738183620006ba565b3862000216565b620005aa9150893d8b116200048457620004738183620006ba565b38620001cb565b620005cc9150893d8b116200048457620004738183620006ba565b3862000187565b620005ee9150893d8b116200048457620004738183620006ba565b386200013e565b8651632980dd4b60e21b81523381840152602490fd5b620006269150853d87116200048457620004738183620006ba565b38620000e5565b88513d87823e3d90fd5b60649085519062461bcd60e51b82526004820152601960248201527f48756220416464726573732063616e6e6f7420626520307830000000000000006044820152fd5b829360019293511515908460031b60ff811b9283911b16911916179301910162000083565b634e487b7160e01b600052604160045260246000fd5b600080fd5b601f909101601f19168101906001600160401b038211908210176200069f57604052565b90816020910312620006b557516001600160a01b0381168103620006b5579056fe6080604052600436101561001257600080fd5b6000803560e01c806305b9c7eb14611ce057806306fdde0314611c8d5780630f00201614611c3057806311c94ee814611c07578063169df8d814611bc1578063365a86fc14611b9857806350d0c14414611b6f57806354fd4d5014611b2557806355a373d614611afc578063639a86a314611ad35780637522c2b114611ab55780637662966a14611a8c5780637db4ffd8146115375780637ea63c6e146114e95780638129fc1c14611021578063823e2bc714610ff857806383de896b14610fba578063aa6a00fd14610f93578063ab6fec7014610f25578063b24d3c3514610c9c578063b518a00e14610c73578063becdd59714610c42578063d210b7cf14610c19578063e1572ce6146101c3578063ee99205c1461019a578063f11abfd8146101715763f42cb0381461014657600080fd5b3461016e578060031936011261016e576008546040516001600160a01b039091168152602090f35b80fd5b503461016e578060031936011261016e576006546040516001600160a01b039091168152602090f35b503461016e578060031936011261016e576004546040516001600160a01b039091168152602090f35b503461016e57600319602036820112610b7f576001600160401b0360043511610b7f57610100906004353603011261016e57600154604051631627905560e01b81523360048201526001600160a01b0390911690602081602481855afa90811561083a578391610bfa575b5015610be2576001600160a01b036102496004803501611f06565b1615610bd057602061025f602460043501611f06565b6040516334f702db60e01b81526001600160a01b03909116600482015291829060249082905afa908115610b3e578291610bb1575b5015610b83576102ae606460043501600435600401611f32565b906102b882611eeb565b6102c56040519182611eab565b8281528360208201923685820111610b7f57847fc5d2460186f7233c927e7db2dcc703c0e500b653ca82273b7bfad8045d85a4709560209286378301015251902014610b6d5761ffff61031c60a460043501611f64565b1615610b5b576001600160601b0361033860c460043501611f73565b1615610b49576003546001600160a01b0316602060ff602461035e60043560e401611f87565b604051948593849263e12e56a760e01b84521660048301525afa908115610b3e578291610b1f575b5015610af7576103ce61039d602460043501611f06565b6103b1606460043501600435600401611f32565b906103c0608460043501611f87565b9260446004350135906149ed565b6009546007546001600160a01b03908116929116906103f160043560a401611f64565b604051630afaeebf60e31b8152602081600481885afa908115610aec578691610acd575b5061042460c460043501611f73565b9161043360e460043501611f87565b604051634731312160e11b8082526020826004818c5afa918215610ac2578a92610aa1575b50610467600435600401611f06565b604051600162dee8bd60e01b031981529091908b6020826004818f5afa928315610a72578c928294610a7f575b5060209060046040518095819382525afa8015610a725760ff92839291610a43575b50169116039060ff8211610a2f5760ff60018184160111610a2f5761051b60ff9283600181809560405160208101914283526001600160601b03199060601b1660408201524360548201526054815261050e81611e31565b51902093160116906127b5565b169116019260ff8411610a1b57863b15610a175760ff946001600160801b036001600160601b039261ffff88966040519a63131cbfbf60e21b8c5260048c01521660248a01521660448801521660648601521660848401521660a4820152838160c48183865af18015610a0c576109f9575b50600c546001600160a01b0316906105dc60206105ad6004803501611f06565b604051636eb1769f60e11b81526001600160a01b03909116600482015230602482015291829081906044820190565b0381865afa9081156109195785916109c7575b506001600160601b0361060660c460043501611f73565b16116109245761061a600435600401611f06565b6040516370a0823160e01b81526001600160a01b039091166004820152602081602481865afa9081156109195785916108e7575b506001600160601b0361066560c460043501611f73565b161161084557602090606461067e600435600401611f06565b8661068d60c460043501611f73565b956001600160601b0360405197889687956323b872dd60e01b875260018060a01b0316600487015260248601521660448401525af1801561083a5761080b575b506106dc602460043501611f06565b9060046106f0606482350182358301611f32565b90926106ff6084843501611f87565b93602061070f60a4863501611f64565b9260405195868092630afaeebf60e31b82525afa938415610800577f4b81188c3c973dd634ec0dae5b7e72f92bb03834c830739d63935923950d6f64946001600160601b03936001600160801b03928a926107cb575b5061ffff9060ff61079061077d60c460043501611f73565b966040519960c08b5260c08b0191611fcd565b991660208801524260408801521660608601521660808401521660a082015260043560440135936001600160a01b03169281900390a3604051f35b61ffff9192506107f29060203d6020116107f9575b6107ea8183611eab565b810190611f95565b9190610765565b503d6107e0565b6040513d89823e3d90fd5b61082c9060203d602011610833575b6108248183611eab565b810190611f1a565b50386106cd565b503d61081a565b6040513d85823e3d90fd5b50826020610857600435600401611f06565b6040516370a0823160e01b81526001600160a01b03909116600482015292839060249082905afa9081156108db57906108a3575b602490604051906317bf085b60e11b82526004820152fd5b506020813d6020116108d3575b816108bd60209383611eab565b810103126108ce576024905161088b565b600080fd5b3d91506108b0565b604051903d90823e3d90fd5b90506020813d602011610911575b8161090260209383611eab565b810103126108ce57513861064e565b3d91506108f5565b6040513d87823e3d90fd5b61096b84602084610939600435600401611f06565b604051636eb1769f60e11b81526001600160a01b03909116600482015230602482015293849190829081906044820190565b03915afa9081156108db5790610994575b60249060405190630aff60cd60e01b82526004820152fd5b506020813d6020116109bf575b816109ae60209383611eab565b810103126108ce576024905161097c565b3d91506109a1565b90506020813d6020116109f1575b816109e260209383611eab565b810103126108ce5751386105ef565b3d91506109d5565b610a0590939193611e62565b913861058d565b6040513d86823e3d90fd5b8880fd5b634e487b7160e01b89526011600452602489fd5b634e487b7160e01b8b52601160045260248bfd5b610a65915060203d602011610a6b575b610a5d8183611eab565b810190611fb4565b386104b6565b503d610a53565b50604051903d90823e3d90fd5b6020919450610a9a90823d8411610a6b57610a5d8183611eab565b9390610494565b610abb91925060203d602011610a6b57610a5d8183611eab565b9038610458565b6040513d8c823e3d90fd5b610ae6915060203d6020116107f9576107ea8183611eab565b38610415565b6040513d88823e3d90fd5b6024610b0760e460043501611f87565b60ff60405191633345e8a560e11b8352166004820152fd5b610b38915060203d602011610833576108248183611eab565b38610386565b6040513d84823e3d90fd5b6040516382c4a8c960e01b8152600490fd5b60405163223e71ab60e21b8152600490fd5b6040516330e90cc960e21b8152600490fd5b5080fd5b6024610b928160043501611f06565b604051630d6e49f360e11b81526001600160a01b039091166004820152fd5b610bca915060203d602011610833576108248183611eab565b38610294565b604051630c2a482760e11b8152600490fd5b6040516322d7fbbf60e11b8152336004820152602490fd5b610c13915060203d602011610833576108248183611eab565b3861022e565b503461016e578060031936011261016e576005546040516001600160a01b039091168152602090f35b503461016e57604036600319011261016e576020610c69610c61611dc4565b600435612077565b6040519015158152f35b503461016e578060031936011261016e57600b546040516001600160a01b039091168152602090f35b503461016e57610cab36611dd5565b610cb481613319565b9060018060a01b038060035416938160095416908660405195869363ce60dc6160e01b855286600486015284602460209687935afa968715610b3e578297610f06575b50610d0460608401611f87565b97856008541698604051916320e085cd60e11b835284836024816001600160481b0388169e8f60048301525afa918215610919578b938693610ee2575b50604087019a610d518c89611f32565b8a8c600b9a939a5416976024604051809a8193639d2b48ad60e01b835260048301525afa908115610b3e578b97610da69392610eb3575b50604051630168f40160e31b8152998a9788968796600488016129e5565b03915afa918215610ea8578992610e48575b50907fe1a7e1465ab7eb42ef723e017eaef81cadc2f5b2d92fc93fea184d3222854e5d94610e0082610e40946080870199610dfa610df58c611f64565b612a2f565b90614157565b610e13610e0c85611f06565b9885611f32565b610e2e610df5610e286060899c959c01611f87565b93611f64565b9260405197889701359a169886612a42565b0390a4604051f35b91508382813d8311610ea1575b610e5f8183611eab565b81010312610a17577fe1a7e1465ab7eb42ef723e017eaef81cadc2f5b2d92fc93fea184d3222854e5d94610e00610e98610e4094612365565b93505094610db8565b503d610e55565b6040513d8b823e3d90fd5b610ed4919250883d8a11610edb575b610ecc8183611eab565b810190612796565b9038610d88565b503d610ec2565b610eff9193503d8088833e610ef78183611eab565b810190612987565b9138610d41565b610f1e919750843d8611610a6b57610a5d8183611eab565b9538610cf7565b503461016e57602036600319011261016e576004356001600160401b038111610b7f57610f56903690600401611d4c565b90825b828110610f665783604051f35b8060051b82013590609e1983360301821215610f8f57610f896001928401612a7a565b01610f59565b8480fd5b503461016e57604036600319011261016e576020610c69610fb2611dc4565b600435612423565b503461016e57602036600319011261016e5760043590600882101561016e57602060ff610fe684611e06565b9190546040519260031b1c1615158152f35b503461016e578060031936011261016e57600a546040516001600160a01b039091168152602090f35b503461016e578060031936011261016e5761103a614ab2565b60018060a01b038060015416906040519183630110ceef60e21b808552602092836004870152602490600c828801526044926b48617368696e6750726f787960a01b8489015260649186898481845afa988915610aec5786996114ca575b50876001600160601b0360a01b9916896002541617600255604051828152876004820152600c858201526b53636f72696e6750726f787960a01b8682015287818581855afa801561080057899188916114ad575b5016896003541617600355604051828152876004820152600785820152665374616b696e6760c81b8682015287818581855afa80156108005789918891611490575b50168960045416176004556040518281528760048201526010858201526f417373657274696f6e53746f7261676560801b8682015287818581855afa80156108005789918891611473575b5016896005541617600555604051828152876004820152600f858201526e4964656e7469747953746f7261676560881b8682015287818581855afa80156108005789918891611456575b501689600654161760065560405182815287600482015260118582015270506172616d657465727353746f7261676560781b8682015287818581855afa80156108005789918891611439575b5016896007541617600755604051828152876004820152600e858201526d50726f66696c6553746f7261676560901b8682015287818581855afa8015610800578991889161141c575b50168960085416176008556040518281528760048201526019858201527f5365727669636541677265656d656e7453746f726167655631000000000000008682015287818581855afa801561080057899188916113ff575b5016896009541617600955604051828152876004820152601485820152735368617264696e675461626c6553746f7261676560601b8682015287818581855afa801561080057899188916113e2575b501689600a541617600a55604051828152876004820152600e858201526d5374616b696e6753746f7261676560901b8682015287818581855afa95861561080057898997642a37b5b2b760d91b9360059a916113c5575b50168b600b541617600b55604051978896879586528860048701528501528301525afa918215610919578592611398575b50501690600c541617600c55604051f35b6113b79250803d106113be575b6113af8183611eab565b810190611ecc565b3880611387565b503d6113a5565b6113dc9150893d8b116113be576113af8183611eab565b38611356565b6113f99150893d8b116113be576113af8183611eab565b386112ff565b6114169150893d8b116113be576113af8183611eab565b386112b0565b6114339150893d8b116113be576113af8183611eab565b38611258565b6114509150893d8b116113be576113af8183611eab565b3861120f565b61146d9150893d8b116113be576113af8183611eab565b386111c3565b61148a9150893d8b116113be576113af8183611eab565b38611179565b6114a79150893d8b116113be576113af8183611eab565b3861112e565b6114c49150893d8b116113be576113af8183611eab565b386110ec565b6114e2919950873d89116113be576113af8183611eab565b9738611098565b503461016e57604036600319011261016e57602435801515809103610b7f57611510614ab2565b61151b600435611e06565b819291549060031b60ff811b9283911b16911916179055604051f35b503461016e57604036600319011261016e57611551611dc4565b6009546040516310dc199160e31b815260048035908201526001600160a01b03918216929190602081602481875afa908115610919578591611a6d575b5015611a545760405163d1a640c760e01b808252600480359083015290602081602481885afa908115610aec578691611a35575b5061ffff80911690841610156119065750916020600493600754166040519485809263659621b560e01b82525afa928315610a0c5784936118d5575b5061160e63ffffffff841661233a565b9161161c6040519384611eab565b63ffffffff8416808452601f19906116339061233a565b01855b8181106118a657505060405163572943f760e01b8152600480359082015261ffff82166024820152602081604481865afa908115610aec578691611870575b506040519063223dea6d60e21b82526004820152608081602481865afa908115610aec578691611851575b506116aa846123cf565b526116b4836123cf565b506001600160481b0360406116c8856123cf565b510151166001905b63ffffffff861660ff8316108061183f575b156117b55760405161170e81611700602082019487600435876123f0565b03601f198101835282611eab565b5190206040519063223dea6d60e21b82526004820152608081602481875afa908115610800578791611786575b5061174960ff8316866123dc565b5261175760ff8216856123dc565b5063ffffffff60ff60016001600160481b0360406117778487168a6123dc565b510151169301169190506116d0565b6117a8915060803d6080116117ae575b6117a08183611eab565b810190612377565b3861173b565b503d611796565b8487604051918291602083016020845282518091526020604085019301915b8181106117e2575050500390f35b919350916020608060019286516001600160481b0381511682526001600160481b038482015116848301526001600160481b03604082015116604083015264ffffffffff60608092015116908201520194019101918493926117d4565b506001600160481b03811615156116e2565b61186a915060803d6080116117ae576117a08183611eab565b386116a0565b90506020813d60201161189e575b8161188b60209383611eab565b8101031261189a575138611675565b8580fd5b3d915061187e565b6020906040516118b581611e31565b888152888382015288604082015288606082015282828801015201611636565b6118f891935060203d6020116118ff575b6118f08183611eab565b81019061231e565b91386115fe565b503d6118e6565b604051630271c2cf60e61b815260048035908201529250602083602481875afa928315610919578593611a00575b50602090602460405180968193825260043560048301525afa928315610a0c5784936119cb575b5060206004916007541660405192838092630afaeebf60e31b82525afa908115610a0c576119a8929394916119ac575b50604051631b18d90960e31b815293849360048035908601612008565b0390fd5b6119c5915060203d6020116107f9576107ea8183611eab565b3861198b565b60049193506119f1602091823d84116119f9575b6119e98183611eab565b810190611fee565b93915061195b565b503d6119df565b9092506020813d602011611a2d575b81611a1c60209383611eab565b81010312610f8f5751916020611934565b3d9150611a0f565b611a4e915060203d6020116119f9576119e98183611eab565b386115c2565b6024604051635013c2b960e01b81526004356004820152fd5b611a86915060203d602011610833576108248183611eab565b3861158e565b503461016e578060031936011261016e576003546040516001600160a01b039091168152602090f35b503461016e57611acc611ac736611dd5565b613319565b5050604051f35b503461016e578060031936011261016e576007546040516001600160a01b039091168152602090f35b503461016e578060031936011261016e57600c546040516001600160a01b039091168152602090f35b503461016e578060031936011261016e57611b6b604051611b4581611e75565b60058152640312e302e360dc1b6020820152604051918291602083526020830190611d9f565b0390f35b503461016e578060031936011261016e576009546040516001600160a01b039091168152602090f35b503461016e578060031936011261016e576001546040516001600160a01b039091168152602090f35b503461016e57600319602036820112610b7f57600435906001600160401b038211611c035760a0908236030112610b7f57611bfe90600401612a7a565b604051f35b8280fd5b503461016e578060031936011261016e576002546040516001600160a01b039091168152602090f35b503461016e57608036600319011261016e576004356001600160a01b038082168203611c03576024359081168103611c03576064359261ffff8416840361016e576040611c818560443585876127d5565b82519182526020820152f35b503461016e578060031936011261016e57611b6b604051611cad81611e75565b60128152715365727669636541677265656d656e74563160701b6020820152604051918291602083526020830190611d9f565b503461016e57602036600319011261016e576004356001600160401b038111610b7f57611d11903690600401611d4c565b90825b828110611d215783604051f35b8060051b8201359060de1983360301821215610f8f57611d446001928401613319565b505001611d14565b9181601f840112156108ce578235916001600160401b0383116108ce576020808501948460051b0101116108ce57565b60005b838110611d8f5750506000910152565b8181015183820152602001611d7f565b90602091611db881518092818552858086019101611d7c565b601f01601f1916010190565b6024359061ffff821682036108ce57565b600319906020818301126108ce57600435916001600160401b0383116108ce578260e0920301126108ce5760040190565b906008821015611e1b57601f8260051c921690565b634e487b7160e01b600052603260045260246000fd5b608081019081106001600160401b03821117611e4c57604052565b634e487b7160e01b600052604160045260246000fd5b6001600160401b038111611e4c57604052565b604081019081106001600160401b03821117611e4c57604052565b606081019081106001600160401b03821117611e4c57604052565b90601f801991011681019081106001600160401b03821117611e4c57604052565b908160209103126108ce57516001600160a01b03811681036108ce5790565b6001600160401b038111611e4c57601f01601f191660200190565b356001600160a01b03811681036108ce5790565b908160209103126108ce575180151581036108ce5790565b903590601e19813603018212156108ce57018035906001600160401b0382116108ce576020019181360383136108ce57565b3561ffff811681036108ce5790565b356001600160601b03811681036108ce5790565b3560ff811681036108ce5790565b908160209103126108ce57516001600160801b03811681036108ce5790565b908160209103126108ce575160ff811681036108ce5790565b908060209392818452848401376000828201840152601f01601f1916010190565b908160209103126108ce575161ffff811681036108ce5790565b929361ffff6001600160801b0392969560609460808701988752602087015216604085015216910152565b6001600160801b039182809216918291169204821181151516612054570290565b634e487b7160e01b600052601160045260246000fd5b9190820180921161205457565b60095460408051630271c2cf60e61b815260048082018590526001600160a01b0393841695949193909160209182866024818b5afa958615612313576000966122e4575b50600754169084519763484a47e760e01b895281858a01528389602481845afa9889156122d9576000996122ba575b5086156122a357855163d1a640c760e01b8082528682018490529098858a602481865afa998a156122985760009a612279575b5061ffff80911699168910156122095750508451637ad65f2760e01b815293839285925082905afa9283156121ff5750859260ff926064926000926121e2575b50506121756001600160801b03948594859316612033565b1604169280156121d1576121948261218d8388612033565b168461206a565b421194856121a5575b505050505090565b6121c595506121c09392916121b991612033565b169061206a565b61206a565b4210388080808061219d565b50506121dd925061206a565b421090565b6121f89250803d10610a6b57610a5d8183611eab565b388061215d565b513d6000823e3d90fd5b898593928989868a95602483518096819382528a8a8301525afa92831561226e576119a895969760009461224f575b505051631b18d90960e31b81529586958601612008565b612266929450803d106119f9576119e98183611eab565b918780612238565b50513d6000823e3d90fd5b612291919a50863d88116119f9576119e98183611eab565b983861211d565b88513d6000823e3d90fd5b8551635013c2b960e01b8152808601839052602490fd5b6122d2919950843d86116107f9576107ea8183611eab565b97386120ea565b86513d6000823e3d90fd5b90958382813d831161230c575b6122fb8183611eab565b8101031261016e57505194386120bb565b503d6122f1565b85513d6000823e3d90fd5b908160209103126108ce575163ffffffff811681036108ce5790565b6001600160401b038111611e4c5760051b60200190565b51906001600160481b03821682036108ce57565b519064ffffffffff821682036108ce57565b908160809103126108ce576123c760606040519261239484611e31565b61239d81612351565b84526123ab60208201612351565b60208501526123bc60408201612351565b604085015201612365565b606082015290565b805115611e1b5760200190565b8051821015611e1b5760209160051b010190565b90815260f09190911b6001600160f01b031916602082015260b89190911b6001600160b81b0319166022820152602b0190565b9060018060a01b0380600954166040805191630271c2cf60e61b95868452600491818386015260209160249883878b81865afa9687156122d957600097612767575b50861561275157855163d1a640c760e01b8082528682018490529099858b8d81885afa9a8b156122985760009b612732575b5061ffff8091169a168a1015612618575050845163484a47e760e01b815284810182905298838a8281865afa998a156122d95760009a6125f5575b509083918651809481936399149f7760e01b8352888301525afa9081156125ea579160ff6064829361251d9796956000916125cd575b506001600160801b039788938492168d612033565b160416966007541684519384809263274f3ac360e21b82525afa9283156121ff575061255c60ff859460649486946000926125b0575b50501689612033565b16041693612579846121c084612572858b612033565b168661206a565b4211958661258b575b50505050505090565b6125a39650916121b96121c09594926121c094612033565b4210388080808080612582565b6125c69250803d10610a6b57610a5d8183611eab565b3880612553565b6125e49150843d8611610a6b57610a5d8183611eab565b38612508565b84513d6000823e3d90fd5b8492919a5061261090833d85116107f9576107ea8183611eab565b9990916124d2565b8a939497508698929651918252868683015287828581885afa9384156127275788926000956126f3575b50895180968193825289898301525afa9283156126e857958097918596976000956126c9575b5060075416825195868092630afaeebf60e31b82525afa93841561226e576119a89596976000956126aa57505051631b18d90960e31b81529586958601612008565b6126c1929550803d106107f9576107ea8183611eab565b928780612238565b6126e1919550823d84116119f9576119e98183611eab565b9389612668565b87513d6000823e3d90fd5b919282819692963d8311612720575b61270c8183611eab565b8101031261016e575090879151938a612642565b503d612702565b89513d6000823e3d90fd5b61274a919b50863d88116119f9576119e98183611eab565b9938612497565b8551635013c2b960e01b81528086018390528a90fd5b90968482813d831161278f575b61277e8183611eab565b8101031261016e5750519538612465565b503d612774565b908160209103126108ce57516001600160601b03811681036108ce5790565b81156127bf570690565b634e487b7160e01b600052601260045260246000fd5b9391909360018060a01b03938491826006541693604094855194859363010cf48d60e71b855216600484015282602460209687935afa91821561231357600092612948575b508697602485928751998a93849263cede992f60e01b84526004840152165afa9586156125ea57600096612917575b5082602495969760055416855196878092632111070960e01b82528b60048301525afa9485156125ea576000956128ef575b506000916128c9918551908582019261ffff60f01b9060f01b1683526001600160481b0360b81b9060b81b166022820152600b81526128b981611e75565b8551928392839251928391611d7c565b8101039060025afa156121ff57506001600160601b036128ec91166000516127b5565b90565b6128c99195509161290e600093853d8711610edb57610ecc8183611eab565b9591509161287b565b96958388813d8311612941575b61292e8183611eab565b8101031261016e57509551949582612849565b503d612924565b90918482813d8311612980575b61295f8183611eab565b8101031261016e5750869760246129768693612351565b939250509761281a565b503d612955565b6020818303126108ce578051906001600160401b0382116108ce570181601f820112156108ce5780516129b981611eeb565b926129c76040519485611eab565b818452602082840101116108ce576128ec9160208085019101611d7c565b94612a1a6001600160601b039460ff612a289581608099969c9b9c168a5216602089015260a0604089015260a0880190611d9f565b918683036060880152611fcd565b9416910152565b90600161ffff8093160191821161205457565b9361ffff9060ff612a6760609699989464ffffffffff9660808a5260808a0191611fcd565b9816602087015216604085015216910152565b612aac612a8682611f06565b612a936040840184611f32565b90612aa060608601611f87565b926020860135906149ed565b60005460ff811615806131fa575b6130565790602491600080516020614b298339815191526080612ae7612ae1828801611f64565b85612077565b156040519081526040602082015260046040820152637265713160e01b6060820152a160065460405163010cf48d60e71b81523360048201529360209185919082906001600160a01b03165afa928315612dcc57600093613018575b5060081c60ff161580612fad575b612e5457600a5460405163175a11e760e21b81526001600160481b038416600482015290602090829060249082906001600160a01b03165afa908115612dcc57600080516020614b2983398151915291608091600091612e35575b50604051901581526040602082015260046040820152633932b89960e11b6060820152a160035460095460405163ce60dc6160e01b815260048101849052916001600160a01b039081169160209184916024918391165afa918215612dcc57600092612e14575b506024612c2260608701611f87565b6008546040516320e085cd60e11b81526001600160481b03881660048201529193919260009184919082906001600160a01b03165afa918215612dcc57600092612df7575b50612c756040880188611f32565b600b54604051639d2b48ad60e01b81526001600160481b038a166004820152929691959290602090829060249082906001600160a01b03165afa8015612dcc57602096612ce292600092612dd8575b50604051630168f40160e31b815298899788968796600488016129e5565b03915afa918215612dcc578391600093612d8a575b50612d0a918391610dfa60808801611f64565b7fe1a7e1465ab7eb42ef723e017eaef81cadc2f5b2d92fc93fea184d3222854e5d6001600160481b03612d3c85611f06565b93612d85612d4d6040880188611f32565b612d5c60608a98939801611f87565b612d6860808b01611f64565b916020604051978897169b01359960018060a01b03169886612a42565b0390a4565b915091506020813d602011612dc4575b81612da760209383611eab565b810103126108ce578291612dbd612d0a92612365565b9291612cf7565b3d9150612d9a565b6040513d6000823e3d90fd5b612df0919250883d8a11610edb57610ecc8183611eab565b9038612cc4565b612e0d9192503d806000833e610ef78183611eab565b9038612c67565b612e2e91925060203d602011610a6b57610a5d8183611eab565b9038612c13565b612e4e915060203d602011610833576108248183611eab565b38612bac565b506008546040516320e085cd60e11b81526001600160481b039290921660048301819052906001600160a01b0316600083602481845afa928315612dcc57600093612f8a575b506020602491604051928380926339fb67dd60e01b82528660048301525afa8015612dcc57602491600091612f6b575b50600b54604051639d2b48ad60e01b8152600481018590529260209184919082906001600160a01b03165afa918215612dcc57600092612f4a575b50612f2f604051948594636e2310c160e01b86526004860152608060248601526084850190611d9f565b916001600160601b0380921660448501521660648301520390fd5b612f6491925060203d602011610edb57610ecc8183611eab565b9084612f05565b612f84915060203d602011610edb57610ecc8183611eab565b84612eca565b6024919350612fa56020913d806000833e610ef78183611eab565b939150612e9a565b50600a5460405163175a11e760e21b81526001600160481b038416600482015290602090829060249082906001600160a01b03165afa908115612dcc57600091612ff9575b5015612b51565b613012915060203d602011610833576108248183611eab565b38612ff2565b9092506020813d60201161304e575b8161303460209383611eab565b810103126108ce5761304760ff91612351565b9290612b43565b3d9150613027565b5060095460405163484a47e760e01b815260048101839052916001600160a01b03918216602084602481845afa908115612dcc576024946000926131d8575b5060209060405195868092630271c2cf60e61b82528660048301525afa938415612dcc576000946131a0575b506130ee60206130fa6130f4608060049798990198896121b98761ffff6001600160801b03988994611f64565b16612033565b97611f64565b956007541660405195868092637ad65f2760e01b82525afa918215612dcc578161313960649260ff613142966119a899600091613181575b5016612033565b1604168561206a565b604051632689ca7960e21b8152600481019290925261ffff909316602482015260448101939093526064830191909152426084830152819060a4820190565b61319a915060203d602011610a6b57610a5d8183611eab565b8c613132565b9293506020833d6020116131d0575b816131bc60209383611eab565b810103126108ce57915192916130ee6130c1565b3d91506131af565b60209192506131f390823d84116107f9576107ea8183611eab565b9190613095565b5061321061320a60808501611f64565b83612077565b15612aba565b906128ec949361ffff6080946001600160481b039385521660208401521660408201528160608201520190611d9f565b936001600160481b0360809461ffff60ff95612a28959a999a895216602088015216604086015260a0606086015260a0850190611d9f565b903590601e19813603018212156108ce57018035906001600160401b0382116108ce57602001918160051b360383136108ce57565b92916132be8261233a565b916132cc6040519384611eab565b829481845260208094019160051b81019283116108ce57905b8282106132f25750505050565b813581529083019083016132e5565b906001600160601b038091169182156127bf57160490565b90600061334e61332884611f06565b6133356040860186611f32565b9061334260608801611f87565b926020880135906149ed565b9160018060a01b036009541682549460ff8660201c1615806140de575b613f6c57600080516020614b29833981519152608061339461338e828501611f64565b88612423565b156040519081526040602082015260046040820152637265713560e01b6060820152a160065460405163010cf48d60e71b815233600482015290602090829060249082906001600160a01b03165afa908115610919578591613f32575b5060ff8760281c161580613e95575b613e04578061342761341460808501611f64565b6117006040519384928b602085016123f0565b6020815191012060405190635c6c1fef60e01b82526004820152602081602481875afa908115610aec578691613db8575b506080600080516020614b298339815191529164ffffffffff60405191161581526040602082015260046040820152633932b89b60e11b6060820152a16134d160206134a660808501611f64565b60405163572943f760e01b8152600481018a905261ffff909116602482015291829081906044820190565b0381875afa908115610aec578691613d86575b5060075460405163659621b560e01b815291959190602090829060049082906001600160a01b03165afa908115610800578791613d67575b5086955b604051620153f560ea1b8152600481018290526020816024818a5afa908115610ea8578991613d2d575b506001600160481b038581169116141580613d1b575b156136125761357160808601611f64565b9060405190635b3db70f60e11b825260048201526020816024818a5afa908115610ea857908a918a916135ca575b50906001916135be60ff946117006040519384926020840196876123f0565b51902097011695613520565b9150506020813d60201161360a575b816135e660209383611eab565b81010312610a17578960ff926135be613600600194612351565b929350509261359f565b3d91506135d9565b5091979096959460ff8260301c161580613d08575b613c755790600080516020614b29833981519152608060ff93604051908563ffffffff88169116101581526040602082015260046040820152637265713760e01b6060820152a161369361367a85611f06565b61368660808701611f64565b90602087013590336127d5565b92909160381c161580613c36575b613b2c576136fd600080516020614b29833981519152926080926136f86136cb60a089018961327e565b93604051602081019160c08c013583526040820152604081526136ed81611e90565b5190209336916132b3565b6140fa565b156040519081526040602082015260046040820152630e4cae2760e31b6060820152a161372982611f06565b6137366040840184611f32565b919061ffff61374760608701611f87565b9160ff61376c61375960808a01611f64565b9260405197606089526060890191611fcd565b931660208601521660408401527fe6ecae4b7152cd744b7711f430df2c51c97082e76242e59667c590f88a2b068a6001600160481b038b16938060208801359460018060a01b0316930390a4604051634089a17d60e01b815260048101869052602081602481875afa908115610919578591613b0d575b5060405163d1a640c760e01b815260048101879052602081602481885afa908115610aec578691613aee575b5061ffff8061382060808701611f64565b1691160361ffff8111613ada579061ffff61383d61384493612a2f565b1690613301565b90613881602061385660808601611f64565b604051632b275f3d60e21b8152600481018a905261ffff909116602482015291829081906044820190565b0381885afa908115610aec5763ffffffff9182918891613abb575b501691160363ffffffff8111613a75579063ffffffff6138bd921690613301565b6004546001600160a01b0316803b15610f8f5760405163a7b5dd5960e01b81526001600160481b03891660048201528581604481836001600160601b03809816968760248401525af18015610aec57613aa8575b50604051634089a17d60e01b815260048101879052602081602481885afa908115610aec579083918791613a89575b50160390808211613a7557833b15610f8f5760405163e54b26ff60e01b81526004810187905291166024820152838160448183875af18015610a0c57908491613a61575b505061399260808201611f64565b823b15613a5d5760405163beca40f360e01b81526004810186905261ffff919091166024820152838160448183875af18015610a0c57908491613a49575b505060806139de9101611f64565b6040516139f58161170089602083019589876123f0565b519020813b15611c03578291604483926040519485938492631eb18b8b60e11b845260048401528160248401525af18015610b3e57613a35575b50509190565b613a3f8291611e62565b61016e5780613a2f565b613a5290611e62565b611c035782386139d0565b8380fd5b613a6a90611e62565b611c03578238613984565b634e487b7160e01b85526011600452602485fd5b613aa2915060203d602011610edb57610ecc8183611eab565b38613940565b613ab490959195611e62565b9338613911565b613ad4915060203d6020116118ff576118f08183611eab565b3861389c565b634e487b7160e01b86526011600452602486fd5b613b07915060203d6020116119f9576119e98183611eab565b3861380f565b613b26915060203d602011610edb57610ecc8183611eab565b386137e3565b858792858b936001600160481b03613b4660808401611f64565b6008546040516320e085cd60e11b8152929097166004830181905290968690839060249082906001600160a01b03165afa918215610aec5791613bd09161ffff938892613c1a575b50613b9c60a087018761327e565b9490996040519b635926ff1b60e11b8d5260048d01521660248b015260448a015261010060648a0152610104890190611d9f565b878103600319016084890152818152946001600160fb1b03821161016e5750869492602096949260c09260051b80968987013760a4870152013560c485015260e484015201030190fd5b613c2f9192503d808a833e610ef78183611eab565b908a613b8e565b50613c6f6136f882613c4b60a088018861327e565b9290604051602081019060c08b01358252886040820152604081526136ed81611e90565b156136a1565b888787926024613c8760808901611f64565b6008546040516320e085cd60e11b81526001600160481b038716600482015291959192879184919082906001600160a01b03165afa918215610aec57866119a895969793613ceb575b50506040516311168fa360e01b815295869560048701613246565b613d009293503d8091833e610ef78183611eab565b908680613cd0565b5063ffffffff831660ff82161015613627565b5063ffffffff821660ff881610613560565b90506020813d602011613d5f575b81613d4860209383611eab565b81010312610a1757613d5990612351565b3861354a565b3d9150613d3b565b613d80915060203d6020116118ff576118f08183611eab565b3861351c565b90506020813d602011613db0575b81613da160209383611eab565b8101031261189a5751386134e4565b3d9150613d94565b90506020813d602011613dfc575b81613dd360209383611eab565b8101031261189a576080613df5600080516020614b2983398151915292612365565b9150613458565b3d9150613dc6565b856024613e146080889501611f64565b6008546040516320e085cd60e11b81526001600160481b038616600482015291949192869184919082906001600160a01b03165afa91821561091957856119a894959693613e78575b50506040516305e3db5760e31b815294859460048601613216565b613e8d9293503d8091833e610ef78183611eab565b908580613e5d565b50613ea260808301611f64565b604051613eb9816117008560208301958c876123f0565b51902060405190635c6c1fef60e01b82526004820152602081602481875afa8015610aec578690613ef4575b64ffffffffff91501615613400565b506020813d602011613f2a575b81613f0e60209383611eab565b8101031261189a57613f2564ffffffffff91612365565b613ee5565b3d9150613f01565b90506020813d602011613f64575b81613f4d60209383611eab565b81010312610f8f57613f5e90612351565b386133f1565b3d9150613f40565b8484916040519363484a47e760e01b8552826004860152602085602481845afa948515610a0c5784956140b7575b5090602060249260405193848092630271c2cf60e61b82528760048301525afa918215610a0c578492614082575b5060800193613ff3613fed6001600160801b0393846121b98561ffff6130ee8c611f64565b95611f64565b600754604051637ad65f2760e01b815291959190602090829060049082906001600160a01b03165afa9182156108db57936131396140439460ff83956064956119a89a9991613181575016612033565b60405163d28d7f1f60e01b8152600481019290925261ffff909316602482015260448101939093526064830191909152426084830152819060a4820190565b9091506020813d6020116140af575b8161409e60209383611eab565b81010312613a5d5751906080613fc8565b3d9150614091565b6024929195506140d5602091823d84116107f9576107ea8183611eab565b95919250613f9a565b506140f46140ee60808301611f64565b86612423565b1561336b565b90926000925b825184101561414e5761411384846123dc565b519060008282101561413f575060005260205260406000205b9260001981146120545760010192614100565b9060409282526020522061412c565b91509291501490565b909293919360009360018060a01b0360095416936040516020810190614183816117008b878a876123f0565b51902086549760ff8960101c16158061486d575b6147ed5760405163c45d174960e01b8152600481018390526020816024818b5afa908115610ea857600080516020614b29833981519152916080918b916147ce575b5060405190151581526040602082015260046040820152637265713360e01b6060820152a160405163572943f760e01b81526004810187905261ffff85166024820152946020866044818b5afa958615610ea857899661479a575b50600754604051635b3db70f60e11b8152600481018890526001600160a01b039091169691906020816024818d5afa908115614631578b91614753575b5090602060049392986040519485809263659621b560e01b82525afa928315614631578b93614732575b5090968a975b604051635c6c1fef60e01b8152600481018290526020816024818f5afa908115614727578d916146e9575b5064ffffffffff80911690841610806146d7575b806146c5575b1561439657506117006143068a926040519283918b6020840196876123f0565b519020604051635b3db70f60e11b8152600481018290529091906020816024818e5afa90811561438b578c91614348575b50600160ff919901169790916142a1565b90506020813d602011614383575b8161436360209383611eab565b8101031261437f57600161437860ff92612351565b9150614337565b8b80fd5b3d9150614356565b6040513d8e823e3d90fd5b93959b60ff9150999896979192949960181c1615806146b2575b61464f57608060ff600080516020614b2983398151915292169463ffffffff604051911686101581526040602082015260046040820152631c995c4d60e21b6060820152a1863b15610a175786906040519363cf57ca2f60e01b85528960048601526001600160481b039485871660248201528b60448201528b60648201528b8160a4818364ffffffffff809816988960848401525af1801561438b5761463c575b506040519363223dea6d60e21b855260048501526080846024818c5afa938415614631578b94614611575b50158080614606575b156144f257505050505050823b15610f8f5760405163447b6fab60e11b8152600481019190915261ffff919091166024820152604481019290925282908290606490829084905af18015610b3e576144de575b50505b565b6144e88291611e62565b61016e57806144d9565b999a99949895979395929480806145f6575b1561451c5750505050506144dc9596505116916148be565b979897806145e7575b156145a45750508890823b15610b7f5760405163447b6fab60e11b81526004810189905261ffff871660248201526044810191909152918290606490829084905af1801561459957614581575b506144dc9596505116926148be565b61458b8891611e62565b6145955786614572565b8680fd5b6040513d8a823e3d90fd5b9250928098995060609150015116106000146145d857846145d0848360206144dc9901511685886148be565b5116926148be565b6144dc949392935116916148be565b50806060860151168211614525565b5081606087015116831115614504565b508484511615614486565b61462a91945060803d81116117ae576117a08183611eab565b923861447d565b6040513d8d823e3d90fd5b614648909b919b611e62565b9938614452565b86868b926024888560018060a01b0360085416604051938480926320e085cd60e11b82526001600160481b03861660048301525afa918215610aec57866119a895969793613ceb5750506040516311168fa360e01b815295869560048701613246565b5063ffffffff841660ff821610156143b0565b5063ffffffff841660ff8a16106142e6565b506001600160481b03821615156142e0565b90506020813d60201161471f575b8161470460209383611eab565b8101031261471b5761471590612365565b386142cc565b8c80fd5b3d91506146f7565b6040513d8f823e3d90fd5b61474c91935060203d6020116118ff576118f08183611eab565b913861429b565b90506020813d602011614792575b8161476e60209383611eab565b8101031261478e5790602061478560049493612351565b91929350614271565b8a80fd5b3d9150614761565b9095506020813d6020116147c6575b816147b660209383611eab565b81010312610a1757519438614234565b3d91506147a9565b6147e7915060203d602011610833576108248183611eab565b386141d9565b838660248a938460018060a01b0360085416604051938480926320e085cd60e11b82526001600160481b03861660048301525afa91821561091957856119a894959693614850575b5050604051631f5a1aa960e11b815294859460048601613216565b6148659293503d8091833e610ef78183611eab565b908580614835565b5060405163c45d174960e01b8152600481018390526020816024818b5afa908115610ea857899161489f575b50614197565b6148b8915060203d602011610833576108248183611eab565b38614899565b600954604080516000969195946001600160a01b03909316939260208201826148e9888488856123f0565b03926148fd601f1994858101835282611eab565b519020853b15610a17578751638a0f01b560e01b815260048101919091526001600160481b03841660248201528881604481838a5af180156149e3576149cc575b50906149639161495788519485926020840197886123f0565b03908101835282611eab565b519020813b15610f8f578351631c30973d60e31b815260048101919091526001600160481b0392909216602483015290919083908390604490829084905af19081156149c357506149b2575050565b6149bc8291611e62565b61016e5750565b513d84823e3d90fd5b976149db614963939299611e62565b97909161493e565b88513d8b823e3d90fd5b614a6e94614a43605460ff936020979695968060018060a01b036002541697604051998a946001600160601b03199060601b168c8601526034850152848401378101600083820152036034810187520185611eab565b604051958694859384936345ed59e560e01b8552166004840152604060248401526044830190611d9f565b03915afa908115612dcc57600091614a84575090565b906020823d8211614aaa575b81614a9d60209383611eab565b8101031261016e57505190565b3d9150614a90565b600154604051638da5cb5b60e01b81526001600160a01b03916020908290600490829086165afa908115612dcc57600091614b0a575b50163303614af257565b604051632980dd4b60e21b8152336004820152602490fd5b614b22915060203d81116113be576113af8183611eab565b38614ae856fe016e1e1566f4e4051f44e151b6ee2104d817d8b587cea6447703c0e6547acbc6a2646970667358221220bd009eceb88f5945715112709d915bbc64e8a77b2df0bc070f754ed1ea061c7364736f6c63430008100033",
  "immutableReferences": {},
  "source": "// SPDX-License-Identifier: MIT\n\npragma solidity ^0.8.4;\n\nimport {HashingProxy} from \"./HashingProxy.sol\";\nimport {Hub} from \"./Hub.sol\";\nimport {ScoringProxy} from \"./ScoringProxy.sol\";\nimport {Staking} from \"./Staking.sol\";\nimport {AbstractAsset} from \"./assets/AbstractAsset.sol\";\nimport {AssertionStorage} from \"./storage/AssertionStorage.sol\";\nimport {IdentityStorage} from \"./storage/IdentityStorage.sol\";\nimport {ParametersStorage} from \"./storage/ParametersStorage.sol\";\nimport {ProfileStorage} from \"./storage/ProfileStorage.sol\";\nimport {ServiceAgreementStorageV1} from \"./storage/ServiceAgreementStorageV1.sol\";\nimport {ShardingTableStorage} from \"./storage/ShardingTableStorage.sol\";\nimport {StakingStorage} from \"./storage/StakingStorage.sol\";\nimport {Named} from \"./interface/Named.sol\";\nimport {Versioned} from \"./interface/Versioned.sol\";\nimport {ServiceAgreementStructsV1} from \"./structs/ServiceAgreementStructsV1.sol\";\nimport {GeneralErrors} from \"./errors/GeneralErrors.sol\";\nimport {ServiceAgreementErrorsV1} from \"./errors/ServiceAgreementErrorsV1.sol\";\nimport {IERC20} from \"@openzeppelin/contracts/token/ERC20/IERC20.sol\";\nimport {MerkleProof} from \"@openzeppelin/contracts/utils/cryptography/MerkleProof.sol\";\n\ncontract ServiceAgreementV1 is Named, Versioned {\n    event ServiceAgreementV1Created(\n        address indexed assetContract,\n        uint256 indexed tokenId,\n        bytes keyword,\n        uint8 hashFunctionId,\n        uint256 startTime,\n        uint16 epochsNumber,\n        uint128 epochLength,\n        uint96 tokenAmount\n    );\n    event ServiceAgreementV1Updated(\n        address indexed assetContract,\n        uint256 indexed tokenId,\n        bytes keyword,\n        uint8 hashFunctionId,\n        uint16 epochsNumber,\n        uint96 tokenAmount\n    );\n    event ServiceAgreementV1Terminated(\n        address indexed assetContract,\n        uint256 indexed tokenId,\n        bytes keyword,\n        uint8 hashFunctionId\n    );\n    event ServiceAgreementV1Extended(\n        address indexed assetContract,\n        uint256 indexed tokenId,\n        bytes keyword,\n        uint8 hashFunctionId,\n        uint16 epochsNumber\n    );\n    event ServiceAgreementV1RewardRaised(\n        address indexed assetContract,\n        uint256 indexed tokenId,\n        bytes keyword,\n        uint8 hashFunctionId,\n        uint96 tokenAmount\n    );\n    event CommitSubmitted(\n        address indexed assetContract,\n        uint256 indexed tokenId,\n        bytes keyword,\n        uint8 hashFunctionId,\n        uint16 epoch,\n        uint72 indexed identityId,\n        uint40 score\n    );\n    event ProofSubmitted(\n        address indexed assetContract,\n        uint256 indexed tokenId,\n        bytes keyword,\n        uint8 hashFunctionId,\n        uint16 epoch,\n        uint72 indexed identityId\n    );\n    event Logger(bool value, string message);\n\n    string private constant _NAME = \"ServiceAgreementV1\";\n    string private constant _VERSION = \"1.0.0\";\n\n    bool[8] public reqs = [false, false, false, false, false, false, false, false];\n\n    Hub public hub;\n    HashingProxy public hashingProxy;\n    ScoringProxy public scoringProxy;\n    Staking public stakingContract;\n    AssertionStorage public assertionStorage;\n    IdentityStorage public identityStorage;\n    ParametersStorage public parametersStorage;\n    ProfileStorage public profileStorage;\n    ServiceAgreementStorageV1 public serviceAgreementStorageV1;\n    ShardingTableStorage public shardingTableStorage;\n    StakingStorage public stakingStorage;\n    IERC20 public tokenContract;\n\n    constructor(address hubAddress) {\n        require(hubAddress != address(0), \"Hub Address cannot be 0x0\");\n\n        hub = Hub(hubAddress);\n        initialize();\n    }\n\n    modifier onlyHubOwner() {\n        _checkHubOwner();\n        _;\n    }\n\n    modifier onlyContracts() {\n        _checkHub();\n        _;\n    }\n\n    function initialize() public onlyHubOwner {\n        hashingProxy = HashingProxy(hub.getContractAddress(\"HashingProxy\"));\n        scoringProxy = ScoringProxy(hub.getContractAddress(\"ScoringProxy\"));\n        stakingContract = Staking(hub.getContractAddress(\"Staking\"));\n        assertionStorage = AssertionStorage(hub.getContractAddress(\"AssertionStorage\"));\n        identityStorage = IdentityStorage(hub.getContractAddress(\"IdentityStorage\"));\n        parametersStorage = ParametersStorage(hub.getContractAddress(\"ParametersStorage\"));\n        profileStorage = ProfileStorage(hub.getContractAddress(\"ProfileStorage\"));\n        serviceAgreementStorageV1 = ServiceAgreementStorageV1(hub.getContractAddress(\"ServiceAgreementStorageV1\"));\n        shardingTableStorage = ShardingTableStorage(hub.getContractAddress(\"ShardingTableStorage\"));\n        stakingStorage = StakingStorage(hub.getContractAddress(\"StakingStorage\"));\n        tokenContract = IERC20(hub.getContractAddress(\"Token\"));\n    }\n\n    function name() external pure virtual override returns (string memory) {\n        return _NAME;\n    }\n\n    function version() external pure virtual override returns (string memory) {\n        return _VERSION;\n    }\n\n    function createServiceAgreement(\n        ServiceAgreementStructsV1.ServiceAgreementInputArgs calldata args\n    ) external onlyContracts {\n        if (args.assetCreator == address(0x0)) revert ServiceAgreementErrorsV1.EmptyAssetCreatorAddress();\n        if (!hub.isAssetStorage(args.assetContract))\n            revert ServiceAgreementErrorsV1.AssetStorgeNotInTheHub(args.assetContract);\n        if (keccak256(args.keyword) == keccak256(\"\")) revert ServiceAgreementErrorsV1.EmptyKeyword();\n        if (args.epochsNumber == 0) revert ServiceAgreementErrorsV1.ZeroEpochsNumber();\n        if (args.tokenAmount == 0) revert ServiceAgreementErrorsV1.ZeroTokenAmount();\n        if (!scoringProxy.isScoreFunction(args.scoreFunctionId))\n            revert ServiceAgreementErrorsV1.ScoreFunctionDoesntExist(args.scoreFunctionId);\n\n        bytes32 agreementId = _generateAgreementId(args.assetContract, args.tokenId, args.keyword, args.hashFunctionId);\n\n        ServiceAgreementStorageV1 sasV1 = serviceAgreementStorageV1;\n        ParametersStorage params = parametersStorage;\n\n        sasV1.createServiceAgreementObject(\n            agreementId,\n            args.epochsNumber,\n            params.epochLength(),\n            args.tokenAmount,\n            args.scoreFunctionId,\n            params.minProofWindowOffsetPerc() +\n                _generatePseudorandomUint8(\n                    args.assetCreator,\n                    params.maxProofWindowOffsetPerc() - params.minProofWindowOffsetPerc() + 1\n                )\n        );\n\n        IERC20 tknc = tokenContract;\n        if (tknc.allowance(args.assetCreator, address(this)) < args.tokenAmount)\n            revert ServiceAgreementErrorsV1.TooLowAllowance(tknc.allowance(args.assetCreator, address(this)));\n        if (tknc.balanceOf(args.assetCreator) < args.tokenAmount)\n            revert ServiceAgreementErrorsV1.TooLowBalance(tknc.balanceOf(args.assetCreator));\n\n        tknc.transferFrom(args.assetCreator, address(sasV1), args.tokenAmount);\n\n        emit ServiceAgreementV1Created(\n            args.assetContract,\n            args.tokenId,\n            args.keyword,\n            args.hashFunctionId,\n            block.timestamp,\n            args.epochsNumber,\n            params.epochLength(),\n            args.tokenAmount\n        );\n    }\n\n    // function updateAgreement(\n    //     address assetOwner,\n    //     address assetContract,\n    //     uint256 tokenId,\n    //     bytes calldata keyword,\n    //     uint8 hashFunctionId,\n    //     uint96 tokenAmount\n    // ) external onlyContracts {\n    //     if (assetOwner == address(0x0)) revert ServiceAgreementErrorsV1.EmptyAssetCreatorAddress();\n    //     if (!hub.isAssetStorage(assetContract)) revert ServiceAgreementErrorsV1.AssetStorgeNotInTheHub(assetContract);\n    //     if (keccak256(keyword) == keccak256(\"\")) revert ServiceAgreementErrorsV1.EmptyKeyword();\n    //     if (tokenAmount == 0) revert ServiceAgreementErrorsV1.ZeroTokenAmount();\n\n    //     bytes32 agreementId = _generateAgreementId(assetContract, tokenId, keyword, hashFunctionId);\n\n    //     ServiceAgreementStorageV1 sasV1 = serviceAgreementStorageV1;\n\n    //     uint16 epochsNumber;\n    //     uint128 epochLength;\n    //     uint96 agreementBalance;\n    //     uint8[2] memory uint8Params;\n    //     (, epochsNumber, epochLength, agreementBalance, uint8Params) = sasV1.getAgreementData(agreementId);\n\n    //     sasV1.deleteServiceAgreementObject(agreementId);\n    //     sasV1.createServiceAgreementObject(\n    //         agreementId,\n    //         epochsNumber,\n    //         epochLength,\n    //         agreementBalance,\n    //         uint8Params[0],\n    //         uint8Params[1]\n    //     );\n\n    //     _addTokens(assetOwner, agreementId, tokenAmount);\n\n    //     emit ServiceAgreementV1Updated(assetContract, tokenId, keyword, hashFunctionId, epochsNumber, tokenAmount);\n    // }\n\n    // function terminateAgreement(\n    //     address assetOwner,\n    //     address assetContract,\n    //     uint256 tokenId,\n    //     bytes calldata keyword,\n    //     uint8 hashFunctionId\n    // ) external onlyContracts {\n    //     if (assetOwner == address(0x0)) revert ServiceAgreementErrorsV1.EmptyAssetCreatorAddress();\n    //     if (!hub.isAssetStorage(assetContract)) revert ServiceAgreementErrorsV1.AssetStorgeNotInTheHub(assetContract);\n    //     if (keccak256(keyword) == keccak256(\"\")) revert ServiceAgreementErrorsV1.EmptyKeyword();\n\n    //     bytes32 agreementId = _generateAgreementId(assetContract, tokenId, keyword, hashFunctionId);\n\n    //     ServiceAgreementStorageV1 sasV1 = serviceAgreementStorageV1;\n\n    //     uint96 agreementBalance = sasV1.getAgreementTokenAmount(agreementId);\n    //     sasV1.deleteServiceAgreementObject(agreementId);\n    //     sasV1.transferAgreementTokens(assetOwner, agreementBalance);\n\n    //     emit ServiceAgreementV1Terminated(assetContract, tokenId, keyword, hashFunctionId);\n    // }\n\n    // function extendStoringPeriod(\n    //     address assetOwner,\n    //     address assetContract,\n    //     uint256 tokenId,\n    //     bytes calldata keyword,\n    //     uint8 hashFunctionId,\n    //     uint16 epochsNumber,\n    //     uint96 tokenAmount\n    // ) external onlyContracts {\n    //     if (assetOwner == address(0x0)) revert ServiceAgreementErrorsV1.EmptyAssetCreatorAddress();\n    //     if (!hub.isAssetStorage(assetContract)) revert ServiceAgreementErrorsV1.AssetStorgeNotInTheHub(assetContract);\n    //     if (keccak256(keyword) == keccak256(\"\")) revert ServiceAgreementErrorsV1.EmptyKeyword();\n    //     if (epochsNumber == 0) revert ServiceAgreementErrorsV1.ZeroEpochsNumber();\n    //     if (tokenAmount == 0) revert ServiceAgreementErrorsV1.ZeroTokenAmount();\n\n    //     bytes32 agreementId = _generateAgreementId(assetContract, tokenId, keyword, hashFunctionId);\n\n    //     ServiceAgreementStorageV1 sasV1 = serviceAgreementStorageV1;\n    //     sasV1.setAgreementEpochsNumber(agreementId, sasV1.getAgreementEpochsNumber(agreementId) + epochsNumber);\n    //     _addTokens(assetOwner, agreementId, tokenAmount);\n\n    //     emit ServiceAgreementV1Extended(assetContract, tokenId, keyword, hashFunctionId, epochsNumber);\n    // }\n\n    // function addTokens(\n    //     address assetOwner,\n    //     address assetContract,\n    //     uint256 tokenId,\n    //     bytes calldata keyword,\n    //     uint8 hashFunctionId,\n    //     uint96 tokenAmount\n    // ) external onlyContracts {\n    //     if (assetOwner == address(0x0)) revert ServiceAgreementErrorsV1.EmptyAssetCreatorAddress();\n    //     if (!hub.isAssetStorage(assetContract)) revert ServiceAgreementErrorsV1.AssetStorgeNotInTheHub(assetContract);\n    //     if (keccak256(keyword) == keccak256(\"\")) revert ServiceAgreementErrorsV1.EmptyKeyword();\n    //     if (tokenAmount == 0) revert ServiceAgreementErrorsV1.ZeroTokenAmount();\n\n    //     bytes32 agreementId = _generateAgreementId(assetContract, tokenId, keyword, hashFunctionId);\n\n    //     _addTokens(assetOwner, agreementId, tokenAmount);\n\n    //     emit ServiceAgreementV1RewardRaised(assetContract, tokenId, keyword, hashFunctionId, tokenAmount);\n    // }\n\n    function isCommitWindowOpen(bytes32 agreementId, uint16 epoch) public view returns (bool) {\n        ServiceAgreementStorageV1 sasV1 = serviceAgreementStorageV1;\n        uint256 startTime = sasV1.getAgreementStartTime(agreementId);\n\n        ParametersStorage params = parametersStorage;\n        uint128 epochLength = sasV1.getAgreementEpochLength(agreementId);\n\n        if (startTime == 0) revert ServiceAgreementErrorsV1.ServiceAgreementDoesntExist(agreementId);\n        if (epoch >= sasV1.getAgreementEpochsNumber(agreementId))\n            revert ServiceAgreementErrorsV1.ServiceAgreementHasBeenExpired(\n                agreementId,\n                startTime,\n                sasV1.getAgreementEpochsNumber(agreementId),\n                epochLength\n            );\n\n        uint256 timeNow = block.timestamp;\n        uint256 commitWindowDuration = (params.commitWindowDurationPerc() * epochLength) / 100;\n\n        if (epoch == 0) {\n            return timeNow < (startTime + commitWindowDuration);\n        }\n\n        return (timeNow > (startTime + epochLength * epoch) &&\n            timeNow < (startTime + epochLength * epoch + commitWindowDuration));\n    }\n\n    function getTopCommitSubmissions(\n        bytes32 agreementId,\n        uint16 epoch\n    ) external view returns (ServiceAgreementStructsV1.CommitSubmission[] memory) {\n        ServiceAgreementStorageV1 sasV1 = serviceAgreementStorageV1;\n\n        if (!sasV1.serviceAgreementExists(agreementId))\n            revert ServiceAgreementErrorsV1.ServiceAgreementDoesntExist(agreementId);\n        if (epoch >= sasV1.getAgreementEpochsNumber(agreementId))\n            revert ServiceAgreementErrorsV1.ServiceAgreementHasBeenExpired(\n                agreementId,\n                sasV1.getAgreementStartTime(agreementId),\n                sasV1.getAgreementEpochsNumber(agreementId),\n                parametersStorage.epochLength()\n            );\n\n        uint32 r0 = parametersStorage.r0();\n\n        ServiceAgreementStructsV1.CommitSubmission[]\n            memory epochCommits = new ServiceAgreementStructsV1.CommitSubmission[](r0);\n\n        bytes32 epochSubmissionsHead = sasV1.getAgreementEpochSubmissionHead(agreementId, epoch);\n\n        epochCommits[0] = sasV1.getCommitSubmission(epochSubmissionsHead);\n\n        bytes32 commitId;\n        uint72 nextIdentityId = epochCommits[0].nextIdentityId;\n        uint8 submissionsIdx = 1;\n        while ((submissionsIdx < r0) && (nextIdentityId != 0)) {\n            commitId = keccak256(abi.encodePacked(agreementId, epoch, nextIdentityId));\n            epochCommits[submissionsIdx] = sasV1.getCommitSubmission(commitId);\n\n            nextIdentityId = epochCommits[submissionsIdx].nextIdentityId;\n\n            unchecked {\n                submissionsIdx++;\n            }\n        }\n\n        return epochCommits;\n    }\n\n    function submitCommit(ServiceAgreementStructsV1.CommitInputArgs calldata args) external {\n        _submitCommit(args);\n    }\n\n    function bulkSubmitCommit(ServiceAgreementStructsV1.CommitInputArgs[] calldata argsArray) external {\n        uint256 commitsNumber = argsArray.length;\n\n        for (uint256 i; i < commitsNumber; ) {\n            _submitCommit(argsArray[i]);\n            unchecked {\n                i++;\n            }\n        }\n    }\n\n    function isProofWindowOpen(bytes32 agreementId, uint16 epoch) public view returns (bool) {\n        ServiceAgreementStorageV1 sasV1 = serviceAgreementStorageV1;\n        uint256 startTime = sasV1.getAgreementStartTime(agreementId);\n\n        if (startTime == 0) revert ServiceAgreementErrorsV1.ServiceAgreementDoesntExist(agreementId);\n        if (epoch >= sasV1.getAgreementEpochsNumber(agreementId))\n            revert ServiceAgreementErrorsV1.ServiceAgreementHasBeenExpired(\n                agreementId,\n                sasV1.getAgreementStartTime(agreementId),\n                sasV1.getAgreementEpochsNumber(agreementId),\n                parametersStorage.epochLength()\n            );\n\n        uint256 timeNow = block.timestamp;\n        uint128 epochLength = sasV1.getAgreementEpochLength(agreementId);\n        uint8 proofWindowOffsetPerc = sasV1.getAgreementProofWindowOffsetPerc(agreementId);\n\n        uint256 proofWindowOffset = (epochLength * proofWindowOffsetPerc) / 100;\n        uint256 proofWindowDuration = (epochLength * parametersStorage.proofWindowDurationPerc()) / 100;\n\n        return (timeNow > (startTime + epochLength * epoch + proofWindowOffset) &&\n            timeNow < (startTime + epochLength * epoch + proofWindowOffset + proofWindowDuration));\n    }\n\n    function getChallenge(\n        address sender,\n        address assetContract,\n        uint256 tokenId,\n        uint16 epoch\n    ) public view returns (bytes32, uint256) {\n        uint72 identityId = identityStorage.getIdentityId(sender);\n\n        AbstractAsset generalAssetInterface = AbstractAsset(assetContract);\n        bytes32 assertionId = generalAssetInterface.getLatestAssertionId(tokenId);\n\n        uint256 assertionChunksNumber = assertionStorage.getAssertionChunksNumber(assertionId);\n\n        // blockchash() function only works for last 256 blocks (25.6 min window in case of 6s block time)\n        // TODO: figure out how to achieve randomness\n        return (assertionId, uint256(sha256(abi.encodePacked(epoch, identityId))) % assertionChunksNumber);\n    }\n\n    function sendProof(ServiceAgreementStructsV1.ProofInputArgs calldata args) external {\n        _sendProof(args);\n    }\n\n    function bulkSendProof(ServiceAgreementStructsV1.ProofInputArgs[] calldata argsArray) external {\n        uint256 proofsNumber = argsArray.length;\n\n        for (uint256 i; i < proofsNumber; ) {\n            _sendProof(argsArray[i]);\n            unchecked {\n                i++;\n            }\n        }\n    }\n\n    function sendProofWithAutoCommit(ServiceAgreementStructsV1.ProofInputArgs calldata args) external {\n        bytes32 agreementId;\n        uint72 identityId;\n        (agreementId, identityId) = _sendProof(args);\n\n        uint40 score = scoringProxy.callScoreFunction(\n            serviceAgreementStorageV1.getAgreementScoreFunctionId(agreementId),\n            args.hashFunctionId,\n            profileStorage.getNodeId(identityId),\n            args.keyword,\n            stakingStorage.totalStakes(identityId)\n        );\n\n        _insertCommit(agreementId, (args.epoch + 1), identityId, 0, 0, score);\n\n        emit CommitSubmitted(\n            args.assetContract,\n            args.tokenId,\n            args.keyword,\n            args.hashFunctionId,\n            (args.epoch + 1),\n            identityId,\n            score\n        );\n    }\n\n    // function bulkSendProofWithAutoCommit(ServiceAgreementStructsV1.ProofInputArgs[] calldata argsArray) external {\n    //     uint256 proofsNumber = argsArray.length;\n\n    //     bytes32 agreementId;\n    //     uint72 identityId;\n    //     uint40 score;\n    //     for (uint256 i; i < proofsNumber; ) {\n    //         (agreementId, identityId) = _sendProof(argsArray[i]);\n\n    //         score = scoringProxy.callScoreFunction(\n    //             serviceAgreementStorageV1.getAgreementScoreFunctionId(agreementId),\n    //             argsArray[i].hashFunctionId,\n    //             profileStorage.getNodeId(identityId),\n    //             argsArray[i].keyword,\n    //             stakingStorage.totalStakes(identityId)\n    //         );\n\n    //         _insertCommit(agreementId, (argsArray[i].epoch + 1), identityId, 0, 0, score);\n\n    //         emit CommitSubmitted(\n    //             argsArray[i].assetContract,\n    //             argsArray[i].tokenId,\n    //             argsArray[i].keyword,\n    //             argsArray[i].hashFunctionId,\n    //             (argsArray[i].epoch + 1),\n    //             identityId,\n    //             score\n    //         );\n\n    //         unchecked {\n    //             i++;\n    //         }\n    //     }\n    // }\n\n    function setReq(uint256 index, bool req) external onlyHubOwner {\n        reqs[index] = req;\n    }\n\n    function _submitCommit(ServiceAgreementStructsV1.CommitInputArgs calldata args) internal virtual {\n        bytes32 agreementId = _generateAgreementId(args.assetContract, args.tokenId, args.keyword, args.hashFunctionId);\n\n        if (!reqs[0] && !isCommitWindowOpen(agreementId, args.epoch)) {\n            ServiceAgreementStorageV1 sasV1 = serviceAgreementStorageV1;\n\n            uint128 epochLength = sasV1.getAgreementEpochLength(agreementId);\n\n            uint256 actualCommitWindowStart = (sasV1.getAgreementStartTime(agreementId) + args.epoch * epochLength);\n\n            revert ServiceAgreementErrorsV1.CommitWindowClosed(\n                agreementId,\n                args.epoch,\n                actualCommitWindowStart,\n                actualCommitWindowStart + (parametersStorage.commitWindowDurationPerc() * epochLength) / 100,\n                block.timestamp\n            );\n        }\n        emit Logger(!isCommitWindowOpen(agreementId, args.epoch), \"req1\");\n\n        uint72 identityId = identityStorage.getIdentityId(msg.sender);\n\n        if (!reqs[1] && !shardingTableStorage.nodeExists(identityId)) {\n            ProfileStorage ps = profileStorage;\n\n            revert ServiceAgreementErrorsV1.NodeNotInShardingTable(\n                identityId,\n                ps.getNodeId(identityId),\n                ps.getAsk(identityId),\n                stakingStorage.totalStakes(identityId)\n            );\n        }\n        emit Logger(!shardingTableStorage.nodeExists(identityId), \"req2\");\n\n        uint40 score = scoringProxy.callScoreFunction(\n            serviceAgreementStorageV1.getAgreementScoreFunctionId(agreementId),\n            args.hashFunctionId,\n            profileStorage.getNodeId(identityId),\n            args.keyword,\n            stakingStorage.totalStakes(identityId)\n        );\n\n        _insertCommit(agreementId, args.epoch, identityId, 0, 0, score);\n\n        emit CommitSubmitted(\n            args.assetContract,\n            args.tokenId,\n            args.keyword,\n            args.hashFunctionId,\n            args.epoch,\n            identityId,\n            score\n        );\n    }\n\n    function _sendProof(\n        ServiceAgreementStructsV1.ProofInputArgs calldata args\n    ) internal virtual returns (bytes32, uint72) {\n        bytes32 agreementId = _generateAgreementId(args.assetContract, args.tokenId, args.keyword, args.hashFunctionId);\n\n        ServiceAgreementStorageV1 sasV1 = serviceAgreementStorageV1;\n\n        if (!reqs[4] && !isProofWindowOpen(agreementId, args.epoch)) {\n            uint128 epochLength = sasV1.getAgreementEpochLength(agreementId);\n\n            uint256 actualCommitWindowStart = (sasV1.getAgreementStartTime(agreementId) + args.epoch * epochLength);\n\n            revert ServiceAgreementErrorsV1.ProofWindowClosed(\n                agreementId,\n                args.epoch,\n                actualCommitWindowStart,\n                actualCommitWindowStart + (parametersStorage.commitWindowDurationPerc() * epochLength) / 100,\n                block.timestamp\n            );\n        }\n        emit Logger(!isProofWindowOpen(agreementId, args.epoch), \"req5\");\n\n        IdentityStorage ids = identityStorage;\n\n        uint72 identityId = ids.getIdentityId(msg.sender);\n\n        if (\n            !reqs[5] &&\n            (sasV1.getCommitSubmissionScore(keccak256(abi.encodePacked(agreementId, args.epoch, identityId))) == 0)\n        )\n            revert ServiceAgreementErrorsV1.NodeAlreadyRewarded(\n                agreementId,\n                args.epoch,\n                identityId,\n                profileStorage.getNodeId(identityId)\n            );\n        emit Logger(\n            sasV1.getCommitSubmissionScore(keccak256(abi.encodePacked(agreementId, args.epoch, identityId))) == 0,\n            \"req6\"\n        );\n\n        bytes32 nextCommitId = sasV1.getAgreementEpochSubmissionHead(agreementId, args.epoch);\n        uint32 r0 = parametersStorage.r0();\n        uint8 i;\n        while ((identityId != sasV1.getCommitSubmissionIdentityId(nextCommitId)) && (i < r0)) {\n            nextCommitId = keccak256(\n                abi.encodePacked(agreementId, args.epoch, sasV1.getCommitSubmissionNextIdentityId(nextCommitId))\n            );\n            unchecked {\n                i++;\n            }\n        }\n\n        if (!reqs[6] && (i >= r0))\n            revert ServiceAgreementErrorsV1.NodeNotAwarded(\n                agreementId,\n                args.epoch,\n                identityId,\n                profileStorage.getNodeId(identityId),\n                i\n            );\n        emit Logger(i >= r0, \"req7\");\n\n        bytes32 merkleRoot;\n        uint256 challenge;\n        (merkleRoot, challenge) = getChallenge(msg.sender, args.assetContract, args.tokenId, args.epoch);\n\n        if (\n            !reqs[7] &&\n            !MerkleProof.verify(args.proof, merkleRoot, keccak256(abi.encodePacked(args.chunkHash, challenge)))\n        )\n            revert ServiceAgreementErrorsV1.WrongMerkleProof(\n                agreementId,\n                args.epoch,\n                identityId,\n                profileStorage.getNodeId(identityId),\n                args.proof,\n                merkleRoot,\n                args.chunkHash,\n                challenge\n            );\n        emit Logger(\n            !MerkleProof.verify(args.proof, merkleRoot, keccak256(abi.encodePacked(args.chunkHash, challenge))),\n            \"req8\"\n        );\n\n        emit ProofSubmitted(\n            args.assetContract,\n            args.tokenId,\n            args.keyword,\n            args.hashFunctionId,\n            args.epoch,\n            identityId\n        );\n\n        uint96 reward = (sasV1.getAgreementTokenAmount(agreementId) /\n            (sasV1.getAgreementEpochsNumber(agreementId) - args.epoch + 1) /\n            (r0 - sasV1.getAgreementRewardedNodesNumber(agreementId, args.epoch)));\n\n        stakingContract.addReward(identityId, reward);\n        sasV1.setAgreementTokenAmount(agreementId, sasV1.getAgreementTokenAmount(agreementId) - reward);\n        sasV1.incrementAgreementRewardedNodesNumber(agreementId, args.epoch);\n\n        // To make sure that node already received reward\n        sasV1.setCommitSubmissionScore(keccak256(abi.encodePacked(agreementId, args.epoch, identityId)), 0);\n\n        return (agreementId, identityId);\n    }\n\n    function _insertCommit(\n        bytes32 agreementId,\n        uint16 epoch,\n        uint72 identityId,\n        uint72 prevIdentityId,\n        uint72 nextIdentityId,\n        uint40 score\n    ) internal virtual {\n        ServiceAgreementStorageV1 sasV1 = serviceAgreementStorageV1;\n\n        bytes32 commitId = keccak256(abi.encodePacked(agreementId, epoch, identityId));\n\n        if (!reqs[2] && sasV1.commitSubmissionExists(commitId))\n            revert ServiceAgreementErrorsV1.NodeAlreadySubmittedCommit(\n                agreementId,\n                epoch,\n                identityId,\n                profileStorage.getNodeId(identityId)\n            );\n        emit Logger(sasV1.commitSubmissionExists(commitId), \"req3\");\n\n        bytes32 refCommitId = sasV1.getAgreementEpochSubmissionHead(agreementId, epoch);\n\n        ParametersStorage params = parametersStorage;\n\n        uint72 refCommitNextIdentityId = sasV1.getCommitSubmissionNextIdentityId(refCommitId);\n        uint32 r0 = params.r0();\n        uint8 i;\n        while ((score < sasV1.getCommitSubmissionScore(refCommitId)) && (refCommitNextIdentityId != 0) && (i < r0)) {\n            refCommitId = keccak256(abi.encodePacked(agreementId, epoch, refCommitNextIdentityId));\n\n            refCommitNextIdentityId = sasV1.getCommitSubmissionNextIdentityId(refCommitId);\n            unchecked {\n                i++;\n            }\n        }\n\n        if (!reqs[3] && (i >= r0))\n            revert ServiceAgreementErrorsV1.NodeNotAwarded(\n                agreementId,\n                epoch,\n                identityId,\n                profileStorage.getNodeId(identityId),\n                i\n            );\n        emit Logger(i >= r0, \"req4\");\n\n        sasV1.createCommitSubmissionObject(commitId, identityId, prevIdentityId, nextIdentityId, score);\n\n        ServiceAgreementStructsV1.CommitSubmission memory refCommit = sasV1.getCommitSubmission(refCommitId);\n\n        if ((i == 0) && (refCommit.identityId == 0)) {\n            //  No head -> Setting new head\n            sasV1.setAgreementEpochSubmissionHead(agreementId, epoch, commitId);\n        } else if ((i == 0) && (score <= refCommit.score)) {\n            // There is a head with higher or equal score, add new commit on the right\n            _linkCommits(agreementId, epoch, refCommit.identityId, identityId);\n        } else if ((i == 0) && (score > refCommit.score)) {\n            // There is a head with lower score, replace the head\n            sasV1.setAgreementEpochSubmissionHead(agreementId, epoch, commitId);\n            _linkCommits(agreementId, epoch, identityId, refCommit.identityId);\n        } else if (score > refCommit.score) {\n            // [H] - head\n            // [RC] - reference commit\n            // [RC-] - commit before reference commit\n            // [RC+] - commit after reference commit\n            // [NC] - new commit\n            // [] <-> [H] <-> [X] ... [RC-] <-> [RC] <-> [RC+] ... [C] <-> []\n            // [] <-> [H] <-> [X] ... [RC-] <-(NL)-> [NC] <-(NL)-> [RC] <-> [RC+] ... [C] <-> []\n            _linkCommits(agreementId, epoch, refCommit.prevIdentityId, identityId);\n            _linkCommits(agreementId, epoch, identityId, refCommit.identityId);\n        } else {\n            // [] <-> [H] <-> [RC] <-> []\n            // [] <-> [H] <-> [RC] <-(NL)-> [NC] <-> []\n            _linkCommits(agreementId, epoch, refCommit.identityId, identityId);\n        }\n    }\n\n    function _linkCommits(\n        bytes32 agreementId,\n        uint16 epoch,\n        uint72 leftIdentityId,\n        uint72 rightIdentityId\n    ) internal virtual {\n        ServiceAgreementStorageV1 sasV1 = serviceAgreementStorageV1;\n\n        sasV1.setCommitSubmissionNextIdentityId(\n            keccak256(abi.encodePacked(agreementId, epoch, leftIdentityId)), // leftCommitId\n            rightIdentityId\n        );\n\n        sasV1.setCommitSubmissionPrevIdentityId(\n            keccak256(abi.encodePacked(agreementId, epoch, rightIdentityId)), // rightCommitId\n            leftIdentityId\n        );\n    }\n\n    // function _addTokens(address assetOwner, bytes32 agreementId, uint96 tokenAmount) internal virtual {\n    //     ServiceAgreementStorageV1 sasV1 = serviceAgreementStorageV1;\n    //     IERC20 tknc = tokenContract;\n\n    //     if (tknc.allowance(assetOwner, address(this)) < tokenAmount)\n    //         revert ServiceAgreementErrorsV1.TooLowAllowance(tknc.allowance(assetOwner, address(this)));\n    //     if (tknc.balanceOf(assetOwner) < tokenAmount)\n    //         revert ServiceAgreementErrorsV1.TooLowBalance(tknc.balanceOf(assetOwner));\n\n    //     sasV1.setAgreementTokenAmount(agreementId, sasV1.getAgreementTokenAmount(agreementId) + tokenAmount);\n    //     tknc.transferFrom(assetOwner, address(sasV1), tokenAmount);\n    // }\n\n    function _generateAgreementId(\n        address assetContract,\n        uint256 tokenId,\n        bytes calldata keyword,\n        uint8 hashFunctionId\n    ) internal view virtual returns (bytes32) {\n        return hashingProxy.callHashFunction(hashFunctionId, abi.encodePacked(assetContract, tokenId, keyword));\n    }\n\n    function _generatePseudorandomUint8(address sender, uint8 limit) internal view virtual returns (uint8) {\n        return uint8(uint256(keccak256(abi.encodePacked(block.timestamp, sender, block.number))) % limit);\n    }\n\n    function _checkHubOwner() internal view virtual {\n        if (msg.sender != hub.owner()) revert GeneralErrors.OnlyHubOwnerFunction(msg.sender);\n    }\n\n    function _checkHub() internal view virtual {\n        if (!hub.isContract(msg.sender)) revert GeneralErrors.OnlyHubContractsFunction(msg.sender);\n    }\n}\n",
  "sourcePath": "/Users/waving/Desktop/OriginTrail/dkg-evm-module/contracts/ServiceAgreementV1.sol",
  "compiler": {
    "name": "solc",
    "version": "0.8.16+commit.07a7930e.Emscripten.clang"
  },
  "schemaVersion": "3.4.10",
  "updatedAt": "2022-12-14T11:57:23.845Z",
  "devdoc": {
    "kind": "dev",
    "methods": {},
    "version": 1
  },
  "userdoc": {
    "kind": "user",
    "methods": {},
    "version": 1
  }
}