{
  "contractName": "ShardingTable",
  "abi": [
    {
      "inputs": [
        {
          "internalType": "address",
          "name": "hubAddress",
          "type": "address"
        }
      ],
      "stateMutability": "nonpayable",
      "type": "constructor"
    },
    {
      "anonymous": false,
      "inputs": [
        {
          "indexed": true,
          "internalType": "uint72",
          "name": "identityId",
          "type": "uint72"
        },
        {
          "indexed": false,
          "internalType": "bytes",
          "name": "nodeId",
          "type": "bytes"
        },
        {
          "indexed": false,
          "internalType": "uint96",
          "name": "ask",
          "type": "uint96"
        },
        {
          "indexed": false,
          "internalType": "uint96",
          "name": "stake",
          "type": "uint96"
        }
      ],
      "name": "NodeAdded",
      "type": "event"
    },
    {
      "anonymous": false,
      "inputs": [
        {
          "indexed": true,
          "internalType": "uint72",
          "name": "identityId",
          "type": "uint72"
        },
        {
          "indexed": false,
          "internalType": "bytes",
          "name": "nodeId",
          "type": "bytes"
        }
      ],
      "name": "NodeRemoved",
      "type": "event"
    },
    {
      "inputs": [],
      "name": "hub",
      "outputs": [
        {
          "internalType": "contract Hub",
          "name": "",
          "type": "address"
        }
      ],
      "stateMutability": "view",
      "type": "function"
    },
    {
      "inputs": [],
      "name": "profileStorage",
      "outputs": [
        {
          "internalType": "contract ProfileStorage",
          "name": "",
          "type": "address"
        }
      ],
      "stateMutability": "view",
      "type": "function"
    },
    {
      "inputs": [],
      "name": "shardingTableStorage",
      "outputs": [
        {
          "internalType": "contract ShardingTableStorage",
          "name": "",
          "type": "address"
        }
      ],
      "stateMutability": "view",
      "type": "function"
    },
    {
      "inputs": [],
      "name": "stakingStorage",
      "outputs": [
        {
          "internalType": "contract StakingStorage",
          "name": "",
          "type": "address"
        }
      ],
      "stateMutability": "view",
      "type": "function"
    },
    {
      "inputs": [],
      "name": "initialize",
      "outputs": [],
      "stateMutability": "nonpayable",
      "type": "function"
    },
    {
      "inputs": [],
      "name": "name",
      "outputs": [
        {
          "internalType": "string",
          "name": "",
          "type": "string"
        }
      ],
      "stateMutability": "pure",
      "type": "function"
    },
    {
      "inputs": [],
      "name": "version",
      "outputs": [
        {
          "internalType": "string",
          "name": "",
          "type": "string"
        }
      ],
      "stateMutability": "pure",
      "type": "function"
    },
    {
      "inputs": [],
      "name": "getShardingTable",
      "outputs": [
        {
          "components": [
            {
              "internalType": "bytes",
              "name": "nodeId",
              "type": "bytes"
            },
            {
              "internalType": "uint72",
              "name": "identityId",
              "type": "uint72"
            },
            {
              "internalType": "uint96",
              "name": "ask",
              "type": "uint96"
            },
            {
              "internalType": "uint96",
              "name": "stake",
              "type": "uint96"
            }
          ],
          "internalType": "struct ShardingTableStructs.NodeInfo[]",
          "name": "",
          "type": "tuple[]"
        }
      ],
      "stateMutability": "view",
      "type": "function"
    },
    {
      "inputs": [
        {
          "internalType": "uint72",
          "name": "startingIdentityId",
          "type": "uint72"
        },
        {
          "internalType": "uint72",
          "name": "nodesNumber",
          "type": "uint72"
        }
      ],
      "name": "getShardingTable",
      "outputs": [
        {
          "components": [
            {
              "internalType": "bytes",
              "name": "nodeId",
              "type": "bytes"
            },
            {
              "internalType": "uint72",
              "name": "identityId",
              "type": "uint72"
            },
            {
              "internalType": "uint96",
              "name": "ask",
              "type": "uint96"
            },
            {
              "internalType": "uint96",
              "name": "stake",
              "type": "uint96"
            }
          ],
          "internalType": "struct ShardingTableStructs.NodeInfo[]",
          "name": "",
          "type": "tuple[]"
        }
      ],
      "stateMutability": "view",
      "type": "function"
    },
    {
      "inputs": [
        {
          "internalType": "uint72",
          "name": "identityId",
          "type": "uint72"
        }
      ],
      "name": "pushBack",
      "outputs": [],
      "stateMutability": "nonpayable",
      "type": "function"
    },
    {
      "inputs": [
        {
          "internalType": "uint72",
          "name": "identityId",
          "type": "uint72"
        }
      ],
      "name": "pushFront",
      "outputs": [],
      "stateMutability": "nonpayable",
      "type": "function"
    },
    {
      "inputs": [
        {
          "internalType": "uint72",
          "name": "identityId",
          "type": "uint72"
        }
      ],
      "name": "removeNode",
      "outputs": [],
      "stateMutability": "nonpayable",
      "type": "function"
    }
  ],
  "bytecode": "0x608060409080825234620002e257620020108038038091620000228285620002e7565b83396001600160a01b039182916200003e919081019062000321565b169081156200029e57600080546001600160a01b0319908116841782558451638da5cb5b60e01b81529093906020908181600481865afa9081156200029457908591859162000272575b5016330362000230578551630110ceef60e21b80825260048201839052600e60248301526d50726f66696c6553746f7261676560901b6044830152908281606481875afa908115620002045790869186916200020e575b50168660015416176001558651818152826004820152601460248201527f5368617264696e675461626c6553746f7261676500000000000000000000000060448201528281606481875afa908115620002045783929187918791620001e2575b501687600254161760025560648851809581938252846004830152600e60248301526d5374616b696e6753746f7261676560901b60448301525afa928315620001d75792620001a3575b50501690600354161760035551611ccd9081620003438239f35b620001c79250803d10620001cf575b620001be8183620002e7565b81019062000321565b388062000189565b503d620001b2565b8651903d90823e3d90fd5b620001fd9150843d8611620001cf57620001be8183620002e7565b386200013f565b88513d87823e3d90fd5b620002299150843d8611620001cf57620001be8183620002e7565b38620000df565b60649086519062461bcd60e51b825280600483015260248201527f466e2063616e206f6e6c79206265207573656420627920687562206f776e65726044820152fd5b6200028d9150833d8511620001cf57620001be8183620002e7565b3862000088565b87513d86823e3d90fd5b825162461bcd60e51b815260206004820152601960248201527f48756220416464726573732063616e6e6f7420626520307830000000000000006044820152606490fd5b600080fd5b601f909101601f19168101906001600160401b038211908210176200030b57604052565b634e487b7160e01b600052604160045260246000fd5b90816020910312620002e257516001600160a01b0381168103620002e2579056fe608060408181526004918236101561001657600080fd5b600092833560e01c91826306fdde03146112f757508163289220c6146111f4578163365a86fc146111cc578163415942b114610df857816354fd4d5014610db35781638129fc1c14610b88578163823e2bc714610b5f57816392b7c87d146106bb578163af9c1ec61461015057508063b518a00e14610128578063e5de01f1146100d45763f42cb038146100a957600080fd5b346100d057816003193601126100d05760015490516001600160a01b039091168152602090f35b5080fd5b509034610125578160031936011261012557506100ef61142a565b90602435916001600160481b03831683036101205761011c92610111916116b5565b90519182918261138c565b0390f35b600080fd5b80fd5b50346100d057816003193601126100d05760035490516001600160a01b039091168152602090f35b9050346103c157602090816003193601126103cf5761016d61142a565b91610176611bf2565b600154845163c04d7dcf60e01b81526001600160481b03948516818501819052946001600160a01b03928316948893919260249290868185818b5afa80156104d4576101c991879161068e575b5061150f565b600254895163162929e960e01b81528381018a90529116936060828581885afa9182156104d457869261065e575b508951638f7dcfa360e01b81529187838581895afa928315610654578793610619575b508a51624f632160e61b815290888286818a5afa93841561060f57899289956105d3575b508c8185168d1480806105c8575b156104195750505050505050823b156103cf578751631bcc8f9560e31b81528181018590528481848183885af19081156103e7578591610405575b5050823b156103cf57875163406def5b60e01b81528181018590528481848183885af19081156103e75785916103f1575b50505b823b156103cf578751632e9893a160e21b81528181018890528481848183885af19081156103e75785916103d3575b5050823b156103cf57838093828a518096819363d9b6546360e01b83525af180156103c557879385916103a8575b5050875195869384926320e085cd60e11b84528301525afa90811561039e577fef12f3576561c48ba6945e9b712ac4715d1ac62879143672fcd6e3c63a19619c92869261037a575b506103748551928284938452830190611367565b0390a251f35b6103979192503d8088833e61038f81836114a2565b810190611553565b9038610360565b84513d87823e3d90fd5b6103b491929450611440565b6103c15785918338610318565b8280fd5b88513d86823e3d90fd5b8380fd5b6103dc90611440565b6103cf5783386102ea565b89513d87823e3d90fd5b6103fa90611440565b6103cf5783386102b8565b61040e90611440565b6103cf578338610287565b8686168e036104e257505050015116843b156104de5789519063406def5b60e01b8252838201528581858183895af19081156104d45786916104c0575b5050833b156104bc57885163d0f4c7cf60e01b81526001600160481b03909116828201908152600060208201528590829081906040015b038183885af19081156103e75785916104a8575b50506102bb565b6104b190611440565b6103cf5783386104a1565b8480fd5b6104c990611440565b6104bc578438610456565b8a513d88823e3d90fd5b8580fd5b91955092501561056c57015116843b156104de57895190631bcc8f9560e31b8252838201528581858183895af19081156104d4578691610558575b5050833b156104bc5788516335ab940760e11b81526001600160481b039091168282019081526000602082015285908290819060400161048d565b61056190611440565b6104bc57843861051d565b888101519101518216925016843b156104de57895163283350a560e01b81526001600160481b03918216848201908152919092166020820152859082908190604001038183885af19081156103e75785916104a85750506102bb565b508d8688161461024c565b8381949296503d8311610608575b6105eb81836114a2565b81010312610604576105fd89926114e3565b933861023e565b8780fd5b503d6105e1565b8c513d8a823e3d90fd5b9092508781813d831161064d575b61063181836114a2565b8101031261064957610642906114e3565b913861021a565b8680fd5b503d610627565b8b513d89823e3d90fd5b61068091925060603d8111610687575b61067881836114a2565b81019061160d565b90386101f7565b503d61066e565b6106ae9150883d8a116106b4575b6106a681836114a2565b8101906114f7565b386101c3565b503d61069c565b9050346103c157602090816003193601126103cf576106d861142a565b916106e1611bf2565b600154845163c04d7dcf60e01b81526001600160481b03858116858301819052956001600160a01b039460249486169390928a929184818881895afa8015610a1a57610733918591610b48575061150f565b866002541691823b156103cf578a51634e8d2def60e11b81526001600160481b038216818b019081526000602082018190526040820152859082908190606001038183885af1908115610ae8578591610b34575b50508a51638f7dcfa360e01b808252919086818c81885afa8015610b2a5784918791610af2575b5016610a38575b50508660025416803b156103cf57838a888b838f519586948593631bcc8f9560e31b85528401525af1908115610a1a578491610a24575b50508951624f632160e61b815284818a81865afa908115610a1a5784916109e5575b501615610991575b803b156100d057818091888b518094819363279d74f760e11b83525af1801561098757610973575b505086516320e085cd60e11b815285810187905288818581865afa92831561094b5784918a94610955575b5082908951928380926339fb67dd60e01b82528b8b8301525afa93841561094b5787918a9561092a575b5082939495600354169689519788938492639d2b48ad60e01b84528301525afa8015610920577f05eef2d4c7b6f7d090582906c8987ff8d9afdead95f51156c0cda2e82707afc7946103749289926108f3575b50508651938493846115de565b6109129250803d10610919575b61090a81836114a2565b8101906115bf565b38806108e6565b503d610900565b86513d89823e3d90fd5b8394955061094490843d86116109195761090a81836114a2565b9493610893565b88513d8b823e3d90fd5b8391945061096c903d808d833e61038f81836114a2565b9390610869565b61097c90611440565b61060457873861083e565b89513d84823e3d90fd5b803b156100d057885163406def5b60e01b81528781018990528281878183865af19081156109db5783916109c7575b5050610816565b6109d090611440565b6100d05781386109c0565b8a513d85823e3d90fd5b90508481813d8311610a13575b6109fc81836114a2565b810103126103cf57610a0d906114e3565b3861080e565b503d6109f2565b8b513d86823e3d90fd5b610a2d90611440565b6103c15782386107ec565b8b5191825285828b81875afa918215610ae8578592610ab1575b50833b156104bc578b5163283350a560e01b81526001600160481b03918216818c01908152919092166020820152849082908190604001038183875af1908115610a1a578491156107b557610aa690611440565b6103c15782386107b5565b9091508581813d8311610ae1575b610ac981836114a2565b810103126104bc57610ada906114e3565b9038610a52565b503d610abf565b8c513d87823e3d90fd5b809250888092503d8311610b23575b610b0b81836114a2565b810103126104de57610b1d84916114e3565b386107ae565b503d610b01565b8d513d88823e3d90fd5b610b3d90611440565b6103cf578338610787565b6106ae9150863d88116106b4576106a681836114a2565b5050346100d057816003193601126100d05760025490516001600160a01b039091168152602090f35b9050346103c157826003193601126103c15782548251638da5cb5b60e01b81526001600160a01b03916020919083169082818681855afa80156109205784918891610d96575b50163303610d55578451630110ceef60e21b808252858201849052600e60248301526d50726f66696c6553746f7261676560901b604483015290948386606481865afa958615610d4b578896610d2c575b50846001600160601b0360a01b9616866001541617600155865191808352848284015260146024840152735368617264696e675461626c6553746f7261676560601b60448401528483606481875afa90811561094b5785948760649387968d91610d0f575b5016896002541617600255895195869485938452830152600e60248301526d5374616b696e6753746f7261676560901b60448301525afa918215610d05578692610cd8575b50501690600354161760035551f35b610cf79250803d10610cfe575b610cef81836114a2565b8101906114c4565b3880610cc9565b503d610ce5565b85513d88823e3d90fd5b610d269150873d8911610cfe57610cef81836114a2565b38610c84565b610d44919650843d8611610cfe57610cef81836114a2565b9438610c1f565b87513d8a823e3d90fd5b606484838088519262461bcd60e51b845283015260248201527f466e2063616e206f6e6c79206265207573656420627920687562206f776e65726044820152fd5b610dad9150843d8611610cfe57610cef81836114a2565b38610bce565b5050346100d057816003193601126100d057805161011c91610dd482611486565b60058252640312e302e360dc1b602083015251918291602083526020830190611367565b9050346103c157602090816003193601126103cf57610e1561142a565b91610e1e611bf2565b600154845163c04d7dcf60e01b81526001600160481b03858116858301819052956001600160a01b039460249486169390929083818781885afa80156111c257610e6e918c916111ab575061150f565b856002541691823b156111a7578951634e8d2def60e11b81526001600160481b03821689820190815260006020820181905260408201528c9082908190606001038183885af1801561119d57611186575b508951624f632160e61b8082528c9493929186818c81885afa8015610b2a578491879161114e575b50166110a0575b5050813b156103c157895163406def5b60e01b81528881018a90528381888183875af1908115610a1a57849161108c575b50508951638f7dcfa360e01b815284818a81865afa908115610a1a578491611057575b50161561102257803b156100d057818091888b518094819363279d74f760e11b83525af180156109875761097357505086516320e085cd60e11b815285810187905288818581865afa92831561094b5784918a94610955575082908951928380926339fb67dd60e01b82528b8b8301525afa93841561094b5787918a9561092a575082939495600354169689519788938492639d2b48ad60e01b84528301525afa8015610920577f05eef2d4c7b6f7d090582906c8987ff8d9afdead95f51156c0cda2e82707afc7946103749289926108f35750508651938493846115de565b803b156100d0578851631bcc8f9560e31b81528781018990528281878183865af19081156109db5783916109c7575050610816565b90508481813d8311611085575b61106e81836114a2565b810103126103cf5761107f906114e3565b38610f42565b503d611064565b61109590611440565b6103c1578238610f1f565b8b5190815285818b81875afa908115610ae8578591611119575b50833b156104bc578b5163283350a560e01b81526001600160481b03918216818c01908152919092166020820152849082908190604001038183875af1908115610a1a57849115610eee5761110e90611440565b6103c1578238610eee565b90508581813d8311611147575b61113081836114a2565b810103126104bc57611141906114e3565b386110ba565b503d611126565b809250888092503d831161117f575b61116781836114a2565b810103126104de5761117984916114e3565b38610ee7565b503d61115d565b611194909b9193929b611440565b99909138610ebf565b8b513d8e823e3d90fd5b8a80fd5b6106ae9150853d87116106b4576106a681836114a2565b8a513d8d823e3d90fd5b5050346100d057816003193601126100d057905490516001600160a01b039091168152602090f35b9050346103c157826003193601126103c1576002548251638f7dcfa360e01b815293602092916001600160a01b031683868481845afa9586156112ed5782966112b5575b50839085519384809263f1a3c5b360e01b82525afa9283156112a9578193611269575b61011c8561011186896116b5565b9091809350813d83116112a2575b61128181836114a2565b81010312610125575061011c9261129a610111926114e3565b91819461125b565b503d611277565b508351903d90823e3d90fd5b9095508381813d83116112e6575b6112cd81836114a2565b810103126100d0576112df84916114e3565b9590611238565b503d6112c3565b85513d84823e3d90fd5b849084346103c157826003193601126103c15761011c925061131882611486565b600d82526c5368617264696e675461626c6560981b602083015251918291602083526020830190611367565b60005b8381106113575750506000910152565b8181015183820152602001611347565b9060209161138081518092818552858086019101611344565b601f01601f1916010190565b602080820190808352835180925260409283810182858560051b8401019601946000925b8584106113c1575050505050505090565b909192939495968580600192603f198582030187528a51906113eb82516080808452830190611367565b916001600160481b038482015116848301526001600160601b0380898301511689840152606080920151169101529901940194019295949391906113b0565b600435906001600160481b038216820361012057565b67ffffffffffffffff811161145457604052565b634e487b7160e01b600052604160045260246000fd5b6080810190811067ffffffffffffffff82111761145457604052565b6040810190811067ffffffffffffffff82111761145457604052565b90601f8019910116810190811067ffffffffffffffff82111761145457604052565b9081602091031261012057516001600160a01b03811681036101205790565b51906001600160481b038216820361012057565b90816020910312610120575180151581036101205790565b1561151657565b60405162461bcd60e51b8152602060048201526015602482015274141c9bd99a5b1948191bd95cdb89dd08195e1a5cdd605a1b6044820152606490fd5b60208183031261012057805167ffffffffffffffff9182821161012057019082601f83011215610120578151908111611454576040519261159e601f8301601f1916602001856114a2565b81845260208284010111610120576115bc9160208085019101611344565b90565b9081602091031261012057516001600160601b03811681036101205790565b916115f6604092959495606085526060850190611367565b946001600160601b03809216602085015216910152565b9081606091031261012057604051906060820182811067ffffffffffffffff8211176114545761165e916040918252611645816114e3565b8452611653602082016114e3565b6020850152016114e3565b604082015290565b67ffffffffffffffff81116114545760051b60200190565b80511561168b5760200190565b634e487b7160e01b600052603260045260246000fd5b805182101561168b5760209160051b010190565b9060018060a01b036002541660405163f1a3c5b360e01b8152602081600481855afa8015611a0757600090611bb2575b6001600160481b03915016158015611ba1575b611b995760405163162929e960e01b81526001600160481b038416600482015290606082602481845afa918215611a0757600092611b78575b506001600160481b038416158015611b65575b15611b205761175b6001600160481b038416611666565b9461176960405196876114a2565b6001600160481b038416808752601f199061178390611666565b0160005b818110611aed5750506001546003546040516320e085cd60e11b81526001600160481b03881660048201526001600160a01b039283169792909116946000826024818b5afa918215611a0757600092611ad2575b506001600160481b0381511690604051916339fb67dd60e01b835260048301526020826024818c5afa918215611a0757600092611aa8575b5051604051639d2b48ad60e01b81526001600160481b039091166004820152906020826024818a5afa908115611a07576001600160601b0392600092611a85575b508290604051946118648661146a565b85526001600160481b038616602086015216604084015216606082015261188a8861167e565b526118948761167e565b50906001915b6001600160481b0386166001600160481b0384161080611a73575b15611a6a576001600160481b036040519163162929e960e01b8352166004820152606081602481875afa908115611a07576001600160481b0391604091600091611a4b575b50015116916040516320e085cd60e11b81528360048201526000816024818b5afa908115611a0757600091611a32575b506040516339fb67dd60e01b8152600481018590526020816024818c5afa908115611a0757600091611a13575b50604051639d2b48ad60e01b815260048101869052926020846024818b5afa928315611a07576001600160601b036001600160481b03959460019487966000926119e4575b508290604051946119ac8661146a565b85528a60208601521660408401521660608201526119cc8483168d6116a1565b526119d98382168c6116a1565b50011692905061189a565b83919250611a009060203d6020116109195761090a81836114a2565b919061199c565b6040513d6000823e3d90fd5b611a2c915060203d6020116109195761090a81836114a2565b38611957565b611a45913d8091833e61038f81836114a2565b3861192a565b611a64915060603d6060116106875761067881836114a2565b386118fa565b50945050505050565b506001600160481b03811615156118b5565b83919250611aa19060203d6020116109195761090a81836114a2565b9190611854565b6001600160481b03919250611acb9060203d6020116109195761090a81836114a2565b9190611813565b611ae691923d8091833e61038f81836114a2565b90386117db565b602090604051611afc8161146a565b60608152600083820152600060408201526000606082015282828b01015201611787565b60405162461bcd60e51b815260206004820152601a60248201527f57726f6e67207374617274696e67204964656e746974792049440000000000006044820152606490fd5b506001600160481b038251161515611744565b611b9291925060603d6060116106875761067881836114a2565b9038611731565b505050606090565b506001600160481b038216156116f8565b6020823d602011611bea575b81611bcb602093836114a2565b810103126101255750611be56001600160481b03916114e3565b6116e5565b3d9150611bbe565b600054604051631627905560e01b815233600482015290602090829060249082906001600160a01b03165afa908115611a0757600091611c79575b5015611c3557565b606460405162461bcd60e51b815260206004820152602060248201527f466e2063616e206f6e6c792062652063616c6c656420627920746865206875626044820152fd5b611c91915060203d81116106b4576106a681836114a2565b38611c2d56fea26469706673582212207f958098aa6b0d3624bdc8cda52c7015ab3a8398a621da6281b3b5ac070d0c1964736f6c63430008100033",
  "immutableReferences": {},
  "source": "// SPDX-License-Identifier: MIT\n\npragma solidity ^0.8.4;\n\nimport {Hub} from \"./Hub.sol\";\nimport {ProfileStorage} from \"./storage/ProfileStorage.sol\";\nimport {ShardingTableStorage} from \"./storage/ShardingTableStorage.sol\";\nimport {StakingStorage} from \"./storage/StakingStorage.sol\";\nimport {Named} from \"./interface/Named.sol\";\nimport {Versioned} from \"./interface/Versioned.sol\";\nimport {ShardingTableStructs} from \"./structs/ShardingTableStructs.sol\";\nimport {NULL} from \"./constants/ShardingTableConstants.sol\";\n\ncontract ShardingTable is Named, Versioned {\n    event NodeAdded(uint72 indexed identityId, bytes nodeId, uint96 ask, uint96 stake);\n    event NodeRemoved(uint72 indexed identityId, bytes nodeId);\n\n    string private constant _NAME = \"ShardingTable\";\n    string private constant _VERSION = \"1.0.0\";\n\n    Hub public hub;\n    ProfileStorage public profileStorage;\n    ShardingTableStorage public shardingTableStorage;\n    StakingStorage public stakingStorage;\n\n    constructor(address hubAddress) {\n        require(hubAddress != address(0), \"Hub Address cannot be 0x0\");\n\n        hub = Hub(hubAddress);\n        initialize();\n    }\n\n    modifier onlyHubOwner() {\n        _checkHubOwner();\n        _;\n    }\n\n    modifier onlyContracts() {\n        _checkHub();\n        _;\n    }\n\n    function initialize() public onlyHubOwner {\n        profileStorage = ProfileStorage(hub.getContractAddress(\"ProfileStorage\"));\n        shardingTableStorage = ShardingTableStorage(hub.getContractAddress(\"ShardingTableStorage\"));\n        stakingStorage = StakingStorage(hub.getContractAddress(\"StakingStorage\"));\n    }\n\n    function name() external pure virtual override returns (string memory) {\n        return _NAME;\n    }\n\n    function version() external pure virtual override returns (string memory) {\n        return _VERSION;\n    }\n\n    function getShardingTable(\n        uint72 startingIdentityId,\n        uint72 nodesNumber\n    ) external view returns (ShardingTableStructs.NodeInfo[] memory) {\n        return _getShardingTable(startingIdentityId, nodesNumber);\n    }\n\n    function getShardingTable() external view returns (ShardingTableStructs.NodeInfo[] memory) {\n        ShardingTableStorage sts = shardingTableStorage;\n        return _getShardingTable(sts.head(), sts.nodesCount());\n    }\n\n    function pushBack(uint72 identityId) external onlyContracts {\n        ProfileStorage ps = profileStorage;\n        require(ps.profileExists(identityId), \"Profile doesn't exist\");\n\n        ShardingTableStorage sts = shardingTableStorage;\n\n        sts.createNodeObject(identityId, NULL, NULL);\n\n        if (sts.tail() != NULL) sts.link(sts.tail(), identityId);\n\n        sts.setTail(identityId);\n\n        if (sts.head() == NULL) sts.setHead(identityId);\n\n        sts.incrementNodesCount();\n\n        emit NodeAdded(\n            identityId,\n            ps.getNodeId(identityId),\n            ps.getAsk(identityId),\n            stakingStorage.totalStakes(identityId)\n        );\n    }\n\n    function pushFront(uint72 identityId) external onlyContracts {\n        ProfileStorage ps = profileStorage;\n        require(ps.profileExists(identityId), \"Profile doesn't exist\");\n\n        ShardingTableStorage sts = shardingTableStorage;\n\n        sts.createNodeObject(identityId, NULL, NULL);\n\n        if (sts.head() != NULL) sts.link(identityId, sts.head());\n\n        shardingTableStorage.setHead(identityId);\n\n        if (sts.tail() == NULL) sts.setTail(identityId);\n\n        sts.incrementNodesCount();\n\n        emit NodeAdded(\n            identityId,\n            ps.getNodeId(identityId),\n            ps.getAsk(identityId),\n            stakingStorage.totalStakes(identityId)\n        );\n    }\n\n    function removeNode(uint72 identityId) external onlyContracts {\n        ProfileStorage ps = profileStorage;\n        require(ps.profileExists(identityId), \"Profile doesn't exist\");\n\n        ShardingTableStorage sts = shardingTableStorage;\n\n        ShardingTableStructs.Node memory nodeToRemove = sts.getNode(identityId);\n\n        uint72 head = sts.head();\n        uint72 tail = sts.tail();\n\n        if ((head == identityId) && (tail == identityId)) {\n            sts.setHead(NULL);\n            sts.setTail(NULL);\n        } else if (tail == identityId) {\n            sts.setTail(nodeToRemove.prevIdentityId);\n            sts.setNextIdentityId(tail, NULL);\n        } else if (head == identityId) {\n            sts.setHead(nodeToRemove.nextIdentityId);\n            sts.setPrevIdentityId(head, NULL);\n        } else {\n            sts.link(nodeToRemove.prevIdentityId, nodeToRemove.nextIdentityId);\n        }\n\n        sts.deleteNodeObject(identityId);\n        sts.decrementNodesCount();\n\n        emit NodeRemoved(identityId, ps.getNodeId(identityId));\n    }\n\n    function _getShardingTable(\n        uint72 startingIdentityId,\n        uint72 nodesNumber\n    ) internal view virtual returns (ShardingTableStructs.NodeInfo[] memory) {\n        ShardingTableStructs.NodeInfo[] memory nodesPage;\n        ShardingTableStorage sts = shardingTableStorage;\n\n        if ((sts.nodesCount() == 0) || (nodesNumber == 0)) {\n            return nodesPage;\n        }\n\n        ShardingTableStructs.Node memory startingNode = sts.getNode(startingIdentityId);\n\n        require((startingIdentityId == NULL) || (startingNode.identityId != NULL), \"Wrong starting Identity ID\");\n\n        nodesPage = new ShardingTableStructs.NodeInfo[](nodesNumber);\n\n        ProfileStorage ps = profileStorage;\n        StakingStorage ss = stakingStorage;\n\n        nodesPage[0] = ShardingTableStructs.NodeInfo({\n            nodeId: ps.getNodeId(startingIdentityId),\n            identityId: startingIdentityId,\n            ask: ps.getAsk(startingNode.identityId),\n            stake: ss.totalStakes(startingNode.identityId)\n        });\n\n        uint72 nextIdentityId = startingIdentityId;\n        uint72 i = 1;\n        while ((i < nodesNumber) && (nextIdentityId != NULL)) {\n            nextIdentityId = sts.getNode(nextIdentityId).nextIdentityId;\n\n            nodesPage[i] = ShardingTableStructs.NodeInfo({\n                nodeId: ps.getNodeId(nextIdentityId),\n                identityId: nextIdentityId,\n                ask: ps.getAsk(nextIdentityId),\n                stake: ss.totalStakes(nextIdentityId)\n            });\n\n            unchecked {\n                i += 1;\n            }\n        }\n\n        return nodesPage;\n    }\n\n    function _checkHubOwner() internal view virtual {\n        require(msg.sender == hub.owner(), \"Fn can only be used by hub owner\");\n    }\n\n    function _checkHub() internal view virtual {\n        require(hub.isContract(msg.sender), \"Fn can only be called by the hub\");\n    }\n}\n",
  "sourcePath": "/Users/waving/Desktop/OriginTrail/dkg-evm-module/contracts/ShardingTable.sol",
  "compiler": {
    "name": "solc",
    "version": "0.8.16+commit.07a7930e.Emscripten.clang"
  },
  "schemaVersion": "3.4.10",
  "updatedAt": "2022-12-14T11:57:23.862Z",
  "devdoc": {
    "kind": "dev",
    "methods": {},
    "version": 1
  },
  "userdoc": {
    "kind": "user",
    "methods": {},
    "version": 1
  }
}