{
  "contractName": "Staking",
  "abi": [
    {
      "inputs": [
        {
          "internalType": "address",
          "name": "hubAddress",
          "type": "address"
        }
      ],
      "stateMutability": "nonpayable",
      "type": "constructor"
    },
    {
      "anonymous": false,
      "inputs": [
        {
          "indexed": true,
          "internalType": "uint72",
          "name": "identityId",
          "type": "uint72"
        },
        {
          "indexed": false,
          "internalType": "bytes",
          "name": "nodeId",
          "type": "bytes"
        },
        {
          "indexed": false,
          "internalType": "uint8",
          "name": "operatorFee",
          "type": "uint8"
        }
      ],
      "name": "OperatorFeeUpdated",
      "type": "event"
    },
    {
      "anonymous": false,
      "inputs": [
        {
          "indexed": true,
          "internalType": "uint72",
          "name": "identityId",
          "type": "uint72"
        },
        {
          "indexed": false,
          "internalType": "bytes",
          "name": "nodeId",
          "type": "bytes"
        },
        {
          "indexed": false,
          "internalType": "uint96",
          "name": "rewardAmount",
          "type": "uint96"
        }
      ],
      "name": "RewardAdded",
      "type": "event"
    },
    {
      "anonymous": false,
      "inputs": [
        {
          "indexed": true,
          "internalType": "uint72",
          "name": "identityId",
          "type": "uint72"
        },
        {
          "indexed": false,
          "internalType": "bytes",
          "name": "nodeId",
          "type": "bytes"
        },
        {
          "indexed": true,
          "internalType": "address",
          "name": "staker",
          "type": "address"
        },
        {
          "indexed": false,
          "internalType": "uint96",
          "name": "newStakeAmount",
          "type": "uint96"
        }
      ],
      "name": "StakeIncreased",
      "type": "event"
    },
    {
      "anonymous": false,
      "inputs": [
        {
          "indexed": true,
          "internalType": "uint72",
          "name": "identityId",
          "type": "uint72"
        },
        {
          "indexed": false,
          "internalType": "bytes",
          "name": "nodeId",
          "type": "bytes"
        },
        {
          "indexed": true,
          "internalType": "address",
          "name": "staker",
          "type": "address"
        },
        {
          "indexed": false,
          "internalType": "uint96",
          "name": "stakeAmount",
          "type": "uint96"
        },
        {
          "indexed": false,
          "internalType": "uint256",
          "name": "withdrawalPeriodEnd",
          "type": "uint256"
        }
      ],
      "name": "StakeWithdrawalStarted",
      "type": "event"
    },
    {
      "anonymous": false,
      "inputs": [
        {
          "indexed": true,
          "internalType": "uint72",
          "name": "identityId",
          "type": "uint72"
        },
        {
          "indexed": false,
          "internalType": "bytes",
          "name": "nodeId",
          "type": "bytes"
        },
        {
          "indexed": true,
          "internalType": "address",
          "name": "staker",
          "type": "address"
        },
        {
          "indexed": false,
          "internalType": "uint96",
          "name": "withdrawnStakeAmount",
          "type": "uint96"
        }
      ],
      "name": "StakeWithdrawn",
      "type": "event"
    },
    {
      "inputs": [],
      "name": "hub",
      "outputs": [
        {
          "internalType": "contract Hub",
          "name": "",
          "type": "address"
        }
      ],
      "stateMutability": "view",
      "type": "function"
    },
    {
      "inputs": [],
      "name": "identityStorage",
      "outputs": [
        {
          "internalType": "contract IdentityStorage",
          "name": "",
          "type": "address"
        }
      ],
      "stateMutability": "view",
      "type": "function"
    },
    {
      "inputs": [],
      "name": "parametersStorage",
      "outputs": [
        {
          "internalType": "contract ParametersStorage",
          "name": "",
          "type": "address"
        }
      ],
      "stateMutability": "view",
      "type": "function"
    },
    {
      "inputs": [],
      "name": "profileStorage",
      "outputs": [
        {
          "internalType": "contract ProfileStorage",
          "name": "",
          "type": "address"
        }
      ],
      "stateMutability": "view",
      "type": "function"
    },
    {
      "inputs": [],
      "name": "serviceAgreementStorageV1",
      "outputs": [
        {
          "internalType": "contract ServiceAgreementStorageV1",
          "name": "",
          "type": "address"
        }
      ],
      "stateMutability": "view",
      "type": "function"
    },
    {
      "inputs": [],
      "name": "shardingTableContract",
      "outputs": [
        {
          "internalType": "contract ShardingTable",
          "name": "",
          "type": "address"
        }
      ],
      "stateMutability": "view",
      "type": "function"
    },
    {
      "inputs": [],
      "name": "shardingTableStorage",
      "outputs": [
        {
          "internalType": "contract ShardingTableStorage",
          "name": "",
          "type": "address"
        }
      ],
      "stateMutability": "view",
      "type": "function"
    },
    {
      "inputs": [],
      "name": "stakingStorage",
      "outputs": [
        {
          "internalType": "contract StakingStorage",
          "name": "",
          "type": "address"
        }
      ],
      "stateMutability": "view",
      "type": "function"
    },
    {
      "inputs": [],
      "name": "tokenContract",
      "outputs": [
        {
          "internalType": "contract IERC20",
          "name": "",
          "type": "address"
        }
      ],
      "stateMutability": "view",
      "type": "function"
    },
    {
      "inputs": [],
      "name": "initialize",
      "outputs": [],
      "stateMutability": "nonpayable",
      "type": "function"
    },
    {
      "inputs": [],
      "name": "name",
      "outputs": [
        {
          "internalType": "string",
          "name": "",
          "type": "string"
        }
      ],
      "stateMutability": "pure",
      "type": "function"
    },
    {
      "inputs": [],
      "name": "version",
      "outputs": [
        {
          "internalType": "string",
          "name": "",
          "type": "string"
        }
      ],
      "stateMutability": "pure",
      "type": "function"
    },
    {
      "inputs": [
        {
          "internalType": "address",
          "name": "sender",
          "type": "address"
        },
        {
          "internalType": "uint72",
          "name": "identityId",
          "type": "uint72"
        },
        {
          "internalType": "uint96",
          "name": "stakeAmount",
          "type": "uint96"
        }
      ],
      "name": "addStake",
      "outputs": [],
      "stateMutability": "nonpayable",
      "type": "function"
    },
    {
      "inputs": [
        {
          "internalType": "uint72",
          "name": "identityId",
          "type": "uint72"
        },
        {
          "internalType": "uint96",
          "name": "stakeAmount",
          "type": "uint96"
        }
      ],
      "name": "addStake",
      "outputs": [],
      "stateMutability": "nonpayable",
      "type": "function"
    },
    {
      "inputs": [
        {
          "internalType": "uint72",
          "name": "identityId",
          "type": "uint72"
        },
        {
          "internalType": "uint96",
          "name": "sharesToBurn",
          "type": "uint96"
        }
      ],
      "name": "startStakeWithdrawal",
      "outputs": [],
      "stateMutability": "nonpayable",
      "type": "function"
    },
    {
      "inputs": [
        {
          "internalType": "uint72",
          "name": "identityId",
          "type": "uint72"
        }
      ],
      "name": "withdrawStake",
      "outputs": [],
      "stateMutability": "nonpayable",
      "type": "function"
    },
    {
      "inputs": [
        {
          "internalType": "uint72",
          "name": "identityId",
          "type": "uint72"
        },
        {
          "internalType": "uint96",
          "name": "rewardAmount",
          "type": "uint96"
        }
      ],
      "name": "addReward",
      "outputs": [],
      "stateMutability": "nonpayable",
      "type": "function"
    },
    {
      "inputs": [
        {
          "internalType": "uint72",
          "name": "identityId",
          "type": "uint72"
        }
      ],
      "name": "slash",
      "outputs": [],
      "stateMutability": "nonpayable",
      "type": "function"
    },
    {
      "inputs": [
        {
          "internalType": "uint72",
          "name": "identityId",
          "type": "uint72"
        },
        {
          "internalType": "uint8",
          "name": "operatorFee",
          "type": "uint8"
        }
      ],
      "name": "setOperatorFee",
      "outputs": [],
      "stateMutability": "nonpayable",
      "type": "function"
    }
  ],
  "bytecode": "0x6080604090808252346200050c5762002c49803803809162000022828562000511565b83396001600160a01b039182916200003e91908101906200054b565b16908115620004c857600080546001600160a01b0319908116841782558451638da5cb5b60e01b815290936020916004919083818481855afa908115620004be5790869186916200049c575b501633036200045b57865190630110ceef60e21b9081835284848401526024600d818501526044906c5368617264696e675461626c6560981b8286015260649487818781875afa9081156200038557908a918a9162000439575b50168a60015416176001558a518481528787820152600f828201526e4964656e7469747953746f7261676560881b8382015287818781875afa9081156200038557908a918a9162000417575b50168a60025416176002558a51848152878782015260118282015270506172616d657465727353746f7261676560781b8382015287818781875afa9081156200038557908a918a91620003f5575b50168a60035416176003558a518481528787820152600e828201526d50726f66696c6553746f7261676560901b8382015287818781875afa9081156200038557908a918a91620003d3575b50168a8754161786558a518481528787820152600e828201526d5374616b696e6753746f7261676560901b8382015287818781875afa9081156200038557908a918a91620003b1575b50168a60055416176005558a5184815287878201526019828201527f5365727669636541677265656d656e7453746f726167655631000000000000008382015287818781875afa9081156200038557908a918a916200038f575b50168a60065416176006558a5184815287878201526014828201527f5368617264696e675461626c6553746f726167650000000000000000000000008382015287818781875afa908115620003855792600589989694938e8e8e642a37b5b2b760d91b968f988e9d9b999162000363575b5016906007541617600755519a8b98899788528701528501528301525afa92831562000358579262000324575b505016906008541617600855516126dc90816200056d8239f35b620003489250803d1062000350575b6200033f818362000511565b8101906200054b565b38806200030a565b503d62000333565b8651903d90823e3d90fd5b6200037e91508d803d1062000350576200033f818362000511565b38620002dd565b8c513d8b823e3d90fd5b620003aa9150893d8b1162000350576200033f818362000511565b386200026c565b620003cc9150893d8b1162000350576200033f818362000511565b3862000212565b620003ee9150893d8b1162000350576200033f818362000511565b38620001c9565b620004109150893d8b1162000350576200033f818362000511565b386200017e565b620004329150893d8b1162000350576200033f818362000511565b3862000130565b620004549150893d8b1162000350576200033f818362000511565b38620000e4565b508160649287519262461bcd60e51b845283015260248201527f466e2063616e206f6e6c79206265207573656420627920687562206f776e65726044820152fd5b620004b79150853d871162000350576200033f818362000511565b386200008a565b88513d87823e3d90fd5b825162461bcd60e51b815260206004820152601960248201527f48756220416464726573732063616e6e6f7420626520307830000000000000006044820152606490fd5b600080fd5b601f909101601f19168101906001600160401b038211908210176200053557604052565b634e487b7160e01b600052604160045260246000fd5b908160209103126200050c57516001600160a01b03811681036200050c579056fe608080604052600436101561001357600080fd5b600090813560e01c90816306fdde031461199957508063268d6de4146119385780632c86da5a146111d0578063365a86fc146111a957806350d0c1441461118057806354fd4d501461113657806355a373d61461110d578063639a86a3146110e45780636b838a5a146110bb5780638129fc1c14610c8b578063823e2bc714610c6257806397c5960714610aeb578063a7b5dd5914610520578063b16b109c146101cc578063b518a00e146101a3578063c47408e31461016e578063d7ec3d7d14610146578063f11abfd81461011d5763f42cb038146100f257600080fd5b3461011a578060031936011261011a576004546040516001600160a01b039091168152602090f35b80fd5b503461011a578060031936011261011a576002546040516001600160a01b039091168152602090f35b503461011a57602036600319011261011a57610160611a28565b5061016961252e565b604051f35b503461011a57604036600319011261011a5761016961018b611a28565b610193611a43565b9061019d816125df565b33611c60565b503461011a578060031936011261011a576005546040516001600160a01b039091168152602090f35b503461011a576020806003193601126103f7576101e7611a28565b6004805460405163c04d7dcf60e01b81526001600160481b0384169281018390526001600160a01b0391821694929391908381602481895afa80156104e8576102379188916104f3575b50611af8565b60055460408051630a67642560e21b81526001600160481b0385166004820152336024820152949290911692919084604481865afa80156104e857879488916104a5575b506001600160601b038516156104625742111561041e5750908591813b1561041a5760405163a88021cb60e01b81526001600160481b03919091166004820152336024820152828160448183865af190811561040f5783916103fb575b5050803b156103f757604051636f6d60d760e11b81523360048201526001600160601b03841660248201529082908290604490829084905af180156103ec576103d8575b50602493604051948580926320e085cd60e11b82528660048301525afa9283156103cd578493610383575b5061037b7fd3bcdb34c5e5ee009db75963106b1f70754ba993806cb1eb6bc7225de01ba09291604051918291339683611c39565b0390a3604051f35b7fd3bcdb34c5e5ee009db75963106b1f70754ba993806cb1eb6bc7225de01ba0929193506103c561037b913d8088833e6103bd8183611a9f565b810190611bcd565b939150610347565b6040513d86823e3d90fd5b6103e28291611a59565b61011a573861031c565b6040513d84823e3d90fd5b5080fd5b61040490611a59565b6103f75781386102d8565b6040513d85823e3d90fd5b8280fd5b6064906040519062461bcd60e51b82526004820152601e60248201527f5769746864726177616c20706572696f64206861736e277420656e64656400006044820152fd5b6064826040519062461bcd60e51b825280600483015260248201527f5769746864726177616c206861736e2774206265656e20696e697469617465646044820152fd5b9450506040843d6040116104e0575b816104c160409383611a9f565b810103126104dc57806104d385611b3c565b9401513861027b565b8680fd5b3d91506104b4565b6040513d89823e3d90fd5b6105139150853d8711610519575b61050b8183611a9f565b810190611ae0565b38610231565b503d610501565b503461011a57604036600319011261011a5761053a611a28565b610542611a43565b9061054b61252e565b60018060a01b0391826006541683600554169360405194631987767160e11b86526001600160481b03851695866004820152602060249681838981875afa928315610910578a93610ab4575b506001600160601b03928316878416801515818604831116610aa157916064858d99989795938d9795021604966105ce888b611b99565b918760045416988c868216610962575b505084831661066a575b5050505050505050604051938480926320e085cd60e11b82528760048301525afa80156103cd577f3a9d6370b8729dd71bf1d551d14a83081992afa378f2f63940251021d0d80472928591610650575b5061064860405192839283611c39565b0390a2604051f35b61066491503d8087833e6103bd8183611a9f565b38610638565b604051639d2b48ad60e01b808252600482019890985284818e818a5afa80156109575784908c9061091f575b6106a09250611bb2565b90863b1561091b57604051635611f9a360e01b81526001600160481b039190911660048201526001600160601b039190911660248201528981604481838a5af1908115610910578a916108fc575b5050803b156108f85760405163e941005360e01b81526001600160a01b03861660048201526001600160601b0392909216602483015288908290604490829084905af19081156108d95788916108e4575b50508460075416818b8b6040518094819363175a11e760e21b835260048301525afa9081156108d95788916108bc575b501593846107dd575b5050505061078d575b858180808080806105e8565b60015416803b1561041a57828091866040518094819363415942b160e01b83528b60048401525af190811561040f5783916107c9575b50610781565b6107d290611a59565b6103f75781386107c3565b8192939450896040518096819382528d60048301525afa9283156108b157869361087a575b5060048185600354166040519283809263762ffd6160e11b82525afa9081156104e8578392889261083e575b5050169116101538808080610778565b8193508092503d8311610873575b6108568183611a9f565b8101031261086f576108688291611b3c565b388061082e565b8580fd5b503d61084c565b9080935081813d83116108aa575b6108928183611a9f565b8101031261086f576108a390611b3c565b9138610802565b503d610888565b6040513d88823e3d90fd5b6108d39150823d84116105195761050b8183611a9f565b3861076f565b6040513d8a823e3d90fd5b6108ed90611a59565b6104dc57863861073f565b8880fd5b61090590611a59565b6108f85788386106ee565b6040513d8c823e3d90fd5b8a80fd5b50508481813d8311610950575b6109368183611a9f565b8101031261091b578361094b6106a092611b3c565b610696565b503d61092c565b6040513d8d823e3d90fd5b90978590604051928391636095a63b60e11b83526004830152818d5afa80156109575788908c90610a69575b6109989250611bb2565b893b1561091b576040516368751ff760e11b81526001600160481b03831660048201526001600160601b039190911660248201528a81604481838e5af1908115610957578b91610a55575b5050813b15610a515760405163e941005360e01b81526001600160a01b038a1660048201526001600160601b03979097166024880152898760448183865af18015610910578d978b91610a38575b508c6105de565b610a4491929850611a59565b6108f8578b958938610a31565b8980fd5b610a5e90611a59565b610a515789386109e3565b50508481813d8311610a9a575b610a808183611a9f565b8101031261091b5787610a9561099892611b3c565b61098e565b503d610a76565b634e487b7160e01b8c526011600452898cfd5b9092508181813d8311610ae4575b610acc8183611a9f565b81010312610a5157610add90611b3c565b9138610597565b503d610ac2565b503461011a57604036600319011261011a57610b05611a28565b60243560ff811680910361041a57610b1c826125df565b60648111610c1d576005546001600160a01b03908116928490843b156103f757816001600160481b03604482936040519485938492635b19b2e560e11b845216998a60048401528960248401525af180156103ec57610c09575b5060249160045416604051928380926320e085cd60e11b82528760048301525afa80156103cd577fe6a2394a4d6dad5274e51217afd3926e9caa2dd69a6fea3e91486e44af0060e892610bdf928692610bed575b50604051928392604084526040840190611a03565b9060208301520390a2604051f35b610c029192503d8088833e6103bd8183611a9f565b9038610bca565b610c138291611a59565b61011a5738610b76565b60405162461bcd60e51b815260206004820152601c60248201527f4f70657261746f7220666565206f7574206f66205b302c203130305d000000006044820152606490fd5b503461011a578060031936011261011a576007546040516001600160a01b039091168152602090f35b503461011a578060031936011261011a578054604051638da5cb5b60e01b81526001600160a01b0391821691906020908181600481875afa8015610f83578391869161109e575b5016330361105b578360405193630110ceef60e21b90818652836004870152602490600d828801526044926c5368617264696e675461626c6560981b8489015260649186898481845afa9889156108b157869961103c575b50876001600160601b0360a01b9916896001541617600155604051828152876004820152600f858201526e4964656e7469747953746f7261676560881b8682015287818581855afa80156104e8578991889161101f575b501689600254161760025560405182815287600482015260118582015270506172616d657465727353746f7261676560781b8682015287818581855afa80156104e85789918891611002575b5016896003541617600355604051828152876004820152600e858201526d50726f66696c6553746f7261676560901b8682015287818581855afa80156104e85789918891610fe5575b5016896004541617600455604051828152876004820152600e858201526d5374616b696e6753746f7261676560901b8682015287818581855afa80156104e85789918891610fc8575b50168960055416176005556040518281528760048201526019858201527f5365727669636541677265656d656e7453746f726167655631000000000000008682015287818581855afa80156104e85789918891610fab575b5016896006541617600655604051828152876004820152601485820152735368617264696e675461626c6553746f7261676560601b8682015287818581855afa9586156104e857898997642a37b5b2b760d91b9360059a91610f8e575b50168b6007541617600755604051978896879586528860048701528501528301525afa918215610f83578592610f56575b505016906008541617600855604051f35b610f759250803d10610f7c575b610f6d8183611a9f565b810190611ac1565b3880610f45565b503d610f63565b6040513d87823e3d90fd5b610fa59150893d8b11610f7c57610f6d8183611a9f565b38610f14565b610fc29150893d8b11610f7c57610f6d8183611a9f565b38610eb7565b610fdf9150893d8b11610f7c57610f6d8183611a9f565b38610e5f565b610ffc9150893d8b11610f7c57610f6d8183611a9f565b38610e16565b6110199150893d8b11610f7c57610f6d8183611a9f565b38610dcd565b6110369150893d8b11610f7c57610f6d8183611a9f565b38610d81565b611054919950873d8911610f7c57610f6d8183611a9f565b9738610d2a565b6064906040519062461bcd60e51b825280600483015260248201527f466e2063616e206f6e6c79206265207573656420627920687562206f776e65726044820152fd5b6110b59150833d8511610f7c57610f6d8183611a9f565b38610cd2565b503461011a578060031936011261011a576001546040516001600160a01b039091168152602090f35b503461011a578060031936011261011a576003546040516001600160a01b039091168152602090f35b503461011a578060031936011261011a576008546040516001600160a01b039091168152602090f35b503461011a578060031936011261011a5761117c60405161115681611a83565b60058152640312e302e360dc1b6020820152604051918291602083526020830190611a03565b0390f35b503461011a578060031936011261011a576006546040516001600160a01b039091168152602090f35b503461011a578060031936011261011a57546040516001600160a01b039091168152602090f35b503461011a57604036600319011261011a576111ea611a28565b6001600160601b036111fa611a43565b1680156118f3576004805460055460405163c04d7dcf60e01b81526001600160481b038616938101939093526001600160a01b0391821692911690602081602481865afa80156108b1576112549187916118da5750611af8565b604051632e15869560e21b81526001600160481b038516600482015292602084602481865afa9384156108b15786946118b9575b506040516370a0823160e01b81523360048201526020816024816001600160a01b0389165afa9081156104e8578791611887575b50811161184257604051639d2b48ad60e01b81526001600160481b0386166004820152602081602481865afa9081156104e8578791611808575b5061130a826001600160601b038316611b50565b6040516318160ddd60e01b8152906020826004816001600160a01b038b165afa9182156117c75789926117d2575b5061134e611356926001600160601b0392611b79565b168092611b99565b604051632347e51760e01b81526001600160481b03881660048201523360248201529091602082604481885afa80156117c757899061178c575b61139a9250611bb2565b9460018060a01b0360035416926040519463151db1b960e01b8652602086600481885afa958615610910578a9661174c575b5062ffffff86164201421161173857803b15610a515760405163dc99106f60e01b81526001600160481b038a1660048201523360248201526001600160601b03891660448201524262ffffff88160160648201528a8160848183865af180156109575761171d575b5090818a959493923b1561086f57604051635611f9a360e01b81526001600160481b038b1660048201526001600160601b03851660248201529086908290604490829084905af19081156108b1578691611709575b50506001600160a01b0382163b156117055760405163079cc67960e41b815233600482015260248101919091529084908290604490829084906001600160a01b03165af19081156103cd5784916116f1575b505060075460405163175a11e760e21b81526001600160481b03891660048201529290602090849060249082906001600160a01b03165afa9283156103cd5784936116d0575b508261164c575b50506115ed575b6040516320e085cd60e11b81526001600160481b038616600482015292839060249082905afa908115610f83577fe39af003edd916653be5504f9d0222ff7f522ee3be2411eab59b328bd78f80249286926115cc575b5062ffffff906001600160601b036115a860405194606086526060860190611a03565b951660208401521642016040820152806001600160481b03339516930390a3604051f35b62ffffff9192506115e6903d8089833e6103bd8183611a9f565b9190611585565b6001546001600160a01b0316803b156103f7578180916024604051809481936357ce0f6360e11b83526001600160481b038c1660048401525af180156103ec57611638575b5061152f565b6116428291611a59565b61011a5738611632565b60405163762ffd6160e11b8152919250602090829060049082905afa90811561040f57839161168c575b506001600160601b038091169116103880611528565b90506020813d6020116116c8575b816116a760209383611a9f565b8101031261041a576001600160601b036116c18192611b3c565b9150611676565b3d915061169a565b6116ea91935060203d6020116105195761050b8183611a9f565b9138611521565b6116fa90611a59565b61041a5782386114db565b8480fd5b61171290611a59565b611705578438611489565b61172d909a91959493929a611a59565b989091929338611434565b634e487b7160e01b8a52601160045260248afd5b9095506020813d602011611784575b8161176860209383611a9f565b81010312610a51575162ffffff81168103610a515794386113cc565b3d915061175b565b506020823d6020116117bf575b816117a660209383611a9f565b810103126108f8576117ba61139a92611b3c565b611390565b3d9150611799565b6040513d8b823e3d90fd5b91506020823d602011611800575b816117ed60209383611a9f565b810103126108f85790519061134e611338565b3d91506117e0565b90506020813d60201161183a575b8161182360209383611a9f565b810103126104dc5761183490611b3c565b386112f6565b3d9150611816565b60405162461bcd60e51b815260206004820152601f60248201527f736861726573546f4275726e206d757374206265203c3d2062616c616e6365006044820152606490fd5b90506020813d6020116118b1575b816118a260209383611a9f565b810103126104dc5751386112bc565b3d9150611895565b6118d391945060203d602011610f7c57610f6d8183611a9f565b9238611288565b610513915060203d6020116105195761050b8183611a9f565b60405162461bcd60e51b815260206004820152601d60248201527f5769746864726177616c20616d6f756e742063616e6e6f7420626520300000006044820152606490fd5b503461011a57606036600319011261011a576004356001600160a01b03811681036103f7576024356001600160481b038116810361041a57604435906001600160601b0382168203611995576101699261199061252e565b611c60565b8380fd5b9050346103f757816003193601126103f757806119b861117c92611a83565b60078152665374616b696e6760c81b6020820152604051918291602083526020830190611a03565b60005b8381106119f35750506000910152565b81810151838201526020016119e3565b90602091611a1c815180928185528580860191016119e0565b601f01601f1916010190565b600435906001600160481b0382168203611a3e57565b600080fd5b602435906001600160601b0382168203611a3e57565b67ffffffffffffffff8111611a6d57604052565b634e487b7160e01b600052604160045260246000fd5b6040810190811067ffffffffffffffff821117611a6d57604052565b90601f8019910116810190811067ffffffffffffffff821117611a6d57604052565b90816020910312611a3e57516001600160a01b0381168103611a3e5790565b90816020910312611a3e57518015158103611a3e5790565b15611aff57565b60405162461bcd60e51b8152602060048201526015602482015274141c9bd99a5b1948191bd95cdb89dd08195e1a5cdd605a1b6044820152606490fd5b51906001600160601b0382168203611a3e57565b8060001904821181151516611b63570290565b634e487b7160e01b600052601160045260246000fd5b8115611b83570490565b634e487b7160e01b600052601260045260246000fd5b6001600160601b039182169082160391908211611b6357565b9190916001600160601b0380809416911601918211611b6357565b602081830312611a3e57805167ffffffffffffffff91828211611a3e57019082601f83011215611a3e578151908111611a6d5760405192611c18601f8301601f191660200185611a9f565b81845260208284010111611a3e57611c3691602080850191016119e0565b90565b906001600160601b03611c59602092959495604085526040850190611a03565b9416910152565b6005546004805460035460085460405163c04d7dcf60e01b81526001600160481b03881694810194909452959660009690946001600160a01b039384169490939283169290911690602081602481885afa9081156108d95790611cc99189916118da5750611af8565b604051636eb1769f60e11b81526001600160a01b0387166004820152306024820152602081604481855afa9081156108d95788916124fc575b506001600160601b038616116124b757604051639d2b48ad60e01b81526001600160481b03891660048201526020816024816001600160a01b0388165afa80156108d957889061247c575b611d58915086611bb2565b60405163b5c6b45360e01b8152602081600481875afa9081156117c7578991612438575b506001600160601b038091169116116123f357604051632e15869560e21b81526001600160481b0389166004820152602081602481885afa9081156108d95788916123d4575b506040516318160ddd60e01b81526020816004816001600160a01b0386165afa9081156117c75789916123a2575b50612290576001600160601b0386165b6001600160a01b0382163b156108f8576040516340c10f1960e01b81526001600160a01b03808a1660048301526024820192909252918991839160449183918591165af180156108d95761227d575b50604051639d2b48ad60e01b81526001600160481b03891660048201526020816024816001600160a01b0388165afa80156108d95786908990612240575b611e979250611bb2565b6001600160a01b0384163b1561223c57604051635611f9a360e01b81526001600160481b038a1660048201526001600160601b039190911660248201528781604481836001600160a01b0389165af180156108d957908891612228575b506040516323b872dd60e01b81526001600160a01b038881166004830152851660248201526001600160601b038716604482015291602091839160649183915af180156104e857612209575b5060075460405163175a11e760e21b81526001600160481b038916600482015290602090829060249082906001600160a01b03165afa9081156104e857908793929184916121ea575b501591826120db575b5050612078575b6040516320e085cd60e11b81526001600160481b038716600482015291829060249082905afa93841561206c57809461201d575b50506040516001600160a01b03909216936001600160481b0316927f23c5a229c631784e1c35273d5337c87003a406cd3cdf37d432a0cfd95652fcc392918291612018919083611c39565b0390a3565b6001600160481b039294506120617f23c5a229c631784e1c35273d5337c87003a406cd3cdf37d432a0cfd95652fcc39492612018923d8091833e6103bd8183611a9f565b949250819350611fcd565b604051903d90823e3d90fd5b506001546001600160a01b0316803b156117055784809160246040518094819363415942b160e01b83526001600160481b038c1660048401525af18015610f83579085916120c7575b50611f99565b6120d090611a59565b6119955783386120c1565b604051639d2b48ad60e01b81526001600160481b038a1660048201529350909150602090839060249082906001600160a01b03165afa9182156108b15786926121a9575b5060206004916040519283809263762ffd6160e11b82525afa9081156108b157908692918391612161575b506001600160601b03809116911610153880611f92565b919250506020813d6020116121a1575b8161217e60209383611a9f565b8101031261086f57906001600160601b038061219a8894611b3c565b915061214a565b3d9150612171565b9091506020813d6020116121e2575b816121c560209383611a9f565b8101031261086f5760206121da600492611b3c565b92915061211f565b3d91506121b8565b612203915060203d6020116105195761050b8183611a9f565b38611f89565b6122219060203d6020116105195761050b8183611a9f565b5038611f40565b61223190611a59565b6104dc578638611ef4565b8780fd5b50506020813d602011612275575b8161225b60209383611a9f565b8101031261223c5785612270611e9792611b3c565b611e8d565b3d915061224e565b61228990979197611a59565b9538611e4f565b6040516318160ddd60e01b81526020816004816001600160a01b0386165afa80156117c757899061236e575b6122d091506001600160601b038816611b50565b604051639d2b48ad60e01b81526001600160481b038b1660048201526020816024816001600160a01b038a165afa908115610910578a91612326575b50906001600160601b03612321921690611b79565b611e00565b90506020813d602011612366575b8161234160209383611a9f565b81010312610a5157906001600160601b0361235e61232193611b3c565b91925061230c565b3d9150612334565b506020813d60201161239a575b8161238860209383611a9f565b810103126108f8576122d090516122bc565b3d915061237b565b90506020813d6020116123cc575b816123bd60209383611a9f565b810103126108f8575138611df0565b3d91506123b0565b6123ed915060203d602011610f7c57610f6d8183611a9f565b38611dc2565b60405162461bcd60e51b815260206004820152601a60248201527f457863656564656420746865206d6178696d756d207374616b650000000000006044820152606490fd5b90506020813d602011612474575b8161245360209383611a9f565b810103126108f8576001600160601b0361246d8192611b3c565b9150611d7c565b3d9150612446565b506020813d6020116124af575b8161249660209383611a9f565b8101031261223c576124aa611d5891611b3c565b611d4d565b3d9150612489565b60405162461bcd60e51b815260206004820152601760248201527f416c6c6f77616e6365203c207374616b65416d6f756e740000000000000000006044820152606490fd5b90506020813d602011612526575b8161251760209383611a9f565b8101031261223c575138611d02565b3d915061250a565b600054604051631627905560e01b815233600482015290602090829060249082906001600160a01b03165afa9081156125d3576000916125b5575b501561257157565b606460405162461bcd60e51b815260206004820152602060248201527f466e2063616e206f6e6c792062652063616c6c656420627920746865206875626044820152fd5b6125cd915060203d81116105195761050b8183611a9f565b38612569565b6040513d6000823e3d90fd5b60206001600160481b03606460018060a01b036002541693604051848101903360601b82526014815261261181611a83565b519020946040519586948593631af27dbd60e11b85521660048401526024830152600160448301525afa9081156125d357600091612688575b501561265257565b60405162461bcd60e51b815260206004820152600e60248201526d20b236b4b710333ab731ba34b7b760911b6044820152606490fd5b6126a0915060203d81116105195761050b8183611a9f565b3861264a56fea264697066735822122052fe22cbc2772421d705a9f9e7e8f9eb298e44dae1d556eee0107dc28c2673c864736f6c63430008100033",
  "immutableReferences": {},
  "source": "// SPDX-License-Identifier: MIT\n\npragma solidity ^0.8.4;\n\nimport {Hub} from \"./Hub.sol\";\nimport {ShardingTable} from \"./ShardingTable.sol\";\nimport {Shares} from \"./Shares.sol\";\nimport {IdentityStorage} from \"./storage/IdentityStorage.sol\";\nimport {ParametersStorage} from \"./storage/ParametersStorage.sol\";\nimport {ProfileStorage} from \"./storage/ProfileStorage.sol\";\nimport {ServiceAgreementStorageV1} from \"./storage/ServiceAgreementStorageV1.sol\";\nimport {ShardingTableStorage} from \"./storage/ShardingTableStorage.sol\";\nimport {StakingStorage} from \"./storage/StakingStorage.sol\";\nimport {Named} from \"./interface/Named.sol\";\nimport {Versioned} from \"./interface/Versioned.sol\";\nimport {ADMIN_KEY} from \"./constants/IdentityConstants.sol\";\nimport {IERC20} from \"@openzeppelin/contracts/token/ERC20/IERC20.sol\";\n\ncontract Staking is Named, Versioned {\n    event StakeIncreased(uint72 indexed identityId, bytes nodeId, address indexed staker, uint96 newStakeAmount);\n    event StakeWithdrawalStarted(\n        uint72 indexed identityId,\n        bytes nodeId,\n        address indexed staker,\n        uint96 stakeAmount,\n        uint256 withdrawalPeriodEnd\n    );\n    event StakeWithdrawn(uint72 indexed identityId, bytes nodeId, address indexed staker, uint96 withdrawnStakeAmount);\n    event RewardAdded(uint72 indexed identityId, bytes nodeId, uint96 rewardAmount);\n    event OperatorFeeUpdated(uint72 indexed identityId, bytes nodeId, uint8 operatorFee);\n\n    string private constant _NAME = \"Staking\";\n    string private constant _VERSION = \"1.0.0\";\n\n    Hub public hub;\n    ShardingTable public shardingTableContract;\n    IdentityStorage public identityStorage;\n    ParametersStorage public parametersStorage;\n    ProfileStorage public profileStorage;\n    StakingStorage public stakingStorage;\n    ServiceAgreementStorageV1 public serviceAgreementStorageV1;\n    ShardingTableStorage public shardingTableStorage;\n    IERC20 public tokenContract;\n\n    constructor(address hubAddress) {\n        require(hubAddress != address(0), \"Hub Address cannot be 0x0\");\n\n        hub = Hub(hubAddress);\n\n        initialize();\n    }\n\n    modifier onlyHubOwner() {\n        _checkHubOwner();\n        _;\n    }\n\n    modifier onlyContracts() {\n        _checkHub();\n        _;\n    }\n\n    modifier onlyAdmin(uint72 identityId) {\n        _checkAdmin(identityId);\n        _;\n    }\n\n    function initialize() public onlyHubOwner {\n        shardingTableContract = ShardingTable(hub.getContractAddress(\"ShardingTable\"));\n        identityStorage = IdentityStorage(hub.getContractAddress(\"IdentityStorage\"));\n        parametersStorage = ParametersStorage(hub.getContractAddress(\"ParametersStorage\"));\n        profileStorage = ProfileStorage(hub.getContractAddress(\"ProfileStorage\"));\n        stakingStorage = StakingStorage(hub.getContractAddress(\"StakingStorage\"));\n        serviceAgreementStorageV1 = ServiceAgreementStorageV1(hub.getContractAddress(\"ServiceAgreementStorageV1\"));\n        shardingTableStorage = ShardingTableStorage(hub.getContractAddress(\"ShardingTableStorage\"));\n        tokenContract = IERC20(hub.getContractAddress(\"Token\"));\n    }\n\n    function name() external pure virtual override returns (string memory) {\n        return _NAME;\n    }\n\n    function version() external pure virtual override returns (string memory) {\n        return _VERSION;\n    }\n\n    function addStake(address sender, uint72 identityId, uint96 stakeAmount) external onlyContracts {\n        _addStake(sender, identityId, stakeAmount);\n    }\n\n    function addStake(uint72 identityId, uint96 stakeAmount) external onlyAdmin(identityId) {\n        _addStake(msg.sender, identityId, stakeAmount);\n    }\n\n    function startStakeWithdrawal(uint72 identityId, uint96 sharesToBurn) external {\n        require(sharesToBurn != 0, \"Withdrawal amount cannot be 0\");\n\n        ProfileStorage ps = profileStorage;\n        StakingStorage ss = stakingStorage;\n\n        require(ps.profileExists(identityId), \"Profile doesn't exist\");\n\n        Shares sharesContract = Shares(ps.getSharesContractAddress(identityId));\n\n        require(sharesToBurn <= sharesContract.balanceOf(msg.sender), \"sharesToBurn must be <= balance\");\n\n        uint96 oldStake = ss.totalStakes(identityId);\n        uint96 stakeWithdrawalAmount = (uint96((uint256(oldStake) * sharesToBurn) / sharesContract.totalSupply()));\n        uint96 newStake = oldStake - stakeWithdrawalAmount;\n        uint96 newStakeWithdrawalAmount = ss.getWithdrawalRequestAmount(identityId, msg.sender) + stakeWithdrawalAmount;\n\n        ParametersStorage params = parametersStorage;\n\n        uint256 withdrawalPeriodEnd = block.timestamp + params.stakeWithdrawalDelay();\n        ss.createWithdrawalRequest(identityId, msg.sender, newStakeWithdrawalAmount, withdrawalPeriodEnd);\n        ss.setTotalStake(identityId, newStake);\n        sharesContract.burnFrom(msg.sender, sharesToBurn);\n\n        if (shardingTableStorage.nodeExists(identityId) && (newStake < params.minimumStake())) {\n            shardingTableContract.removeNode(identityId);\n        }\n\n        emit StakeWithdrawalStarted(\n            identityId,\n            ps.getNodeId(identityId),\n            msg.sender,\n            newStakeWithdrawalAmount,\n            withdrawalPeriodEnd\n        );\n    }\n\n    function withdrawStake(uint72 identityId) external {\n        ProfileStorage ps = profileStorage;\n\n        require(ps.profileExists(identityId), \"Profile doesn't exist\");\n\n        StakingStorage ss = stakingStorage;\n\n        uint96 stakeWithdrawalAmount;\n        uint256 withdrawalTimestamp;\n        (stakeWithdrawalAmount, withdrawalTimestamp) = ss.withdrawalRequests(identityId, msg.sender);\n\n        require(stakeWithdrawalAmount != 0, \"Withdrawal hasn't been initiated\");\n        require(withdrawalTimestamp < block.timestamp, \"Withdrawal period hasn't ended\");\n\n        ss.deleteWithdrawalRequest(identityId, msg.sender);\n        ss.transferStake(msg.sender, stakeWithdrawalAmount);\n\n        emit StakeWithdrawn(identityId, ps.getNodeId(identityId), msg.sender, stakeWithdrawalAmount);\n    }\n\n    function addReward(uint72 identityId, uint96 rewardAmount) external onlyContracts {\n        ServiceAgreementStorageV1 sasV1 = serviceAgreementStorageV1;\n        StakingStorage ss = stakingStorage;\n\n        uint96 operatorFee = (rewardAmount * ss.operatorFees(identityId)) / 100;\n        uint96 delegatorsReward = rewardAmount - operatorFee;\n\n        ProfileStorage ps = profileStorage;\n\n        if (operatorFee != 0) {\n            ps.setAccumulatedOperatorFee(identityId, ps.getAccumulatedOperatorFee(identityId) + operatorFee);\n            sasV1.transferAgreementTokens(address(ps), operatorFee);\n        }\n\n        if (delegatorsReward != 0) {\n            ss.setTotalStake(identityId, ss.totalStakes(identityId) + delegatorsReward);\n            sasV1.transferAgreementTokens(address(ss), delegatorsReward);\n\n            if (\n                !shardingTableStorage.nodeExists(identityId) &&\n                ss.totalStakes(identityId) >= parametersStorage.minimumStake()\n            ) {\n                shardingTableContract.pushBack(identityId);\n            }\n        }\n\n        emit RewardAdded(identityId, ps.getNodeId(identityId), rewardAmount);\n    }\n\n    // solhint-disable-next-line no-empty-blocks\n    function slash(uint72 identityId) external onlyContracts {\n        // TBD\n    }\n\n    function setOperatorFee(uint72 identityId, uint8 operatorFee) external onlyAdmin(identityId) {\n        require(operatorFee <= 100, \"Operator fee out of [0, 100]\");\n        stakingStorage.setOperatorFee(identityId, operatorFee);\n\n        emit OperatorFeeUpdated(identityId, profileStorage.getNodeId(identityId), operatorFee);\n    }\n\n    function _addStake(address sender, uint72 identityId, uint96 stakeAmount) internal virtual {\n        StakingStorage ss = stakingStorage;\n        ProfileStorage ps = profileStorage;\n        ParametersStorage params = parametersStorage;\n        IERC20 tknc = tokenContract;\n\n        require(ps.profileExists(identityId), \"Profile doesn't exist\");\n        require(tknc.allowance(sender, address(this)) >= stakeAmount, \"Allowance < stakeAmount\");\n        require((stakeAmount + ss.totalStakes(identityId)) <= params.maximumStake(), \"Exceeded the maximum stake\");\n\n        Shares sharesContract = Shares(ps.getSharesContractAddress(identityId));\n\n        uint256 sharesMinted;\n        if (sharesContract.totalSupply() == 0) {\n            sharesMinted = stakeAmount;\n        } else {\n            sharesMinted = ((stakeAmount * sharesContract.totalSupply()) / ss.totalStakes(identityId));\n        }\n        sharesContract.mint(sender, sharesMinted);\n\n        ss.setTotalStake(identityId, ss.totalStakes(identityId) + stakeAmount);\n        tknc.transferFrom(sender, address(ss), stakeAmount);\n\n        if (!shardingTableStorage.nodeExists(identityId) && ss.totalStakes(identityId) >= params.minimumStake()) {\n            shardingTableContract.pushBack(identityId);\n        }\n\n        emit StakeIncreased(identityId, ps.getNodeId(identityId), sender, stakeAmount);\n    }\n\n    function _checkHubOwner() internal view virtual {\n        require(msg.sender == hub.owner(), \"Fn can only be used by hub owner\");\n    }\n\n    function _checkHub() internal view virtual {\n        require(hub.isContract(msg.sender), \"Fn can only be called by the hub\");\n    }\n\n    function _checkAdmin(uint72 identityId) internal view virtual {\n        require(\n            identityStorage.keyHasPurpose(identityId, keccak256(abi.encodePacked(msg.sender)), ADMIN_KEY),\n            \"Admin function\"\n        );\n    }\n}\n",
  "sourcePath": "/Users/waving/Desktop/OriginTrail/dkg-evm-module/contracts/Staking.sol",
  "compiler": {
    "name": "solc",
    "version": "0.8.16+commit.07a7930e.Emscripten.clang"
  },
  "schemaVersion": "3.4.10",
  "updatedAt": "2022-12-14T11:57:23.867Z",
  "devdoc": {
    "kind": "dev",
    "methods": {},
    "version": 1
  },
  "userdoc": {
    "kind": "user",
    "methods": {},
    "version": 1
  }
}